{
  "_format": "hh-sol-artifact-1",
  "contractName": "EcoNovaManager",
  "sourceName": "contracts/EcoNovaManager.sol",
  "abi": [
    {
      "inputs": [
        {
          "internalType": "address",
          "name": "orocleAddress",
          "type": "address"
        }
      ],
      "stateMutability": "nonpayable",
      "type": "constructor"
    },
    {
      "inputs": [],
      "name": "EcoNovaManager__ConversionNotAvailable",
      "type": "error"
    },
    {
      "inputs": [],
      "name": "EcoNovaManager__IncorrectETHAmount",
      "type": "error"
    },
    {
      "inputs": [],
      "name": "EcoNovaManager__InsufficientBalance",
      "type": "error"
    },
    {
      "inputs": [],
      "name": "EcoNovaManager__InsufficientPoints",
      "type": "error"
    },
    {
      "inputs": [],
      "name": "EcoNovaManager__SendingFailed",
      "type": "error"
    },
    {
      "inputs": [
        {
          "internalType": "address",
          "name": "owner",
          "type": "address"
        }
      ],
      "name": "OwnableInvalidOwner",
      "type": "error"
    },
    {
      "inputs": [
        {
          "internalType": "address",
          "name": "account",
          "type": "address"
        }
      ],
      "name": "OwnableUnauthorizedAccount",
      "type": "error"
    },
    {
      "anonymous": false,
      "inputs": [
        {
          "indexed": true,
          "internalType": "address",
          "name": "user",
          "type": "address"
        },
        {
          "indexed": true,
          "internalType": "address",
          "name": "token",
          "type": "address"
        },
        {
          "indexed": false,
          "internalType": "uint256",
          "name": "amount",
          "type": "uint256"
        }
      ],
      "name": "Donated",
      "type": "event"
    },
    {
      "anonymous": false,
      "inputs": [
        {
          "indexed": true,
          "internalType": "address",
          "name": "user",
          "type": "address"
        },
        {
          "indexed": true,
          "internalType": "address",
          "name": "token",
          "type": "address"
        },
        {
          "indexed": false,
          "internalType": "uint256",
          "name": "amount",
          "type": "uint256"
        }
      ],
      "name": "DonationWithdrawed",
      "type": "event"
    },
    {
      "anonymous": false,
      "inputs": [
        {
          "indexed": true,
          "internalType": "address",
          "name": "previousOwner",
          "type": "address"
        },
        {
          "indexed": true,
          "internalType": "address",
          "name": "newOwner",
          "type": "address"
        }
      ],
      "name": "OwnershipTransferred",
      "type": "event"
    },
    {
      "anonymous": false,
      "inputs": [
        {
          "indexed": true,
          "internalType": "address",
          "name": "user",
          "type": "address"
        },
        {
          "indexed": false,
          "internalType": "uint256",
          "name": "points",
          "type": "uint256"
        }
      ],
      "name": "PointsAdded",
      "type": "event"
    },
    {
      "anonymous": false,
      "inputs": [
        {
          "indexed": true,
          "internalType": "address",
          "name": "user",
          "type": "address"
        },
        {
          "indexed": false,
          "internalType": "uint256",
          "name": "points",
          "type": "uint256"
        }
      ],
      "name": "PointsRedeemed",
      "type": "event"
    },
    {
      "anonymous": false,
      "inputs": [
        {
          "indexed": true,
          "internalType": "address",
          "name": "oldOrocle",
          "type": "address"
        },
        {
          "indexed": true,
          "internalType": "address",
          "name": "newOrocle",
          "type": "address"
        }
      ],
      "name": "SetOrocle",
      "type": "event"
    },
    {
      "inputs": [],
      "name": "ETH_ADDRESS",
      "outputs": [
        {
          "internalType": "address",
          "name": "",
          "type": "address"
        }
      ],
      "stateMutability": "view",
      "type": "function"
    },
    {
      "inputs": [],
      "name": "FIAT_DECIMALS",
      "outputs": [
        {
          "internalType": "uint256",
          "name": "",
          "type": "uint256"
        }
      ],
      "stateMutability": "view",
      "type": "function"
    },
    {
      "inputs": [],
      "name": "POINT_BASIS",
      "outputs": [
        {
          "internalType": "uint256",
          "name": "",
          "type": "uint256"
        }
      ],
      "stateMutability": "view",
      "type": "function"
    },
    {
      "inputs": [],
      "name": "SLIPPAGE_TOLERANCE_BPS",
      "outputs": [
        {
          "internalType": "uint256",
          "name": "",
          "type": "uint256"
        }
      ],
      "stateMutability": "view",
      "type": "function"
    },
    {
      "inputs": [
        {
          "internalType": "uint256",
          "name": "weightInGrams",
          "type": "uint256"
        }
      ],
      "name": "addPointFromWeight",
      "outputs": [],
      "stateMutability": "nonpayable",
      "type": "function"
    },
    {
      "inputs": [
        {
          "internalType": "address",
          "name": "token",
          "type": "address"
        },
        {
          "internalType": "uint256",
          "name": "amountInUsd",
          "type": "uint256"
        }
      ],
      "name": "donateToFoundation",
      "outputs": [],
      "stateMutability": "payable",
      "type": "function"
    },
    {
      "inputs": [
        {
          "internalType": "address",
          "name": "",
          "type": "address"
        }
      ],
      "name": "donations",
      "outputs": [
        {
          "internalType": "uint256",
          "name": "",
          "type": "uint256"
        }
      ],
      "stateMutability": "view",
      "type": "function"
    },
    {
      "inputs": [
        {
          "internalType": "address",
          "name": "token",
          "type": "address"
        },
        {
          "internalType": "uint256",
          "name": "amountInUsd",
          "type": "uint256"
        }
      ],
      "name": "getUsdToTokenPrice",
      "outputs": [
        {
          "internalType": "uint256",
          "name": "",
          "type": "uint256"
        }
      ],
      "stateMutability": "view",
      "type": "function"
    },
    {
      "inputs": [],
      "name": "i_ecoNovaToken",
      "outputs": [
        {
          "internalType": "contract EcoNovaToken",
          "name": "",
          "type": "address"
        }
      ],
      "stateMutability": "view",
      "type": "function"
    },
    {
      "inputs": [],
      "name": "i_ethIdentifier",
      "outputs": [
        {
          "internalType": "bytes20",
          "name": "",
          "type": "bytes20"
        }
      ],
      "stateMutability": "view",
      "type": "function"
    },
    {
      "inputs": [],
      "name": "owner",
      "outputs": [
        {
          "internalType": "address",
          "name": "",
          "type": "address"
        }
      ],
      "stateMutability": "view",
      "type": "function"
    },
    {
      "inputs": [
        {
          "internalType": "uint256",
          "name": "point",
          "type": "uint256"
        }
      ],
      "name": "redeemCode",
      "outputs": [
        {
          "internalType": "bool",
          "name": "success",
          "type": "bool"
        }
      ],
      "stateMutability": "nonpayable",
      "type": "function"
    },
    {
      "inputs": [],
      "name": "renounceOwnership",
      "outputs": [],
      "stateMutability": "nonpayable",
      "type": "function"
    },
    {
      "inputs": [
        {
          "internalType": "address",
          "name": "newOwner",
          "type": "address"
        }
      ],
      "name": "transferOwnership",
      "outputs": [],
      "stateMutability": "nonpayable",
      "type": "function"
    },
    {
      "inputs": [
        {
          "internalType": "address",
          "name": "",
          "type": "address"
        }
      ],
      "name": "userDonations",
      "outputs": [
        {
          "internalType": "uint256",
          "name": "",
          "type": "uint256"
        }
      ],
      "stateMutability": "view",
      "type": "function"
    },
    {
      "inputs": [
        {
          "internalType": "address",
          "name": "",
          "type": "address"
        }
      ],
      "name": "userPoints",
      "outputs": [
        {
          "internalType": "uint256",
          "name": "points",
          "type": "uint256"
        },
        {
          "internalType": "uint256",
          "name": "updatedTimeStamp",
          "type": "uint256"
        },
        {
          "internalType": "uint256",
          "name": "createdTimeStamp",
          "type": "uint256"
        },
        {
          "internalType": "address",
          "name": "user",
          "type": "address"
        }
      ],
      "stateMutability": "view",
      "type": "function"
    },
    {
      "inputs": [
        {
          "internalType": "address",
          "name": "token",
          "type": "address"
        },
        {
          "internalType": "uint256",
          "name": "amount",
          "type": "uint256"
        }
      ],
      "name": "withdrawDonation",
      "outputs": [],
      "stateMutability": "nonpayable",
      "type": "function"
    }
  ],
  "bytecode": "0x60c06040527f45544800000000000000000000000000000000000000000000000000000000006bffffffffffffffffffffffff191660a0906bffffffffffffffffffffffff191681525034801561005557600080fd5b506040516132d23803806132d28339818101604052810190610077919061034d565b33600073ffffffffffffffffffffffffffffffffffffffff168173ffffffffffffffffffffffffffffffffffffffff16036100ea5760006040517f1e4fbdf70000000000000000000000000000000000000000000000000000000081526004016100e19190610389565b60405180910390fd5b6100f98161021960201b60201c565b50604051610106906102dd565b604051809103906000f080158015610122573d6000803e3d6000fd5b5073ffffffffffffffffffffffffffffffffffffffff1660808173ffffffffffffffffffffffffffffffffffffffff168152505080600460006101000a81548173ffffffffffffffffffffffffffffffffffffffff021916908373ffffffffffffffffffffffffffffffffffffffff1602179055508073ffffffffffffffffffffffffffffffffffffffff16600460009054906101000a900473ffffffffffffffffffffffffffffffffffffffff1673ffffffffffffffffffffffffffffffffffffffff167fe2a40a3ecdac841efaed7254cc3fd5ed86d08b13b22b4c4843a73e6052987fe960405160405180910390a3506103a4565b60008060009054906101000a900473ffffffffffffffffffffffffffffffffffffffff169050816000806101000a81548173ffffffffffffffffffffffffffffffffffffffff021916908373ffffffffffffffffffffffffffffffffffffffff1602179055508173ffffffffffffffffffffffffffffffffffffffff168173ffffffffffffffffffffffffffffffffffffffff167f8be0079c531659141344cd1fd0a4f28419497f9722a3daafe3b4186f6b6457e060405160405180910390a35050565b6113fb80611ed783390190565b600080fd5b600073ffffffffffffffffffffffffffffffffffffffff82169050919050565b600061031a826102ef565b9050919050565b61032a8161030f565b811461033557600080fd5b50565b60008151905061034781610321565b92915050565b600060208284031215610363576103626102ea565b5b600061037184828501610338565b91505092915050565b6103838161030f565b82525050565b600060208201905061039e600083018461037a565b92915050565b60805160a051611af96103de6000396000818161080a015261090801526000818161075b01528181610fb00152610fed0152611af96000f3fe6080604052600436106100fe5760003560e01c8063cc6cb19a11610095578063e9a0497411610064578063e9a0497414610318578063f11cddf614610341578063f2fde38b1461036c578063f50ddbc714610395578063fd1b6115146103d5576100fe565b8063cc6cb19a14610269578063d31306dd146102a6578063d5726662146102d1578063d8dd5f41146102ed576100fe565b8063715018a6116100d1578063715018a6146101bf5780638da5cb5b146101d65780639fb6ef2e14610201578063a734f06e1461023e576100fe565b80630aa4991d14610103578063151cfba614610140578063534b0329146101695780635b48d45614610194575b600080fd5b34801561010f57600080fd5b5061012a60048036038101906101259190611398565b610412565b60405161013791906113de565b60405180910390f35b34801561014c57600080fd5b5061016760048036038101906101629190611425565b61042a565b005b34801561017557600080fd5b5061017e610754565b60405161018b91906113de565b60405180910390f35b3480156101a057600080fd5b506101a9610759565b6040516101b691906114b1565b60405180910390f35b3480156101cb57600080fd5b506101d461077d565b005b3480156101e257600080fd5b506101eb610791565b6040516101f891906114db565b60405180910390f35b34801561020d57600080fd5b50610228600480360381019061022391906114f6565b6107ba565b60405161023591906113de565b60405180910390f35b34801561024a57600080fd5b506102536108d6565b60405161026091906114db565b60405180910390f35b34801561027557600080fd5b50610290600480360381019061028b9190611398565b6108ee565b60405161029d91906113de565b60405180910390f35b3480156102b257600080fd5b506102bb610906565b6040516102c89190611571565b60405180910390f35b6102eb60048036038101906102e691906114f6565b61092a565b005b3480156102f957600080fd5b50610302610b4c565b60405161030f91906113de565b60405180910390f35b34801561032457600080fd5b5061033f600480360381019061033a91906114f6565b610b51565b005b34801561034d57600080fd5b50610356610d81565b60405161036391906113de565b60405180910390f35b34801561037857600080fd5b50610393600480360381019061038e9190611398565b610d86565b005b3480156103a157600080fd5b506103bc60048036038101906103b79190611398565b610e0c565b6040516103cc949392919061158c565b60405180910390f35b3480156103e157600080fd5b506103fc60048036038101906103f79190611425565b610e5c565b60405161040991906115ec565b60405180910390f35b60036020528060005260406000206000915090505481565b60006023826104399190611636565b90506000600160003373ffffffffffffffffffffffffffffffffffffffff1673ffffffffffffffffffffffffffffffffffffffff1681526020019081526020016000206040518060800160405290816000820154815260200160018201548152602001600282015481526020016003820160009054906101000a900473ffffffffffffffffffffffffffffffffffffffff1673ffffffffffffffffffffffffffffffffffffffff1673ffffffffffffffffffffffffffffffffffffffff168152505090506000816000015111156105da57818160000181815161051c9190611678565b915081815250504281602001818152505080600160003373ffffffffffffffffffffffffffffffffffffffff1673ffffffffffffffffffffffffffffffffffffffff16815260200190815260200160002060008201518160000155602082015181600101556040820151816002015560608201518160030160006101000a81548173ffffffffffffffffffffffffffffffffffffffff021916908373ffffffffffffffffffffffffffffffffffffffff1602179055509050506106bf565b600060405180608001604052808481526020014281526020014281526020013373ffffffffffffffffffffffffffffffffffffffff16815250905080600160003373ffffffffffffffffffffffffffffffffffffffff1673ffffffffffffffffffffffffffffffffffffffff16815260200190815260200160002060008201518160000155602082015181600101556040820151816002015560608201518160030160006101000a81548173ffffffffffffffffffffffffffffffffffffffff021916908373ffffffffffffffffffffffffffffffffffffffff160217905550905050505b3373ffffffffffffffffffffffffffffffffffffffff167f0fe6fcb45adaaa54f7e3491f6a7964049817f1e437f33587e634a4629fbcf3a6600160003373ffffffffffffffffffffffffffffffffffffffff1673ffffffffffffffffffffffffffffffffffffffff1681526020019081526020016000206000015460405161074791906113de565b60405180910390a2505050565b602381565b7f000000000000000000000000000000000000000000000000000000000000000081565b610785611137565b61078f60006111be565b565b60008060009054906101000a900473ffffffffffffffffffffffffffffffffffffffff16905090565b600073eeeeeeeeeeeeeeeeeeeeeeeeeeeeeeeeeeeeeeee73ffffffffffffffffffffffffffffffffffffffff168373ffffffffffffffffffffffffffffffffffffffff160361089e57600061082e7f0000000000000000000000000000000000000000000000000000000000000000611282565b9050600060129050600060129050600081600a61084b91906117ec565b83600a61085891906117ec565b876108639190611636565b61086d9190611636565b90506000849050600081836108829190611866565b90506064816108919190611866565b96505050505050506108d0565b6040517f47f3469f00000000000000000000000000000000000000000000000000000000815260040160405180910390fd5b92915050565b73eeeeeeeeeeeeeeeeeeeeeeeeeeeeeeeeeeeeeeee81565b60026020528060005260406000206000915090505481565b7f000000000000000000000000000000000000000000000000000000000000000081565b6000339050600061093b84846107ba565b9050600061271060c86127106109519190611897565b8361095c9190611636565b6109669190611866565b9050600061271060c861271061097c9190611678565b846109879190611636565b6109919190611866565b905073eeeeeeeeeeeeeeeeeeeeeeeeeeeeeeeeeeeeeeee73ffffffffffffffffffffffffffffffffffffffff168673ffffffffffffffffffffffffffffffffffffffff1603610adf57813410806109e757508034115b15610a1e576040517ffb96dce700000000000000000000000000000000000000000000000000000000815260040160405180910390fd5b346002600073eeeeeeeeeeeeeeeeeeeeeeeeeeeeeeeeeeeeeeee73ffffffffffffffffffffffffffffffffffffffff1673ffffffffffffffffffffffffffffffffffffffff1681526020019081526020016000206000828254610a819190611678565b9250508190555034600360008673ffffffffffffffffffffffffffffffffffffffff1673ffffffffffffffffffffffffffffffffffffffff1681526020019081526020016000206000828254610ad79190611678565b925050819055505b8573ffffffffffffffffffffffffffffffffffffffff168473ffffffffffffffffffffffffffffffffffffffff167f4dfff917e1fbb261a082e98cc7d43029621f6a6eb05ff3fef1510d5f1eb4857c85604051610b3c91906113de565b60405180910390a3505050505050565b606481565b610b59611137565b73eeeeeeeeeeeeeeeeeeeeeeeeeeeeeeeeeeeeeeee73ffffffffffffffffffffffffffffffffffffffff168273ffffffffffffffffffffffffffffffffffffffff1603610c8a5780471015610bda576040517f6f2bff0c00000000000000000000000000000000000000000000000000000000815260040160405180910390fd5b6000610be4610791565b73ffffffffffffffffffffffffffffffffffffffff1682604051610c07906118fc565b60006040518083038185875af1925050503d8060008114610c44576040519150601f19603f3d011682016040523d82523d6000602084013e610c49565b606091505b5050905080610c84576040517f8ce0f0fa00000000000000000000000000000000000000000000000000000000815260040160405180910390fd5b50610d11565b8173ffffffffffffffffffffffffffffffffffffffff1663a9059cbb610cae610791565b836040518363ffffffff1660e01b8152600401610ccc929190611911565b6020604051808303816000875af1158015610ceb573d6000803e3d6000fd5b505050506040513d601f19601f82011682018060405250810190610d0f9190611966565b505b8173ffffffffffffffffffffffffffffffffffffffff16610d30610791565b73ffffffffffffffffffffffffffffffffffffffff167fe0b49f3bb212a1e1e3941a66b759936ca6d5535a46f3894e037e3712a6f0cecb83604051610d7591906113de565b60405180910390a35050565b60c881565b610d8e611137565b600073ffffffffffffffffffffffffffffffffffffffff168173ffffffffffffffffffffffffffffffffffffffff1603610e005760006040517f1e4fbdf7000000000000000000000000000000000000000000000000000000008152600401610df791906114db565b60405180910390fd5b610e09816111be565b50565b60016020528060005260406000206000915090508060000154908060010154908060020154908060030160009054906101000a900473ffffffffffffffffffffffffffffffffffffffff16905084565b600080600160003373ffffffffffffffffffffffffffffffffffffffff1673ffffffffffffffffffffffffffffffffffffffff1681526020019081526020016000206000015403610ed9576040517fbf67098f00000000000000000000000000000000000000000000000000000000815260040160405180910390fd5b81600160003373ffffffffffffffffffffffffffffffffffffffff1673ffffffffffffffffffffffffffffffffffffffff168152602001908152602001600020600001541015610f55576040517fbf67098f00000000000000000000000000000000000000000000000000000000815260040160405180910390fd5b81600160003373ffffffffffffffffffffffffffffffffffffffff1673ffffffffffffffffffffffffffffffffffffffff1681526020019081526020016000206000016000828254610fa79190611897565b925050819055507f000000000000000000000000000000000000000000000000000000000000000073ffffffffffffffffffffffffffffffffffffffff166340c10f19337f000000000000000000000000000000000000000000000000000000000000000073ffffffffffffffffffffffffffffffffffffffff1663313ce5676040518163ffffffff1660e01b8152600401602060405180830381865afa158015611056573d6000803e3d6000fd5b505050506040513d601f19601f8201168201806040525081019061107a91906119bf565b600a61108691906117ec565b856110919190611636565b6040518363ffffffff1660e01b81526004016110ae929190611911565b600060405180830381600087803b1580156110c857600080fd5b505af11580156110dc573d6000803e3d6000fd5b505050503373ffffffffffffffffffffffffffffffffffffffff167fc37df5d14f305277c1289e9a188a097cda6684189c95f785feb056cb77a8c9108360405161112691906113de565b60405180910390a260019050919050565b61113f61132d565b73ffffffffffffffffffffffffffffffffffffffff1661115d610791565b73ffffffffffffffffffffffffffffffffffffffff16146111bc5761118061132d565b6040517f118cdaa70000000000000000000000000000000000000000000000000000000081526004016111b391906114db565b60405180910390fd5b565b60008060009054906101000a900473ffffffffffffffffffffffffffffffffffffffff169050816000806101000a81548173ffffffffffffffffffffffffffffffffffffffff021916908373ffffffffffffffffffffffffffffffffffffffff1602179055508173ffffffffffffffffffffffffffffffffffffffff168173ffffffffffffffffffffffffffffffffffffffff167f8be0079c531659141344cd1fd0a4f28419497f9722a3daafe3b4186f6b6457e060405160405180910390a35050565b6000600460009054906101000a900473ffffffffffffffffffffffffffffffffffffffff1673ffffffffffffffffffffffffffffffffffffffff166359fd3afe6001846040518363ffffffff1660e01b81526004016112e2929190611a37565b602060405180830381865afa1580156112ff573d6000803e3d6000fd5b505050506040513d601f19601f820116820180604052508101906113239190611a96565b60001c9050919050565b600033905090565b600080fd5b600073ffffffffffffffffffffffffffffffffffffffff82169050919050565b60006113658261133a565b9050919050565b6113758161135a565b811461138057600080fd5b50565b6000813590506113928161136c565b92915050565b6000602082840312156113ae576113ad611335565b5b60006113bc84828501611383565b91505092915050565b6000819050919050565b6113d8816113c5565b82525050565b60006020820190506113f360008301846113cf565b92915050565b611402816113c5565b811461140d57600080fd5b50565b60008135905061141f816113f9565b92915050565b60006020828403121561143b5761143a611335565b5b600061144984828501611410565b91505092915050565b6000819050919050565b600061147761147261146d8461133a565b611452565b61133a565b9050919050565b60006114898261145c565b9050919050565b600061149b8261147e565b9050919050565b6114ab81611490565b82525050565b60006020820190506114c660008301846114a2565b92915050565b6114d58161135a565b82525050565b60006020820190506114f060008301846114cc565b92915050565b6000806040838503121561150d5761150c611335565b5b600061151b85828601611383565b925050602061152c85828601611410565b9150509250929050565b60007fffffffffffffffffffffffffffffffffffffffff00000000000000000000000082169050919050565b61156b81611536565b82525050565b60006020820190506115866000830184611562565b92915050565b60006080820190506115a160008301876113cf565b6115ae60208301866113cf565b6115bb60408301856113cf565b6115c860608301846114cc565b95945050505050565b60008115159050919050565b6115e6816115d1565b82525050565b600060208201905061160160008301846115dd565b92915050565b7f4e487b7100000000000000000000000000000000000000000000000000000000600052601160045260246000fd5b6000611641826113c5565b915061164c836113c5565b925082820261165a816113c5565b9150828204841483151761167157611670611607565b5b5092915050565b6000611683826113c5565b915061168e836113c5565b92508282019050808211156116a6576116a5611607565b5b92915050565b60008160011c9050919050565b6000808291508390505b6001851115611703578086048111156116df576116de611607565b5b60018516156116ee5780820291505b80810290506116fc856116ac565b94506116c3565b94509492505050565b60008261171c57600190506117d8565b8161172a57600090506117d8565b8160018114611740576002811461174a57611779565b60019150506117d8565b60ff84111561175c5761175b611607565b5b8360020a91508482111561177357611772611607565b5b506117d8565b5060208310610133831016604e8410600b84101617156117ae5782820a9050838111156117a9576117a8611607565b5b6117d8565b6117bb84848460016116b9565b925090508184048111156117d2576117d1611607565b5b81810290505b9392505050565b600060ff82169050919050565b60006117f7826113c5565b9150611802836117df565b925061182f7fffffffffffffffffffffffffffffffffffffffffffffffffffffffffffffffff848461170c565b905092915050565b7f4e487b7100000000000000000000000000000000000000000000000000000000600052601260045260246000fd5b6000611871826113c5565b915061187c836113c5565b92508261188c5761188b611837565b5b828204905092915050565b60006118a2826113c5565b91506118ad836113c5565b92508282039050818111156118c5576118c4611607565b5b92915050565b600081905092915050565b50565b60006118e66000836118cb565b91506118f1826118d6565b600082019050919050565b6000611907826118d9565b9150819050919050565b600060408201905061192660008301856114cc565b61193360208301846113cf565b9392505050565b611943816115d1565b811461194e57600080fd5b50565b6000815190506119608161193a565b92915050565b60006020828403121561197c5761197b611335565b5b600061198a84828501611951565b91505092915050565b61199c816117df565b81146119a757600080fd5b50565b6000815190506119b981611993565b92915050565b6000602082840312156119d5576119d4611335565b5b60006119e3848285016119aa565b91505092915050565b6000819050919050565b600063ffffffff82169050919050565b6000611a21611a1c611a17846119ec565b611452565b6119f6565b9050919050565b611a3181611a06565b82525050565b6000604082019050611a4c6000830185611a28565b611a596020830184611562565b9392505050565b6000819050919050565b611a7381611a60565b8114611a7e57600080fd5b50565b600081519050611a9081611a6a565b92915050565b600060208284031215611aac57611aab611335565b5b6000611aba84828501611a81565b9150509291505056fea26469706673582212202c5f0c1d36c2a5a0ed4b354618dd40d37c30b56e818a5b9ed13c0113b91298df64736f6c634300081c003360a060405234801561001057600080fd5b506040518060400160405280600c81526020017f45636f4e6f7661546f6b656e00000000000000000000000000000000000000008152506040518060400160405280600381526020017f454e540000000000000000000000000000000000000000000000000000000000815250816003908161008c9190610328565b50806004908161009c9190610328565b5050503373ffffffffffffffffffffffffffffffffffffffff1660808173ffffffffffffffffffffffffffffffffffffffff16815250506103fa565b600081519050919050565b7f4e487b7100000000000000000000000000000000000000000000000000000000600052604160045260246000fd5b7f4e487b7100000000000000000000000000000000000000000000000000000000600052602260045260246000fd5b6000600282049050600182168061015957607f821691505b60208210810361016c5761016b610112565b5b50919050565b60008190508160005260206000209050919050565b60006020601f8301049050919050565b600082821b905092915050565b6000600883026101d47fffffffffffffffffffffffffffffffffffffffffffffffffffffffffffffffff82610197565b6101de8683610197565b95508019841693508086168417925050509392505050565b6000819050919050565b6000819050919050565b600061022561022061021b846101f6565b610200565b6101f6565b9050919050565b6000819050919050565b61023f8361020a565b61025361024b8261022c565b8484546101a4565b825550505050565b600090565b61026861025b565b610273818484610236565b505050565b5b818110156102975761028c600082610260565b600181019050610279565b5050565b601f8211156102dc576102ad81610172565b6102b684610187565b810160208510156102c5578190505b6102d96102d185610187565b830182610278565b50505b505050565b600082821c905092915050565b60006102ff600019846008026102e1565b1980831691505092915050565b600061031883836102ee565b9150826002028217905092915050565b610331826100d8565b67ffffffffffffffff81111561034a576103496100e3565b5b6103548254610141565b61035f82828561029b565b600060209050601f8311600181146103925760008415610380578287015190505b61038a858261030c565b8655506103f2565b601f1984166103a086610172565b60005b828110156103c8578489015182556001820191506020850194506020810190506103a3565b868310156103e557848901516103e1601f8916826102ee565b8355505b6001600288020188555050505b505050505050565b608051610fdf61041c60003960008181610307015261036d0152610fdf6000f3fe608060405234801561001057600080fd5b50600436106100a95760003560e01c8063313ce56711610071578063313ce5671461016857806340c10f191461018657806370a08231146101a257806395d89b41146101d2578063a9059cbb146101f0578063dd62ed3e14610220576100a9565b806306fdde03146100ae578063095ea7b3146100cc578063117803e3146100fc57806318160ddd1461011a57806323b872dd14610138575b600080fd5b6100b6610250565b6040516100c39190610c33565b60405180910390f35b6100e660048036038101906100e19190610cee565b6102e2565b6040516100f39190610d49565b60405180910390f35b610104610305565b6040516101119190610d73565b60405180910390f35b610122610329565b60405161012f9190610d9d565b60405180910390f35b610152600480360381019061014d9190610db8565b610333565b60405161015f9190610d49565b60405180910390f35b610170610362565b60405161017d9190610e27565b60405180910390f35b6101a0600480360381019061019b9190610cee565b61036b565b005b6101bc60048036038101906101b79190610e42565b6103fe565b6040516101c99190610d9d565b60405180910390f35b6101da610446565b6040516101e79190610c33565b60405180910390f35b61020a60048036038101906102059190610cee565b6104d8565b6040516102179190610d49565b60405180910390f35b61023a60048036038101906102359190610e6f565b6104fb565b6040516102479190610d9d565b60405180910390f35b60606003805461025f90610ede565b80601f016020809104026020016040519081016040528092919081815260200182805461028b90610ede565b80156102d85780601f106102ad576101008083540402835291602001916102d8565b820191906000526020600020905b8154815290600101906020018083116102bb57829003601f168201915b5050505050905090565b6000806102ed610582565b90506102fa81858561058a565b600191505092915050565b7f000000000000000000000000000000000000000000000000000000000000000081565b6000600254905090565b60008061033e610582565b905061034b85828561059c565b610356858585610631565b60019150509392505050565b60006012905090565b7f000000000000000000000000000000000000000000000000000000000000000073ffffffffffffffffffffffffffffffffffffffff163373ffffffffffffffffffffffffffffffffffffffff16146103f0576040517f3977181a00000000000000000000000000000000000000000000000000000000815260040160405180910390fd5b6103fa8282610725565b5050565b60008060008373ffffffffffffffffffffffffffffffffffffffff1673ffffffffffffffffffffffffffffffffffffffff168152602001908152602001600020549050919050565b60606004805461045590610ede565b80601f016020809104026020016040519081016040528092919081815260200182805461048190610ede565b80156104ce5780601f106104a3576101008083540402835291602001916104ce565b820191906000526020600020905b8154815290600101906020018083116104b157829003601f168201915b5050505050905090565b6000806104e3610582565b90506104f0818585610631565b600191505092915050565b6000600160008473ffffffffffffffffffffffffffffffffffffffff1673ffffffffffffffffffffffffffffffffffffffff16815260200190815260200160002060008373ffffffffffffffffffffffffffffffffffffffff1673ffffffffffffffffffffffffffffffffffffffff16815260200190815260200160002054905092915050565b600033905090565b61059783838360016107a7565b505050565b60006105a884846104fb565b90507fffffffffffffffffffffffffffffffffffffffffffffffffffffffffffffffff81101561062b578181101561061b578281836040517ffb8f41b200000000000000000000000000000000000000000000000000000000815260040161061293929190610f0f565b60405180910390fd5b61062a848484840360006107a7565b5b50505050565b600073ffffffffffffffffffffffffffffffffffffffff168373ffffffffffffffffffffffffffffffffffffffff16036106a35760006040517f96c6fd1e00000000000000000000000000000000000000000000000000000000815260040161069a9190610d73565b60405180910390fd5b600073ffffffffffffffffffffffffffffffffffffffff168273ffffffffffffffffffffffffffffffffffffffff16036107155760006040517fec442f0500000000000000000000000000000000000000000000000000000000815260040161070c9190610d73565b60405180910390fd5b61072083838361097e565b505050565b600073ffffffffffffffffffffffffffffffffffffffff168273ffffffffffffffffffffffffffffffffffffffff16036107975760006040517fec442f0500000000000000000000000000000000000000000000000000000000815260040161078e9190610d73565b60405180910390fd5b6107a36000838361097e565b5050565b600073ffffffffffffffffffffffffffffffffffffffff168473ffffffffffffffffffffffffffffffffffffffff16036108195760006040517fe602df050000000000000000000000000000000000000000000000000000000081526004016108109190610d73565b60405180910390fd5b600073ffffffffffffffffffffffffffffffffffffffff168373ffffffffffffffffffffffffffffffffffffffff160361088b5760006040517f94280d620000000000000000000000000000000000000000000000000000000081526004016108829190610d73565b60405180910390fd5b81600160008673ffffffffffffffffffffffffffffffffffffffff1673ffffffffffffffffffffffffffffffffffffffff16815260200190815260200160002060008573ffffffffffffffffffffffffffffffffffffffff1673ffffffffffffffffffffffffffffffffffffffff168152602001908152602001600020819055508015610978578273ffffffffffffffffffffffffffffffffffffffff168473ffffffffffffffffffffffffffffffffffffffff167f8c5be1e5ebec7d5bd14f71427d1e84f3dd0314c0f7b2291e5b200ac8c7c3b9258460405161096f9190610d9d565b60405180910390a35b50505050565b600073ffffffffffffffffffffffffffffffffffffffff168373ffffffffffffffffffffffffffffffffffffffff16036109d05780600260008282546109c49190610f75565b92505081905550610aa3565b60008060008573ffffffffffffffffffffffffffffffffffffffff1673ffffffffffffffffffffffffffffffffffffffff16815260200190815260200160002054905081811015610a5c578381836040517fe450d38c000000000000000000000000000000000000000000000000000000008152600401610a5393929190610f0f565b60405180910390fd5b8181036000808673ffffffffffffffffffffffffffffffffffffffff1673ffffffffffffffffffffffffffffffffffffffff16815260200190815260200160002081905550505b600073ffffffffffffffffffffffffffffffffffffffff168273ffffffffffffffffffffffffffffffffffffffff1603610aec5780600260008282540392505081905550610b39565b806000808473ffffffffffffffffffffffffffffffffffffffff1673ffffffffffffffffffffffffffffffffffffffff168152602001908152602001600020600082825401925050819055505b8173ffffffffffffffffffffffffffffffffffffffff168373ffffffffffffffffffffffffffffffffffffffff167fddf252ad1be2c89b69c2b068fc378daa952ba7f163c4a11628f55a4df523b3ef83604051610b969190610d9d565b60405180910390a3505050565b600081519050919050565b600082825260208201905092915050565b60005b83811015610bdd578082015181840152602081019050610bc2565b60008484015250505050565b6000601f19601f8301169050919050565b6000610c0582610ba3565b610c0f8185610bae565b9350610c1f818560208601610bbf565b610c2881610be9565b840191505092915050565b60006020820190508181036000830152610c4d8184610bfa565b905092915050565b600080fd5b600073ffffffffffffffffffffffffffffffffffffffff82169050919050565b6000610c8582610c5a565b9050919050565b610c9581610c7a565b8114610ca057600080fd5b50565b600081359050610cb281610c8c565b92915050565b6000819050919050565b610ccb81610cb8565b8114610cd657600080fd5b50565b600081359050610ce881610cc2565b92915050565b60008060408385031215610d0557610d04610c55565b5b6000610d1385828601610ca3565b9250506020610d2485828601610cd9565b9150509250929050565b60008115159050919050565b610d4381610d2e565b82525050565b6000602082019050610d5e6000830184610d3a565b92915050565b610d6d81610c7a565b82525050565b6000602082019050610d886000830184610d64565b92915050565b610d9781610cb8565b82525050565b6000602082019050610db26000830184610d8e565b92915050565b600080600060608486031215610dd157610dd0610c55565b5b6000610ddf86828701610ca3565b9350506020610df086828701610ca3565b9250506040610e0186828701610cd9565b9150509250925092565b600060ff82169050919050565b610e2181610e0b565b82525050565b6000602082019050610e3c6000830184610e18565b92915050565b600060208284031215610e5857610e57610c55565b5b6000610e6684828501610ca3565b91505092915050565b60008060408385031215610e8657610e85610c55565b5b6000610e9485828601610ca3565b9250506020610ea585828601610ca3565b9150509250929050565b7f4e487b7100000000000000000000000000000000000000000000000000000000600052602260045260246000fd5b60006002820490506001821680610ef657607f821691505b602082108103610f0957610f08610eaf565b5b50919050565b6000606082019050610f246000830186610d64565b610f316020830185610d8e565b610f3e6040830184610d8e565b949350505050565b7f4e487b7100000000000000000000000000000000000000000000000000000000600052601160045260246000fd5b6000610f8082610cb8565b9150610f8b83610cb8565b9250828201905080821115610fa357610fa2610f46565b5b9291505056fea2646970667358221220667db4779d516e57c885af5fe6c4a6717b45d02e0f8bd4d72641413a0896f7a564736f6c634300081c0033",
  "linkReferences": {},
  "deployedLinkReferences": {}
}