{
  "_format": "hh-sol-artifact-1",
  "contractName": "EcoNovaManager",
  "sourceName": "contracts/EcoNovaManager.sol",
  "abi": [
    {
      "inputs": [
        {
          "internalType": "address",
          "name": "orocleAddress",
          "type": "address"
        },
        {
          "internalType": "address",
          "name": "_botAddress",
          "type": "address"
        }
      ],
      "stateMutability": "nonpayable",
      "type": "constructor"
    },
    {
      "inputs": [],
      "name": "EcoNovaManager__AddressCannotBeZero",
      "type": "error"
    },
    {
      "inputs": [],
      "name": "EcoNovaManager__ConversionNotAvailable",
      "type": "error"
    },
    {
      "inputs": [],
      "name": "EcoNovaManager__HashAlreadyUsed",
      "type": "error"
    },
    {
      "inputs": [],
      "name": "EcoNovaManager__IncorrectETHAmount",
      "type": "error"
    },
    {
      "inputs": [],
      "name": "EcoNovaManager__InsufficientBalance",
      "type": "error"
    },
    {
      "inputs": [],
      "name": "EcoNovaManager__InsufficientPoints",
      "type": "error"
    },
    {
      "inputs": [],
      "name": "EcoNovaManager__InvalidSignature",
      "type": "error"
    },
    {
      "inputs": [],
      "name": "EcoNovaManager__SendingFailed",
      "type": "error"
    },
    {
      "inputs": [],
      "name": "EcoNovaManager__TweetIdAlreadyRecorderForUser",
      "type": "error"
    },
    {
      "inputs": [],
      "name": "EcoNovaManager__Unauthorized",
      "type": "error"
    },
    {
      "inputs": [
        {
          "internalType": "address",
          "name": "owner",
          "type": "address"
        }
      ],
      "name": "OwnableInvalidOwner",
      "type": "error"
    },
    {
      "inputs": [
        {
          "internalType": "address",
          "name": "account",
          "type": "address"
        }
      ],
      "name": "OwnableUnauthorizedAccount",
      "type": "error"
    },
    {
      "anonymous": false,
      "inputs": [
        {
          "indexed": true,
          "internalType": "address",
          "name": "oldBotAddress",
          "type": "address"
        },
        {
          "indexed": true,
          "internalType": "address",
          "name": "newBotAddress",
          "type": "address"
        }
      ],
      "name": "BotAddressUpdated",
      "type": "event"
    },
    {
      "anonymous": false,
      "inputs": [
        {
          "indexed": true,
          "internalType": "address",
          "name": "user",
          "type": "address"
        },
        {
          "indexed": true,
          "internalType": "address",
          "name": "token",
          "type": "address"
        },
        {
          "indexed": false,
          "internalType": "uint256",
          "name": "amount",
          "type": "uint256"
        }
      ],
      "name": "Donated",
      "type": "event"
    },
    {
      "anonymous": false,
      "inputs": [
        {
          "indexed": true,
          "internalType": "address",
          "name": "user",
          "type": "address"
        },
        {
          "indexed": true,
          "internalType": "address",
          "name": "token",
          "type": "address"
        },
        {
          "indexed": false,
          "internalType": "uint256",
          "name": "amount",
          "type": "uint256"
        }
      ],
      "name": "DonationWithdrawed",
      "type": "event"
    },
    {
      "anonymous": false,
      "inputs": [
        {
          "indexed": true,
          "internalType": "address",
          "name": "previousOwner",
          "type": "address"
        },
        {
          "indexed": true,
          "internalType": "address",
          "name": "newOwner",
          "type": "address"
        }
      ],
      "name": "OwnershipTransferred",
      "type": "event"
    },
    {
      "anonymous": false,
      "inputs": [
        {
          "indexed": true,
          "internalType": "address",
          "name": "user",
          "type": "address"
        },
        {
          "indexed": false,
          "internalType": "uint256",
          "name": "points",
          "type": "uint256"
        }
      ],
      "name": "PointsAdded",
      "type": "event"
    },
    {
      "anonymous": false,
      "inputs": [
        {
          "indexed": true,
          "internalType": "address",
          "name": "user",
          "type": "address"
        },
        {
          "indexed": false,
          "internalType": "uint256",
          "name": "points",
          "type": "uint256"
        }
      ],
      "name": "PointsRedeemed",
      "type": "event"
    },
    {
      "anonymous": false,
      "inputs": [
        {
          "indexed": true,
          "internalType": "address",
          "name": "oldOrocle",
          "type": "address"
        },
        {
          "indexed": true,
          "internalType": "address",
          "name": "newOrocle",
          "type": "address"
        }
      ],
      "name": "SetOrocle",
      "type": "event"
    },
    {
      "anonymous": false,
      "inputs": [
        {
          "indexed": true,
          "internalType": "address",
          "name": "token",
          "type": "address"
        },
        {
          "indexed": false,
          "internalType": "string",
          "name": "name",
          "type": "string"
        },
        {
          "indexed": false,
          "internalType": "string",
          "name": "symbol",
          "type": "string"
        },
        {
          "indexed": false,
          "internalType": "uint256",
          "name": "initialSupply",
          "type": "uint256"
        }
      ],
      "name": "TokenCreated",
      "type": "event"
    },
    {
      "inputs": [],
      "name": "DONATION_POINT_PER_USD",
      "outputs": [
        {
          "internalType": "uint256",
          "name": "",
          "type": "uint256"
        }
      ],
      "stateMutability": "view",
      "type": "function"
    },
    {
      "inputs": [],
      "name": "ETH_ADDRESS",
      "outputs": [
        {
          "internalType": "address",
          "name": "",
          "type": "address"
        }
      ],
      "stateMutability": "view",
      "type": "function"
    },
    {
      "inputs": [],
      "name": "FIAT_DECIMALS",
      "outputs": [
        {
          "internalType": "uint256",
          "name": "",
          "type": "uint256"
        }
      ],
      "stateMutability": "view",
      "type": "function"
    },
    {
      "inputs": [],
      "name": "POINT_BASIS",
      "outputs": [
        {
          "internalType": "uint256",
          "name": "",
          "type": "uint256"
        }
      ],
      "stateMutability": "view",
      "type": "function"
    },
    {
      "inputs": [],
      "name": "SLIPPAGE_TOLERANCE_BPS",
      "outputs": [
        {
          "internalType": "uint256",
          "name": "",
          "type": "uint256"
        }
      ],
      "stateMutability": "view",
      "type": "function"
    },
    {
      "inputs": [
        {
          "internalType": "uint256",
          "name": "weightInGrams",
          "type": "uint256"
        }
      ],
      "name": "addPointFromWeight",
      "outputs": [],
      "stateMutability": "nonpayable",
      "type": "function"
    },
    {
      "inputs": [
        {
          "internalType": "uint256",
          "name": "pointToAdd",
          "type": "uint256"
        },
        {
          "internalType": "uint256",
          "name": "userTwitterId",
          "type": "uint256"
        },
        {
          "internalType": "uint256",
          "name": "tweetId",
          "type": "uint256"
        },
        {
          "internalType": "bytes",
          "name": "signature",
          "type": "bytes"
        }
      ],
      "name": "addPointsFromTwitterBot",
      "outputs": [],
      "stateMutability": "nonpayable",
      "type": "function"
    },
    {
      "inputs": [],
      "name": "botAddress",
      "outputs": [
        {
          "internalType": "address",
          "name": "",
          "type": "address"
        }
      ],
      "stateMutability": "view",
      "type": "function"
    },
    {
      "inputs": [
        {
          "internalType": "string",
          "name": "name",
          "type": "string"
        },
        {
          "internalType": "string",
          "name": "symbol",
          "type": "string"
        },
        {
          "internalType": "uint256",
          "name": "initialSupply",
          "type": "uint256"
        }
      ],
      "name": "deployToken",
      "outputs": [],
      "stateMutability": "nonpayable",
      "type": "function"
    },
    {
      "inputs": [
        {
          "internalType": "address",
          "name": "token",
          "type": "address"
        },
        {
          "internalType": "uint256",
          "name": "amountInUsd",
          "type": "uint256"
        }
      ],
      "name": "donateToFoundation",
      "outputs": [],
      "stateMutability": "payable",
      "type": "function"
    },
    {
      "inputs": [
        {
          "internalType": "address",
          "name": "",
          "type": "address"
        }
      ],
      "name": "donations",
      "outputs": [
        {
          "internalType": "uint256",
          "name": "",
          "type": "uint256"
        }
      ],
      "stateMutability": "view",
      "type": "function"
    },
    {
      "inputs": [
        {
          "internalType": "address",
          "name": "token",
          "type": "address"
        },
        {
          "internalType": "uint256",
          "name": "amountInUsd",
          "type": "uint256"
        }
      ],
      "name": "getUsdToTokenPrice",
      "outputs": [
        {
          "internalType": "uint256",
          "name": "",
          "type": "uint256"
        }
      ],
      "stateMutability": "view",
      "type": "function"
    },
    {
      "inputs": [],
      "name": "i_ecoNovaToken",
      "outputs": [
        {
          "internalType": "contract EcoNovaToken",
          "name": "",
          "type": "address"
        }
      ],
      "stateMutability": "view",
      "type": "function"
    },
    {
      "inputs": [],
      "name": "i_ethIdentifier",
      "outputs": [
        {
          "internalType": "bytes20",
          "name": "",
          "type": "bytes20"
        }
      ],
      "stateMutability": "view",
      "type": "function"
    },
    {
      "inputs": [],
      "name": "owner",
      "outputs": [
        {
          "internalType": "address",
          "name": "",
          "type": "address"
        }
      ],
      "stateMutability": "view",
      "type": "function"
    },
    {
      "inputs": [
        {
          "internalType": "uint256",
          "name": "point",
          "type": "uint256"
        }
      ],
      "name": "redeemCode",
      "outputs": [
        {
          "internalType": "bool",
          "name": "success",
          "type": "bool"
        }
      ],
      "stateMutability": "nonpayable",
      "type": "function"
    },
    {
      "inputs": [],
      "name": "renounceOwnership",
      "outputs": [],
      "stateMutability": "nonpayable",
      "type": "function"
    },
    {
      "inputs": [
        {
          "internalType": "uint256",
          "name": "pointToAdd",
          "type": "uint256"
        },
        {
          "internalType": "uint256",
          "name": "userTwitterId",
          "type": "uint256"
        },
        {
          "internalType": "uint256",
          "name": "tweetId",
          "type": "uint256"
        },
        {
          "internalType": "bytes",
          "name": "",
          "type": "bytes"
        }
      ],
      "name": "testHash",
      "outputs": [
        {
          "internalType": "bytes32",
          "name": "message",
          "type": "bytes32"
        }
      ],
      "stateMutability": "view",
      "type": "function"
    },
    {
      "inputs": [
        {
          "internalType": "address",
          "name": "newOwner",
          "type": "address"
        }
      ],
      "name": "transferOwnership",
      "outputs": [],
      "stateMutability": "nonpayable",
      "type": "function"
    },
    {
      "inputs": [
        {
          "internalType": "address",
          "name": "_newBotAddress",
          "type": "address"
        }
      ],
      "name": "updateBotAddress",
      "outputs": [],
      "stateMutability": "nonpayable",
      "type": "function"
    },
    {
      "inputs": [
        {
          "internalType": "bytes32",
          "name": "",
          "type": "bytes32"
        }
      ],
      "name": "usedHashes",
      "outputs": [
        {
          "internalType": "bool",
          "name": "",
          "type": "bool"
        }
      ],
      "stateMutability": "view",
      "type": "function"
    },
    {
      "inputs": [
        {
          "internalType": "address",
          "name": "",
          "type": "address"
        }
      ],
      "name": "userDonations",
      "outputs": [
        {
          "internalType": "uint256",
          "name": "",
          "type": "uint256"
        }
      ],
      "stateMutability": "view",
      "type": "function"
    },
    {
      "inputs": [
        {
          "internalType": "address",
          "name": "",
          "type": "address"
        }
      ],
      "name": "userPoints",
      "outputs": [
        {
          "internalType": "uint256",
          "name": "points",
          "type": "uint256"
        },
        {
          "internalType": "uint256",
          "name": "updatedTimeStamp",
          "type": "uint256"
        },
        {
          "internalType": "uint256",
          "name": "createdTimeStamp",
          "type": "uint256"
        },
        {
          "internalType": "address",
          "name": "user",
          "type": "address"
        }
      ],
      "stateMutability": "view",
      "type": "function"
    },
    {
      "inputs": [
        {
          "internalType": "address",
          "name": "token",
          "type": "address"
        },
        {
          "internalType": "uint256",
          "name": "amount",
          "type": "uint256"
        }
      ],
      "name": "withdrawDonation",
      "outputs": [],
      "stateMutability": "nonpayable",
      "type": "function"
    }
  ],
  "bytecode": "0x60c06040527f45544800000000000000000000000000000000000000000000000000000000006bffffffffffffffffffffffff191660a0906bffffffffffffffffffffffff191681525034801561005557600080fd5b506040516165383803806165388339818101604052810190610077919061038f565b33600073ffffffffffffffffffffffffffffffffffffffff168173ffffffffffffffffffffffffffffffffffffffff16036100ea5760006040517f1e4fbdf70000000000000000000000000000000000000000000000000000000081526004016100e191906103de565b60405180910390fd5b6100f98161025b60201b60201c565b506040516101069061031f565b604051809103906000f080158015610122573d6000803e3d6000fd5b5073ffffffffffffffffffffffffffffffffffffffff1660808173ffffffffffffffffffffffffffffffffffffffff168152505081600760006101000a81548173ffffffffffffffffffffffffffffffffffffffff021916908373ffffffffffffffffffffffffffffffffffffffff16021790555080600660006101000a81548173ffffffffffffffffffffffffffffffffffffffff021916908373ffffffffffffffffffffffffffffffffffffffff1602179055508173ffffffffffffffffffffffffffffffffffffffff16600760009054906101000a900473ffffffffffffffffffffffffffffffffffffffff1673ffffffffffffffffffffffffffffffffffffffff167fe2a40a3ecdac841efaed7254cc3fd5ed86d08b13b22b4c4843a73e6052987fe960405160405180910390a350506103f9565b60008060009054906101000a900473ffffffffffffffffffffffffffffffffffffffff169050816000806101000a81548173ffffffffffffffffffffffffffffffffffffffff021916908373ffffffffffffffffffffffffffffffffffffffff1602179055508173ffffffffffffffffffffffffffffffffffffffff168173ffffffffffffffffffffffffffffffffffffffff167f8be0079c531659141344cd1fd0a4f28419497f9722a3daafe3b4186f6b6457e060405160405180910390a35050565b61148a806150ae83390190565b600080fd5b600073ffffffffffffffffffffffffffffffffffffffff82169050919050565b600061035c82610331565b9050919050565b61036c81610351565b811461037757600080fd5b50565b60008151905061038981610363565b92915050565b600080604083850312156103a6576103a561032c565b5b60006103b48582860161037a565b92505060206103c58582860161037a565b9150509250929050565b6103d881610351565b82525050565b60006020820190506103f360008301846103cf565b92915050565b60805160a051614c7b61043360003960008181610aa80152610d0b0152600081816109f901528181611a880152611ac50152614c7b6000f3fe60806040526004361061014b5760003560e01c8063ae0d1b81116100b6578063db0ce4471161006f578063db0ce44714610487578063e9a04974146104b0578063f11cddf6146104d9578063f2fde38b14610504578063f50ddbc71461052d578063fd1b61151461056d5761014b565b8063ae0d1b8114610372578063aef18bf71461039b578063cc6cb19a146103d8578063d31306dd14610415578063d572666214610440578063d8dd5f411461045c5761014b565b80635b48d456116101085780635b48d45614610272578063715018a61461029d5780638da5cb5b146102b45780639fb6ef2e146102df578063a734f06e1461031c578063add0afd6146103475761014b565b80630aa4991d14610150578063151cfba61461018d5780633a93babb146101b65780634523471c146101df5780634bf4f4231461021c578063534b032914610247575b600080fd5b34801561015c57600080fd5b506101776004803603810190610172919061204a565b6105aa565b6040516101849190612090565b60405180910390f35b34801561019957600080fd5b506101b460048036038101906101af91906120d7565b6105c2565b005b3480156101c257600080fd5b506101dd60048036038101906101d8919061224a565b6108ec565b005b3480156101eb57600080fd5b5061020660048036038101906102019190612376565b610980565b6040516102139190612412565b60405180910390f35b34801561022857600080fd5b506102316109cc565b60405161023e919061243c565b60405180910390f35b34801561025357600080fd5b5061025c6109f2565b6040516102699190612090565b60405180910390f35b34801561027e57600080fd5b506102876109f7565b60405161029491906124b6565b60405180910390f35b3480156102a957600080fd5b506102b2610a1b565b005b3480156102c057600080fd5b506102c9610a2f565b6040516102d6919061243c565b60405180910390f35b3480156102eb57600080fd5b50610306600480360381019061030191906124d1565b610a58565b6040516103139190612090565b60405180910390f35b34801561032857600080fd5b50610331610b74565b60405161033e919061243c565b60405180910390f35b34801561035357600080fd5b5061035c610b8c565b6040516103699190612090565b60405180910390f35b34801561037e57600080fd5b506103996004803603810190610394919061204a565b610b9d565b005b3480156103a757600080fd5b506103c260048036038101906103bd919061253d565b610cd1565b6040516103cf9190612585565b60405180910390f35b3480156103e457600080fd5b506103ff60048036038101906103fa919061204a565b610cf1565b60405161040c9190612090565b60405180910390f35b34801561042157600080fd5b5061042a610d09565b60405161043791906125db565b60405180910390f35b61045a600480360381019061045591906124d1565b610d2d565b005b34801561046857600080fd5b50610471611162565b60405161047e9190612090565b60405180910390f35b34801561049357600080fd5b506104ae60048036038101906104a99190612376565b611167565b005b3480156104bc57600080fd5b506104d760048036038101906104d291906124d1565b611629565b005b3480156104e557600080fd5b506104ee611859565b6040516104fb9190612090565b60405180910390f35b34801561051057600080fd5b5061052b6004803603810190610526919061204a565b61185e565b005b34801561053957600080fd5b50610554600480360381019061054f919061204a565b6118e4565b60405161056494939291906125f6565b60405180910390f35b34801561057957600080fd5b50610594600480360381019061058f91906120d7565b611934565b6040516105a19190612585565b60405180910390f35b60036020528060005260406000206000915090505481565b60006023826105d1919061266a565b90506000600160003373ffffffffffffffffffffffffffffffffffffffff1673ffffffffffffffffffffffffffffffffffffffff1681526020019081526020016000206040518060800160405290816000820154815260200160018201548152602001600282015481526020016003820160009054906101000a900473ffffffffffffffffffffffffffffffffffffffff1673ffffffffffffffffffffffffffffffffffffffff1673ffffffffffffffffffffffffffffffffffffffff168152505090506000816000015111156107725781816000018181516106b491906126ac565b915081815250504281602001818152505080600160003373ffffffffffffffffffffffffffffffffffffffff1673ffffffffffffffffffffffffffffffffffffffff16815260200190815260200160002060008201518160000155602082015181600101556040820151816002015560608201518160030160006101000a81548173ffffffffffffffffffffffffffffffffffffffff021916908373ffffffffffffffffffffffffffffffffffffffff160217905550905050610857565b600060405180608001604052808481526020014281526020014281526020013373ffffffffffffffffffffffffffffffffffffffff16815250905080600160003373ffffffffffffffffffffffffffffffffffffffff1673ffffffffffffffffffffffffffffffffffffffff16815260200190815260200160002060008201518160000155602082015181600101556040820151816002015560608201518160030160006101000a81548173ffffffffffffffffffffffffffffffffffffffff021916908373ffffffffffffffffffffffffffffffffffffffff160217905550905050505b3373ffffffffffffffffffffffffffffffffffffffff167f0fe6fcb45adaaa54f7e3491f6a7964049817f1e437f33587e634a4629fbcf3a6600160003373ffffffffffffffffffffffffffffffffffffffff1673ffffffffffffffffffffffffffffffffffffffff168152602001908152602001600020600001546040516108df9190612090565b60405180910390a2505050565b60008383836040516108fd90611fcb565b6109099392919061275f565b604051809103906000f080158015610925573d6000803e3d6000fd5b5090508073ffffffffffffffffffffffffffffffffffffffff167f75d1eb2d61d7e210835bc16e78ac4d0e4f905c108a81852a6b68c4d46b4f40f38585856040516109729392919061275f565b60405180910390a250505050565b6000803386868660405160200161099a949392919061280d565b60405160208183030381529060405280519060200120905060006109bd82611c9f565b90508092505050949350505050565b600660009054906101000a900473ffffffffffffffffffffffffffffffffffffffff1681565b602381565b7f000000000000000000000000000000000000000000000000000000000000000081565b610a23611ccf565b610a2d6000611d56565b565b60008060009054906101000a900473ffffffffffffffffffffffffffffffffffffffff16905090565b600073eeeeeeeeeeeeeeeeeeeeeeeeeeeeeeeeeeeeeeee73ffffffffffffffffffffffffffffffffffffffff168373ffffffffffffffffffffffffffffffffffffffff1603610b3c576000610acc7f0000000000000000000000000000000000000000000000000000000000000000611e1a565b9050600060129050600060129050600081600a610ae9919061299b565b83600a610af6919061299b565b87610b01919061266a565b610b0b919061266a565b9050600084905060008183610b209190612a15565b9050606481610b2f9190612a15565b9650505050505050610b6e565b6040517f47f3469f00000000000000000000000000000000000000000000000000000000815260040160405180910390fd5b92915050565b73eeeeeeeeeeeeeeeeeeeeeeeeeeeeeeeeeeeeeeee81565b60026023610b9a919061266a565b81565b610ba5611ccf565b600073ffffffffffffffffffffffffffffffffffffffff168173ffffffffffffffffffffffffffffffffffffffff1603610c0b576040517fe012988a00000000000000000000000000000000000000000000000000000000815260040160405180910390fd5b6000600660009054906101000a900473ffffffffffffffffffffffffffffffffffffffff16905081600660006101000a81548173ffffffffffffffffffffffffffffffffffffffff021916908373ffffffffffffffffffffffffffffffffffffffff1602179055508173ffffffffffffffffffffffffffffffffffffffff168173ffffffffffffffffffffffffffffffffffffffff167f8f92dafbdfc7fad31b0a85cc9cc0f7121bd9ec12a37640055a866d43bb0e981a60405160405180910390a35050565b60046020528060005260406000206000915054906101000a900460ff1681565b60026020528060005260406000206000915090505481565b7f000000000000000000000000000000000000000000000000000000000000000081565b60003390506000610d3e8484610a58565b9050600061271060c8612710610d549190612a46565b83610d5f919061266a565b610d699190612a15565b9050600061271060c8612710610d7f91906126ac565b84610d8a919061266a565b610d949190612a15565b905073eeeeeeeeeeeeeeeeeeeeeeeeeeeeeeeeeeeeeeee73ffffffffffffffffffffffffffffffffffffffff168673ffffffffffffffffffffffffffffffffffffffff1603610ee25781341080610dea57508034115b15610e21576040517ffb96dce700000000000000000000000000000000000000000000000000000000815260040160405180910390fd5b346002600073eeeeeeeeeeeeeeeeeeeeeeeeeeeeeeeeeeeeeeee73ffffffffffffffffffffffffffffffffffffffff1673ffffffffffffffffffffffffffffffffffffffff1681526020019081526020016000206000828254610e8491906126ac565b9250508190555034600360008673ffffffffffffffffffffffffffffffffffffffff1673ffffffffffffffffffffffffffffffffffffffff1681526020019081526020016000206000828254610eda91906126ac565b925050819055505b6000606460026023610ef4919061266a565b87610eff919061266a565b610f099190612a15565b90506000600160008773ffffffffffffffffffffffffffffffffffffffff1673ffffffffffffffffffffffffffffffffffffffff1681526020019081526020016000209050600081600001541115610f845781816000016000828254610f6f91906126ac565b92505081905550428160010181905550611063565b60405180608001604052808381526020014281526020014281526020018773ffffffffffffffffffffffffffffffffffffffff16815250600160008873ffffffffffffffffffffffffffffffffffffffff1673ffffffffffffffffffffffffffffffffffffffff16815260200190815260200160002060008201518160000155602082015181600101556040820151816002015560608201518160030160006101000a81548173ffffffffffffffffffffffffffffffffffffffff021916908373ffffffffffffffffffffffffffffffffffffffff1602179055509050505b8573ffffffffffffffffffffffffffffffffffffffff167f0fe6fcb45adaaa54f7e3491f6a7964049817f1e437f33587e634a4629fbcf3a6600160008973ffffffffffffffffffffffffffffffffffffffff1673ffffffffffffffffffffffffffffffffffffffff168152602001908152602001600020600001546040516110eb9190612090565b60405180910390a28773ffffffffffffffffffffffffffffffffffffffff168673ffffffffffffffffffffffffffffffffffffffff167f4dfff917e1fbb261a082e98cc7d43029621f6a6eb05ff3fef1510d5f1eb4857c876040516111509190612090565b60405180910390a35050505050505050565b606481565b600033858585604051602001611180949392919061280d565b60405160208183030381529060405280519060200120905060006111a382611c9f565b905060056000868152602001908152602001600020600085815260200190815260200160002060009054906101000a900460ff161561120e576040517f8f32d76800000000000000000000000000000000000000000000000000000000815260040160405180910390fd5b6004600083815260200190815260200160002060009054906101000a900460ff1615611265576040517e1360cc00000000000000000000000000000000000000000000000000000000815260040160405180910390fd5b600660009054906101000a900473ffffffffffffffffffffffffffffffffffffffff1673ffffffffffffffffffffffffffffffffffffffff166112a88285611eec565b73ffffffffffffffffffffffffffffffffffffffff16146112f5576040517f6083dc0200000000000000000000000000000000000000000000000000000000815260040160405180910390fd5b60016004600084815260200190815260200160002060006101000a81548160ff021916908315150217905550600160056000878152602001908152602001600020600086815260200190815260200160002060006101000a81548160ff021916908315150217905550600060238761136d919061266a565b90506000600160003373ffffffffffffffffffffffffffffffffffffffff1673ffffffffffffffffffffffffffffffffffffffff16815260200190815260200160002090506000816000015411156114b057818160000160008282546113d391906126ac565b9250508190555042816001018190555080600160003373ffffffffffffffffffffffffffffffffffffffff1673ffffffffffffffffffffffffffffffffffffffff1681526020019081526020016000206000820154816000015560018201548160010155600282015481600201556003820160009054906101000a900473ffffffffffffffffffffffffffffffffffffffff168160030160006101000a81548173ffffffffffffffffffffffffffffffffffffffff021916908373ffffffffffffffffffffffffffffffffffffffff16021790555090505061158f565b60405180608001604052808381526020014281526020014281526020013373ffffffffffffffffffffffffffffffffffffffff16815250600160003373ffffffffffffffffffffffffffffffffffffffff1673ffffffffffffffffffffffffffffffffffffffff16815260200190815260200160002060008201518160000155602082015181600101556040820151816002015560608201518160030160006101000a81548173ffffffffffffffffffffffffffffffffffffffff021916908373ffffffffffffffffffffffffffffffffffffffff1602179055509050505b3373ffffffffffffffffffffffffffffffffffffffff167f0fe6fcb45adaaa54f7e3491f6a7964049817f1e437f33587e634a4629fbcf3a6600160003373ffffffffffffffffffffffffffffffffffffffff1673ffffffffffffffffffffffffffffffffffffffff168152602001908152602001600020600001546040516116179190612090565b60405180910390a25050505050505050565b611631611ccf565b73eeeeeeeeeeeeeeeeeeeeeeeeeeeeeeeeeeeeeeee73ffffffffffffffffffffffffffffffffffffffff168273ffffffffffffffffffffffffffffffffffffffff160361176257804710156116b2576040517f6f2bff0c00000000000000000000000000000000000000000000000000000000815260040160405180910390fd5b60006116bc610a2f565b73ffffffffffffffffffffffffffffffffffffffff16826040516116df90612aab565b60006040518083038185875af1925050503d806000811461171c576040519150601f19603f3d011682016040523d82523d6000602084013e611721565b606091505b505090508061175c576040517f8ce0f0fa00000000000000000000000000000000000000000000000000000000815260040160405180910390fd5b506117e9565b8173ffffffffffffffffffffffffffffffffffffffff1663a9059cbb611786610a2f565b836040518363ffffffff1660e01b81526004016117a4929190612ac0565b6020604051808303816000875af11580156117c3573d6000803e3d6000fd5b505050506040513d601f19601f820116820180604052508101906117e79190612b15565b505b8173ffffffffffffffffffffffffffffffffffffffff16611808610a2f565b73ffffffffffffffffffffffffffffffffffffffff167fe0b49f3bb212a1e1e3941a66b759936ca6d5535a46f3894e037e3712a6f0cecb8360405161184d9190612090565b60405180910390a35050565b60c881565b611866611ccf565b600073ffffffffffffffffffffffffffffffffffffffff168173ffffffffffffffffffffffffffffffffffffffff16036118d85760006040517f1e4fbdf70000000000000000000000000000000000000000000000000000000081526004016118cf919061243c565b60405180910390fd5b6118e181611d56565b50565b60016020528060005260406000206000915090508060000154908060010154908060020154908060030160009054906101000a900473ffffffffffffffffffffffffffffffffffffffff16905084565b600080600160003373ffffffffffffffffffffffffffffffffffffffff1673ffffffffffffffffffffffffffffffffffffffff16815260200190815260200160002060000154036119b1576040517fbf67098f00000000000000000000000000000000000000000000000000000000815260040160405180910390fd5b81600160003373ffffffffffffffffffffffffffffffffffffffff1673ffffffffffffffffffffffffffffffffffffffff168152602001908152602001600020600001541015611a2d576040517fbf67098f00000000000000000000000000000000000000000000000000000000815260040160405180910390fd5b81600160003373ffffffffffffffffffffffffffffffffffffffff1673ffffffffffffffffffffffffffffffffffffffff1681526020019081526020016000206000016000828254611a7f9190612a46565b925050819055507f000000000000000000000000000000000000000000000000000000000000000073ffffffffffffffffffffffffffffffffffffffff166340c10f19337f000000000000000000000000000000000000000000000000000000000000000073ffffffffffffffffffffffffffffffffffffffff1663313ce5676040518163ffffffff1660e01b8152600401602060405180830381865afa158015611b2e573d6000803e3d6000fd5b505050506040513d601f19601f82011682018060405250810190611b529190612b6e565b600a611b5e919061299b565b85611b69919061266a565b6040518363ffffffff1660e01b8152600401611b86929190612ac0565b600060405180830381600087803b158015611ba057600080fd5b505af1158015611bb4573d6000803e3d6000fd5b505050503373ffffffffffffffffffffffffffffffffffffffff167fc37df5d14f305277c1289e9a188a097cda6684189c95f785feb056cb77a8c91083604051611bfe9190612090565b60405180910390a23373ffffffffffffffffffffffffffffffffffffffff167f0fe6fcb45adaaa54f7e3491f6a7964049817f1e437f33587e634a4629fbcf3a6600160003373ffffffffffffffffffffffffffffffffffffffff1673ffffffffffffffffffffffffffffffffffffffff16815260200190815260200160002060000154604051611c8e9190612090565b60405180910390a260019050919050565b600081604051602001611cb29190612c13565b604051602081830303815290604052805190602001209050919050565b611cd7611f5b565b73ffffffffffffffffffffffffffffffffffffffff16611cf5610a2f565b73ffffffffffffffffffffffffffffffffffffffff1614611d5457611d18611f5b565b6040517f118cdaa7000000000000000000000000000000000000000000000000000000008152600401611d4b919061243c565b60405180910390fd5b565b60008060009054906101000a900473ffffffffffffffffffffffffffffffffffffffff169050816000806101000a81548173ffffffffffffffffffffffffffffffffffffffff021916908373ffffffffffffffffffffffffffffffffffffffff1602179055508173ffffffffffffffffffffffffffffffffffffffff168173ffffffffffffffffffffffffffffffffffffffff167f8be0079c531659141344cd1fd0a4f28419497f9722a3daafe3b4186f6b6457e060405160405180910390a35050565b60008046905062010469811480611e325750617a6981145b15611ee157600760009054906101000a900473ffffffffffffffffffffffffffffffffffffffff1673ffffffffffffffffffffffffffffffffffffffff166359fd3afe6001856040518363ffffffff1660e01b8152600401611e95929190612c84565b602060405180830381865afa158015611eb2573d6000803e3d6000fd5b505050506040513d601f19601f82011682018060405250810190611ed69190612cc2565b60001c915050611ee7565b60009150505b919050565b600080600080611efb85611f63565b92509250925060018682858560405160008152602001604052604051611f249493929190612cfe565b6020604051602081039080840390855afa158015611f46573d6000803e3d6000fd5b50505060206040510351935050505092915050565b600033905090565b60008060006041845114611fac576040517f08c379a0000000000000000000000000000000000000000000000000000000008152600401611fa390612d8f565b60405180910390fd5b6020840151925060408401519150606084015160001a90509193909250565b611e9680612db083390190565b6000604051905090565b600080fd5b600080fd5b600073ffffffffffffffffffffffffffffffffffffffff82169050919050565b600061201782611fec565b9050919050565b6120278161200c565b811461203257600080fd5b50565b6000813590506120448161201e565b92915050565b6000602082840312156120605761205f611fe2565b5b600061206e84828501612035565b91505092915050565b6000819050919050565b61208a81612077565b82525050565b60006020820190506120a56000830184612081565b92915050565b6120b481612077565b81146120bf57600080fd5b50565b6000813590506120d1816120ab565b92915050565b6000602082840312156120ed576120ec611fe2565b5b60006120fb848285016120c2565b91505092915050565b600080fd5b600080fd5b6000601f19601f8301169050919050565b7f4e487b7100000000000000000000000000000000000000000000000000000000600052604160045260246000fd5b6121578261210e565b810181811067ffffffffffffffff821117156121765761217561211f565b5b80604052505050565b6000612189611fd8565b9050612195828261214e565b919050565b600067ffffffffffffffff8211156121b5576121b461211f565b5b6121be8261210e565b9050602081019050919050565b82818337600083830152505050565b60006121ed6121e88461219a565b61217f565b90508281526020810184848401111561220957612208612109565b5b6122148482856121cb565b509392505050565b600082601f83011261223157612230612104565b5b81356122418482602086016121da565b91505092915050565b60008060006060848603121561226357612262611fe2565b5b600084013567ffffffffffffffff81111561228157612280611fe7565b5b61228d8682870161221c565b935050602084013567ffffffffffffffff8111156122ae576122ad611fe7565b5b6122ba8682870161221c565b92505060406122cb868287016120c2565b9150509250925092565b600067ffffffffffffffff8211156122f0576122ef61211f565b5b6122f98261210e565b9050602081019050919050565b6000612319612314846122d5565b61217f565b90508281526020810184848401111561233557612334612109565b5b6123408482856121cb565b509392505050565b600082601f83011261235d5761235c612104565b5b813561236d848260208601612306565b91505092915050565b600080600080608085870312156123905761238f611fe2565b5b600061239e878288016120c2565b94505060206123af878288016120c2565b93505060406123c0878288016120c2565b925050606085013567ffffffffffffffff8111156123e1576123e0611fe7565b5b6123ed87828801612348565b91505092959194509250565b6000819050919050565b61240c816123f9565b82525050565b60006020820190506124276000830184612403565b92915050565b6124368161200c565b82525050565b6000602082019050612451600083018461242d565b92915050565b6000819050919050565b600061247c61247761247284611fec565b612457565b611fec565b9050919050565b600061248e82612461565b9050919050565b60006124a082612483565b9050919050565b6124b081612495565b82525050565b60006020820190506124cb60008301846124a7565b92915050565b600080604083850312156124e8576124e7611fe2565b5b60006124f685828601612035565b9250506020612507858286016120c2565b9150509250929050565b61251a816123f9565b811461252557600080fd5b50565b60008135905061253781612511565b92915050565b60006020828403121561255357612552611fe2565b5b600061256184828501612528565b91505092915050565b60008115159050919050565b61257f8161256a565b82525050565b600060208201905061259a6000830184612576565b92915050565b60007fffffffffffffffffffffffffffffffffffffffff00000000000000000000000082169050919050565b6125d5816125a0565b82525050565b60006020820190506125f060008301846125cc565b92915050565b600060808201905061260b6000830187612081565b6126186020830186612081565b6126256040830185612081565b612632606083018461242d565b95945050505050565b7f4e487b7100000000000000000000000000000000000000000000000000000000600052601160045260246000fd5b600061267582612077565b915061268083612077565b925082820261268e81612077565b915082820484148315176126a5576126a461263b565b5b5092915050565b60006126b782612077565b91506126c283612077565b92508282019050808211156126da576126d961263b565b5b92915050565b600081519050919050565b600082825260208201905092915050565b60005b8381101561271a5780820151818401526020810190506126ff565b60008484015250505050565b6000612731826126e0565b61273b81856126eb565b935061274b8185602086016126fc565b6127548161210e565b840191505092915050565b600060608201905081810360008301526127798186612726565b9050818103602083015261278d8185612726565b905061279c6040830184612081565b949350505050565b60008160601b9050919050565b60006127bc826127a4565b9050919050565b60006127ce826127b1565b9050919050565b6127e66127e18261200c565b6127c3565b82525050565b6000819050919050565b61280761280282612077565b6127ec565b82525050565b600061281982876127d5565b60148201915061282982866127f6565b60208201915061283982856127f6565b60208201915061284982846127f6565b60208201915081905095945050505050565b60008160011c9050919050565b6000808291508390505b60018511156128b25780860481111561288e5761288d61263b565b5b600185161561289d5780820291505b80810290506128ab8561285b565b9450612872565b94509492505050565b6000826128cb5760019050612987565b816128d95760009050612987565b81600181146128ef57600281146128f957612928565b6001915050612987565b60ff84111561290b5761290a61263b565b5b8360020a9150848211156129225761292161263b565b5b50612987565b5060208310610133831016604e8410600b841016171561295d5782820a9050838111156129585761295761263b565b5b612987565b61296a8484846001612868565b925090508184048111156129815761298061263b565b5b81810290505b9392505050565b600060ff82169050919050565b60006129a682612077565b91506129b18361298e565b92506129de7fffffffffffffffffffffffffffffffffffffffffffffffffffffffffffffffff84846128bb565b905092915050565b7f4e487b7100000000000000000000000000000000000000000000000000000000600052601260045260246000fd5b6000612a2082612077565b9150612a2b83612077565b925082612a3b57612a3a6129e6565b5b828204905092915050565b6000612a5182612077565b9150612a5c83612077565b9250828203905081811115612a7457612a7361263b565b5b92915050565b600081905092915050565b50565b6000612a95600083612a7a565b9150612aa082612a85565b600082019050919050565b6000612ab682612a88565b9150819050919050565b6000604082019050612ad5600083018561242d565b612ae26020830184612081565b9392505050565b612af28161256a565b8114612afd57600080fd5b50565b600081519050612b0f81612ae9565b92915050565b600060208284031215612b2b57612b2a611fe2565b5b6000612b3984828501612b00565b91505092915050565b612b4b8161298e565b8114612b5657600080fd5b50565b600081519050612b6881612b42565b92915050565b600060208284031215612b8457612b83611fe2565b5b6000612b9284828501612b59565b91505092915050565b600081905092915050565b7f19457468657265756d205369676e6564204d6573736167653a0a333200000000600082015250565b6000612bdc601c83612b9b565b9150612be782612ba6565b601c82019050919050565b6000819050919050565b612c0d612c08826123f9565b612bf2565b82525050565b6000612c1e82612bcf565b9150612c2a8284612bfc565b60208201915081905092915050565b6000819050919050565b600063ffffffff82169050919050565b6000612c6e612c69612c6484612c39565b612457565b612c43565b9050919050565b612c7e81612c53565b82525050565b6000604082019050612c996000830185612c75565b612ca660208301846125cc565b9392505050565b600081519050612cbc81612511565b92915050565b600060208284031215612cd857612cd7611fe2565b5b6000612ce684828501612cad565b91505092915050565b612cf88161298e565b82525050565b6000608082019050612d136000830187612403565b612d206020830186612cef565b612d2d6040830185612403565b612d3a6060830184612403565b95945050505050565b7f496e76616c6964207369676e6174757265206c656e6774680000000000000000600082015250565b6000612d796018836126eb565b9150612d8482612d43565b602082019050919050565b60006020820190508181036000830152612da881612d6c565b905091905056fe60a060405234801561001057600080fd5b50604051611e96380380611e968339818101604052810190610032919061052a565b8282816003908161004391906107cc565b50806004908161005391906107cc565b5050503373ffffffffffffffffffffffffffffffffffffffff1660808173ffffffffffffffffffffffffffffffffffffffff16815250506100c13361009c6100c960201b60201c565b60ff16600a6100ab9190610a00565b836100b69190610a4b565b6100d260201b60201c565b505050610b7e565b60006012905090565b600073ffffffffffffffffffffffffffffffffffffffff168273ffffffffffffffffffffffffffffffffffffffff16036101445760006040517fec442f0500000000000000000000000000000000000000000000000000000000815260040161013b9190610ace565b60405180910390fd5b6101566000838361015a60201b60201c565b5050565b600073ffffffffffffffffffffffffffffffffffffffff168373ffffffffffffffffffffffffffffffffffffffff16036101ac5780600260008282546101a09190610ae9565b9250508190555061027f565b60008060008573ffffffffffffffffffffffffffffffffffffffff1673ffffffffffffffffffffffffffffffffffffffff16815260200190815260200160002054905081811015610238578381836040517fe450d38c00000000000000000000000000000000000000000000000000000000815260040161022f93929190610b2c565b60405180910390fd5b8181036000808673ffffffffffffffffffffffffffffffffffffffff1673ffffffffffffffffffffffffffffffffffffffff16815260200190815260200160002081905550505b600073ffffffffffffffffffffffffffffffffffffffff168273ffffffffffffffffffffffffffffffffffffffff16036102c85780600260008282540392505081905550610315565b806000808473ffffffffffffffffffffffffffffffffffffffff1673ffffffffffffffffffffffffffffffffffffffff168152602001908152602001600020600082825401925050819055505b8173ffffffffffffffffffffffffffffffffffffffff168373ffffffffffffffffffffffffffffffffffffffff167fddf252ad1be2c89b69c2b068fc378daa952ba7f163c4a11628f55a4df523b3ef836040516103729190610b63565b60405180910390a3505050565b6000604051905090565b600080fd5b600080fd5b600080fd5b600080fd5b6000601f19601f8301169050919050565b7f4e487b7100000000000000000000000000000000000000000000000000000000600052604160045260246000fd5b6103e68261039d565b810181811067ffffffffffffffff82111715610405576104046103ae565b5b80604052505050565b600061041861037f565b905061042482826103dd565b919050565b600067ffffffffffffffff821115610444576104436103ae565b5b61044d8261039d565b9050602081019050919050565b60005b8381101561047857808201518184015260208101905061045d565b60008484015250505050565b600061049761049284610429565b61040e565b9050828152602081018484840111156104b3576104b2610398565b5b6104be84828561045a565b509392505050565b600082601f8301126104db576104da610393565b5b81516104eb848260208601610484565b91505092915050565b6000819050919050565b610507816104f4565b811461051257600080fd5b50565b600081519050610524816104fe565b92915050565b60008060006060848603121561054357610542610389565b5b600084015167ffffffffffffffff8111156105615761056061038e565b5b61056d868287016104c6565b935050602084015167ffffffffffffffff81111561058e5761058d61038e565b5b61059a868287016104c6565b92505060406105ab86828701610515565b9150509250925092565b600081519050919050565b7f4e487b7100000000000000000000000000000000000000000000000000000000600052602260045260246000fd5b6000600282049050600182168061060757607f821691505b60208210810361061a576106196105c0565b5b50919050565b60008190508160005260206000209050919050565b60006020601f8301049050919050565b600082821b905092915050565b6000600883026106827fffffffffffffffffffffffffffffffffffffffffffffffffffffffffffffffff82610645565b61068c8683610645565b95508019841693508086168417925050509392505050565b6000819050919050565b60006106c96106c46106bf846104f4565b6106a4565b6104f4565b9050919050565b6000819050919050565b6106e3836106ae565b6106f76106ef826106d0565b848454610652565b825550505050565b600090565b61070c6106ff565b6107178184846106da565b505050565b5b8181101561073b57610730600082610704565b60018101905061071d565b5050565b601f8211156107805761075181610620565b61075a84610635565b81016020851015610769578190505b61077d61077585610635565b83018261071c565b50505b505050565b600082821c905092915050565b60006107a360001984600802610785565b1980831691505092915050565b60006107bc8383610792565b9150826002028217905092915050565b6107d5826105b5565b67ffffffffffffffff8111156107ee576107ed6103ae565b5b6107f882546105ef565b61080382828561073f565b600060209050601f8311600181146108365760008415610824578287015190505b61082e85826107b0565b865550610896565b601f19841661084486610620565b60005b8281101561086c57848901518255600182019150602085019450602081019050610847565b868310156108895784890151610885601f891682610792565b8355505b6001600288020188555050505b505050505050565b7f4e487b7100000000000000000000000000000000000000000000000000000000600052601160045260246000fd5b60008160011c9050919050565b6000808291508390505b600185111561092457808604811115610900576108ff61089e565b5b600185161561090f5780820291505b808102905061091d856108cd565b94506108e4565b94509492505050565b60008261093d57600190506109f9565b8161094b57600090506109f9565b8160018114610961576002811461096b5761099a565b60019150506109f9565b60ff84111561097d5761097c61089e565b5b8360020a9150848211156109945761099361089e565b5b506109f9565b5060208310610133831016604e8410600b84101617156109cf5782820a9050838111156109ca576109c961089e565b5b6109f9565b6109dc84848460016108da565b925090508184048111156109f3576109f261089e565b5b81810290505b9392505050565b6000610a0b826104f4565b9150610a16836104f4565b9250610a437fffffffffffffffffffffffffffffffffffffffffffffffffffffffffffffffff848461092d565b905092915050565b6000610a56826104f4565b9150610a61836104f4565b9250828202610a6f816104f4565b91508282048414831517610a8657610a8561089e565b5b5092915050565b600073ffffffffffffffffffffffffffffffffffffffff82169050919050565b6000610ab882610a8d565b9050919050565b610ac881610aad565b82525050565b6000602082019050610ae36000830184610abf565b92915050565b6000610af4826104f4565b9150610aff836104f4565b9250828201905080821115610b1757610b1661089e565b5b92915050565b610b26816104f4565b82525050565b6000606082019050610b416000830186610abf565b610b4e6020830185610b1d565b610b5b6040830184610b1d565b949350505050565b6000602082019050610b786000830184610b1d565b92915050565b6080516112f6610ba06000396000818161032e015261039401526112f66000f3fe608060405234801561001057600080fd5b50600436106100b45760003560e01c806340c10f191161007157806340c10f191461019157806342966c68146101ad57806370a08231146101c957806395d89b41146101f9578063a9059cbb14610217578063dd62ed3e14610247576100b4565b806306fdde03146100b9578063095ea7b3146100d7578063117803e31461010757806318160ddd1461012557806323b872dd14610143578063313ce56714610173575b600080fd5b6100c1610277565b6040516100ce9190610d5d565b60405180910390f35b6100f160048036038101906100ec9190610e18565b610309565b6040516100fe9190610e73565b60405180910390f35b61010f61032c565b60405161011c9190610e9d565b60405180910390f35b61012d610350565b60405161013a9190610ec7565b60405180910390f35b61015d60048036038101906101589190610ee2565b61035a565b60405161016a9190610e73565b60405180910390f35b61017b610389565b6040516101889190610f51565b60405180910390f35b6101ab60048036038101906101a69190610e18565b610392565b005b6101c760048036038101906101c29190610f6c565b610499565b005b6101e360048036038101906101de9190610f99565b6104a6565b6040516101f09190610ec7565b60405180910390f35b6102016104ee565b60405161020e9190610d5d565b60405180910390f35b610231600480360381019061022c9190610e18565b610580565b60405161023e9190610e73565b60405180910390f35b610261600480360381019061025c9190610fc6565b6105a3565b60405161026e9190610ec7565b60405180910390f35b60606003805461028690611035565b80601f01602080910402602001604051908101604052809291908181526020018280546102b290611035565b80156102ff5780601f106102d4576101008083540402835291602001916102ff565b820191906000526020600020905b8154815290600101906020018083116102e257829003601f168201915b5050505050905090565b60008061031461062a565b9050610321818585610632565b600191505092915050565b7f000000000000000000000000000000000000000000000000000000000000000081565b6000600254905090565b60008061036561062a565b9050610372858285610644565b61037d8585856106d9565b60019150509392505050565b60006012905090565b7f000000000000000000000000000000000000000000000000000000000000000073ffffffffffffffffffffffffffffffffffffffff163373ffffffffffffffffffffffffffffffffffffffff1614610417576040517f211a7c6100000000000000000000000000000000000000000000000000000000815260040160405180910390fd5b6000610421610389565b600a61042d91906111c8565b6301406f4061043c9190611213565b90508082610448610350565b6104529190611255565b111561048a576040517f680595bd00000000000000000000000000000000000000000000000000000000815260040160405180910390fd5b61049483836107cd565b505050565b6104a3338261084f565b50565b60008060008373ffffffffffffffffffffffffffffffffffffffff1673ffffffffffffffffffffffffffffffffffffffff168152602001908152602001600020549050919050565b6060600480546104fd90611035565b80601f016020809104026020016040519081016040528092919081815260200182805461052990611035565b80156105765780601f1061054b57610100808354040283529160200191610576565b820191906000526020600020905b81548152906001019060200180831161055957829003601f168201915b5050505050905090565b60008061058b61062a565b90506105988185856106d9565b600191505092915050565b6000600160008473ffffffffffffffffffffffffffffffffffffffff1673ffffffffffffffffffffffffffffffffffffffff16815260200190815260200160002060008373ffffffffffffffffffffffffffffffffffffffff1673ffffffffffffffffffffffffffffffffffffffff16815260200190815260200160002054905092915050565b600033905090565b61063f83838360016108d1565b505050565b600061065084846105a3565b90507fffffffffffffffffffffffffffffffffffffffffffffffffffffffffffffffff8110156106d357818110156106c3578281836040517ffb8f41b20000000000000000000000000000000000000000000000000000000081526004016106ba93929190611289565b60405180910390fd5b6106d2848484840360006108d1565b5b50505050565b600073ffffffffffffffffffffffffffffffffffffffff168373ffffffffffffffffffffffffffffffffffffffff160361074b5760006040517f96c6fd1e0000000000000000000000000000000000000000000000000000000081526004016107429190610e9d565b60405180910390fd5b600073ffffffffffffffffffffffffffffffffffffffff168273ffffffffffffffffffffffffffffffffffffffff16036107bd5760006040517fec442f050000000000000000000000000000000000000000000000000000000081526004016107b49190610e9d565b60405180910390fd5b6107c8838383610aa8565b505050565b600073ffffffffffffffffffffffffffffffffffffffff168273ffffffffffffffffffffffffffffffffffffffff160361083f5760006040517fec442f050000000000000000000000000000000000000000000000000000000081526004016108369190610e9d565b60405180910390fd5b61084b60008383610aa8565b5050565b600073ffffffffffffffffffffffffffffffffffffffff168273ffffffffffffffffffffffffffffffffffffffff16036108c15760006040517f96c6fd1e0000000000000000000000000000000000000000000000000000000081526004016108b89190610e9d565b60405180910390fd5b6108cd82600083610aa8565b5050565b600073ffffffffffffffffffffffffffffffffffffffff168473ffffffffffffffffffffffffffffffffffffffff16036109435760006040517fe602df0500000000000000000000000000000000000000000000000000000000815260040161093a9190610e9d565b60405180910390fd5b600073ffffffffffffffffffffffffffffffffffffffff168373ffffffffffffffffffffffffffffffffffffffff16036109b55760006040517f94280d620000000000000000000000000000000000000000000000000000000081526004016109ac9190610e9d565b60405180910390fd5b81600160008673ffffffffffffffffffffffffffffffffffffffff1673ffffffffffffffffffffffffffffffffffffffff16815260200190815260200160002060008573ffffffffffffffffffffffffffffffffffffffff1673ffffffffffffffffffffffffffffffffffffffff168152602001908152602001600020819055508015610aa2578273ffffffffffffffffffffffffffffffffffffffff168473ffffffffffffffffffffffffffffffffffffffff167f8c5be1e5ebec7d5bd14f71427d1e84f3dd0314c0f7b2291e5b200ac8c7c3b92584604051610a999190610ec7565b60405180910390a35b50505050565b600073ffffffffffffffffffffffffffffffffffffffff168373ffffffffffffffffffffffffffffffffffffffff1603610afa578060026000828254610aee9190611255565b92505081905550610bcd565b60008060008573ffffffffffffffffffffffffffffffffffffffff1673ffffffffffffffffffffffffffffffffffffffff16815260200190815260200160002054905081811015610b86578381836040517fe450d38c000000000000000000000000000000000000000000000000000000008152600401610b7d93929190611289565b60405180910390fd5b8181036000808673ffffffffffffffffffffffffffffffffffffffff1673ffffffffffffffffffffffffffffffffffffffff16815260200190815260200160002081905550505b600073ffffffffffffffffffffffffffffffffffffffff168273ffffffffffffffffffffffffffffffffffffffff1603610c165780600260008282540392505081905550610c63565b806000808473ffffffffffffffffffffffffffffffffffffffff1673ffffffffffffffffffffffffffffffffffffffff168152602001908152602001600020600082825401925050819055505b8173ffffffffffffffffffffffffffffffffffffffff168373ffffffffffffffffffffffffffffffffffffffff167fddf252ad1be2c89b69c2b068fc378daa952ba7f163c4a11628f55a4df523b3ef83604051610cc09190610ec7565b60405180910390a3505050565b600081519050919050565b600082825260208201905092915050565b60005b83811015610d07578082015181840152602081019050610cec565b60008484015250505050565b6000601f19601f8301169050919050565b6000610d2f82610ccd565b610d398185610cd8565b9350610d49818560208601610ce9565b610d5281610d13565b840191505092915050565b60006020820190508181036000830152610d778184610d24565b905092915050565b600080fd5b600073ffffffffffffffffffffffffffffffffffffffff82169050919050565b6000610daf82610d84565b9050919050565b610dbf81610da4565b8114610dca57600080fd5b50565b600081359050610ddc81610db6565b92915050565b6000819050919050565b610df581610de2565b8114610e0057600080fd5b50565b600081359050610e1281610dec565b92915050565b60008060408385031215610e2f57610e2e610d7f565b5b6000610e3d85828601610dcd565b9250506020610e4e85828601610e03565b9150509250929050565b60008115159050919050565b610e6d81610e58565b82525050565b6000602082019050610e886000830184610e64565b92915050565b610e9781610da4565b82525050565b6000602082019050610eb26000830184610e8e565b92915050565b610ec181610de2565b82525050565b6000602082019050610edc6000830184610eb8565b92915050565b600080600060608486031215610efb57610efa610d7f565b5b6000610f0986828701610dcd565b9350506020610f1a86828701610dcd565b9250506040610f2b86828701610e03565b9150509250925092565b600060ff82169050919050565b610f4b81610f35565b82525050565b6000602082019050610f666000830184610f42565b92915050565b600060208284031215610f8257610f81610d7f565b5b6000610f9084828501610e03565b91505092915050565b600060208284031215610faf57610fae610d7f565b5b6000610fbd84828501610dcd565b91505092915050565b60008060408385031215610fdd57610fdc610d7f565b5b6000610feb85828601610dcd565b9250506020610ffc85828601610dcd565b9150509250929050565b7f4e487b7100000000000000000000000000000000000000000000000000000000600052602260045260246000fd5b6000600282049050600182168061104d57607f821691505b6020821081036110605761105f611006565b5b50919050565b7f4e487b7100000000000000000000000000000000000000000000000000000000600052601160045260246000fd5b60008160011c9050919050565b6000808291508390505b60018511156110ec578086048111156110c8576110c7611066565b5b60018516156110d75780820291505b80810290506110e585611095565b94506110ac565b94509492505050565b60008261110557600190506111c1565b8161111357600090506111c1565b8160018114611129576002811461113357611162565b60019150506111c1565b60ff84111561114557611144611066565b5b8360020a91508482111561115c5761115b611066565b5b506111c1565b5060208310610133831016604e8410600b84101617156111975782820a90508381111561119257611191611066565b5b6111c1565b6111a484848460016110a2565b925090508184048111156111bb576111ba611066565b5b81810290505b9392505050565b60006111d382610de2565b91506111de83610f35565b925061120b7fffffffffffffffffffffffffffffffffffffffffffffffffffffffffffffffff84846110f5565b905092915050565b600061121e82610de2565b915061122983610de2565b925082820261123781610de2565b9150828204841483151761124e5761124d611066565b5b5092915050565b600061126082610de2565b915061126b83610de2565b925082820190508082111561128357611282611066565b5b92915050565b600060608201905061129e6000830186610e8e565b6112ab6020830185610eb8565b6112b86040830184610eb8565b94935050505056fea264697066735822122008eb84f62289c21336a40d57b481962c84a9e2b51438ee9d4f161ceff45de87764736f6c634300081c0033a264697066735822122026409a5abeb5ee1c5c512c6d072ab6dad2a544f156ed48eead6195ac49277d6064736f6c634300081c003360a060405234801561001057600080fd5b506040518060400160405280600c81526020017f45636f4e6f7661546f6b656e00000000000000000000000000000000000000008152506040518060400160405280600381526020017f454e540000000000000000000000000000000000000000000000000000000000815250816003908161008c9190610328565b50806004908161009c9190610328565b5050503373ffffffffffffffffffffffffffffffffffffffff1660808173ffffffffffffffffffffffffffffffffffffffff16815250506103fa565b600081519050919050565b7f4e487b7100000000000000000000000000000000000000000000000000000000600052604160045260246000fd5b7f4e487b7100000000000000000000000000000000000000000000000000000000600052602260045260246000fd5b6000600282049050600182168061015957607f821691505b60208210810361016c5761016b610112565b5b50919050565b60008190508160005260206000209050919050565b60006020601f8301049050919050565b600082821b905092915050565b6000600883026101d47fffffffffffffffffffffffffffffffffffffffffffffffffffffffffffffffff82610197565b6101de8683610197565b95508019841693508086168417925050509392505050565b6000819050919050565b6000819050919050565b600061022561022061021b846101f6565b610200565b6101f6565b9050919050565b6000819050919050565b61023f8361020a565b61025361024b8261022c565b8484546101a4565b825550505050565b600090565b61026861025b565b610273818484610236565b505050565b5b818110156102975761028c600082610260565b600181019050610279565b5050565b601f8211156102dc576102ad81610172565b6102b684610187565b810160208510156102c5578190505b6102d96102d185610187565b830182610278565b50505b505050565b600082821c905092915050565b60006102ff600019846008026102e1565b1980831691505092915050565b600061031883836102ee565b9150826002028217905092915050565b610331826100d8565b67ffffffffffffffff81111561034a576103496100e3565b5b6103548254610141565b61035f82828561029b565b600060209050601f8311600181146103925760008415610380578287015190505b61038a858261030c565b8655506103f2565b601f1984166103a086610172565b60005b828110156103c8578489015182556001820191506020850194506020810190506103a3565b868310156103e557848901516103e1601f8916826102ee565b8355505b6001600288020188555050505b505050505050565b60805161106e61041c6000396000818161033001526103a5015261106e6000f3fe608060405234801561001057600080fd5b50600436106100b45760003560e01c806332cb6b0c1161007157806332cb6b0c1461019157806340c10f19146101af57806370a08231146101cb57806395d89b41146101fb578063a9059cbb14610219578063dd62ed3e14610249576100b4565b806306fdde03146100b9578063095ea7b3146100d7578063117803e31461010757806318160ddd1461012557806323b872dd14610143578063313ce56714610173575b600080fd5b6100c1610279565b6040516100ce9190610cc2565b60405180910390f35b6100f160048036038101906100ec9190610d7d565b61030b565b6040516100fe9190610dd8565b60405180910390f35b61010f61032e565b60405161011c9190610e02565b60405180910390f35b61012d610352565b60405161013a9190610e2c565b60405180910390f35b61015d60048036038101906101589190610e47565b61035c565b60405161016a9190610dd8565b60405180910390f35b61017b61038b565b6040516101889190610eb6565b60405180910390f35b610199610394565b6040516101a69190610e2c565b60405180910390f35b6101c960048036038101906101c49190610d7d565b6103a3565b005b6101e560048036038101906101e09190610ed1565b61048d565b6040516101f29190610e2c565b60405180910390f35b6102036104d5565b6040516102109190610cc2565b60405180910390f35b610233600480360381019061022e9190610d7d565b610567565b6040516102409190610dd8565b60405180910390f35b610263600480360381019061025e9190610efe565b61058a565b6040516102709190610e2c565b60405180910390f35b60606003805461028890610f6d565b80601f01602080910402602001604051908101604052809291908181526020018280546102b490610f6d565b80156103015780601f106102d657610100808354040283529160200191610301565b820191906000526020600020905b8154815290600101906020018083116102e457829003601f168201915b5050505050905090565b600080610316610611565b9050610323818585610619565b600191505092915050565b7f000000000000000000000000000000000000000000000000000000000000000081565b6000600254905090565b600080610367610611565b905061037485828561062b565b61037f8585856106c0565b60019150509392505050565b60006012905090565b6a115eec47f6cf7e3500000081565b7f000000000000000000000000000000000000000000000000000000000000000073ffffffffffffffffffffffffffffffffffffffff163373ffffffffffffffffffffffffffffffffffffffff1614610428576040517f3977181a00000000000000000000000000000000000000000000000000000000815260040160405180910390fd5b6a115eec47f6cf7e350000008161043d610352565b6104479190610fcd565b111561047f576040517fd26d197300000000000000000000000000000000000000000000000000000000815260040160405180910390fd5b61048982826107b4565b5050565b60008060008373ffffffffffffffffffffffffffffffffffffffff1673ffffffffffffffffffffffffffffffffffffffff168152602001908152602001600020549050919050565b6060600480546104e490610f6d565b80601f016020809104026020016040519081016040528092919081815260200182805461051090610f6d565b801561055d5780601f106105325761010080835404028352916020019161055d565b820191906000526020600020905b81548152906001019060200180831161054057829003601f168201915b5050505050905090565b600080610572610611565b905061057f8185856106c0565b600191505092915050565b6000600160008473ffffffffffffffffffffffffffffffffffffffff1673ffffffffffffffffffffffffffffffffffffffff16815260200190815260200160002060008373ffffffffffffffffffffffffffffffffffffffff1673ffffffffffffffffffffffffffffffffffffffff16815260200190815260200160002054905092915050565b600033905090565b6106268383836001610836565b505050565b6000610637848461058a565b90507fffffffffffffffffffffffffffffffffffffffffffffffffffffffffffffffff8110156106ba57818110156106aa578281836040517ffb8f41b20000000000000000000000000000000000000000000000000000000081526004016106a193929190611001565b60405180910390fd5b6106b984848484036000610836565b5b50505050565b600073ffffffffffffffffffffffffffffffffffffffff168373ffffffffffffffffffffffffffffffffffffffff16036107325760006040517f96c6fd1e0000000000000000000000000000000000000000000000000000000081526004016107299190610e02565b60405180910390fd5b600073ffffffffffffffffffffffffffffffffffffffff168273ffffffffffffffffffffffffffffffffffffffff16036107a45760006040517fec442f0500000000000000000000000000000000000000000000000000000000815260040161079b9190610e02565b60405180910390fd5b6107af838383610a0d565b505050565b600073ffffffffffffffffffffffffffffffffffffffff168273ffffffffffffffffffffffffffffffffffffffff16036108265760006040517fec442f0500000000000000000000000000000000000000000000000000000000815260040161081d9190610e02565b60405180910390fd5b61083260008383610a0d565b5050565b600073ffffffffffffffffffffffffffffffffffffffff168473ffffffffffffffffffffffffffffffffffffffff16036108a85760006040517fe602df0500000000000000000000000000000000000000000000000000000000815260040161089f9190610e02565b60405180910390fd5b600073ffffffffffffffffffffffffffffffffffffffff168373ffffffffffffffffffffffffffffffffffffffff160361091a5760006040517f94280d620000000000000000000000000000000000000000000000000000000081526004016109119190610e02565b60405180910390fd5b81600160008673ffffffffffffffffffffffffffffffffffffffff1673ffffffffffffffffffffffffffffffffffffffff16815260200190815260200160002060008573ffffffffffffffffffffffffffffffffffffffff1673ffffffffffffffffffffffffffffffffffffffff168152602001908152602001600020819055508015610a07578273ffffffffffffffffffffffffffffffffffffffff168473ffffffffffffffffffffffffffffffffffffffff167f8c5be1e5ebec7d5bd14f71427d1e84f3dd0314c0f7b2291e5b200ac8c7c3b925846040516109fe9190610e2c565b60405180910390a35b50505050565b600073ffffffffffffffffffffffffffffffffffffffff168373ffffffffffffffffffffffffffffffffffffffff1603610a5f578060026000828254610a539190610fcd565b92505081905550610b32565b60008060008573ffffffffffffffffffffffffffffffffffffffff1673ffffffffffffffffffffffffffffffffffffffff16815260200190815260200160002054905081811015610aeb578381836040517fe450d38c000000000000000000000000000000000000000000000000000000008152600401610ae293929190611001565b60405180910390fd5b8181036000808673ffffffffffffffffffffffffffffffffffffffff1673ffffffffffffffffffffffffffffffffffffffff16815260200190815260200160002081905550505b600073ffffffffffffffffffffffffffffffffffffffff168273ffffffffffffffffffffffffffffffffffffffff1603610b7b5780600260008282540392505081905550610bc8565b806000808473ffffffffffffffffffffffffffffffffffffffff1673ffffffffffffffffffffffffffffffffffffffff168152602001908152602001600020600082825401925050819055505b8173ffffffffffffffffffffffffffffffffffffffff168373ffffffffffffffffffffffffffffffffffffffff167fddf252ad1be2c89b69c2b068fc378daa952ba7f163c4a11628f55a4df523b3ef83604051610c259190610e2c565b60405180910390a3505050565b600081519050919050565b600082825260208201905092915050565b60005b83811015610c6c578082015181840152602081019050610c51565b60008484015250505050565b6000601f19601f8301169050919050565b6000610c9482610c32565b610c9e8185610c3d565b9350610cae818560208601610c4e565b610cb781610c78565b840191505092915050565b60006020820190508181036000830152610cdc8184610c89565b905092915050565b600080fd5b600073ffffffffffffffffffffffffffffffffffffffff82169050919050565b6000610d1482610ce9565b9050919050565b610d2481610d09565b8114610d2f57600080fd5b50565b600081359050610d4181610d1b565b92915050565b6000819050919050565b610d5a81610d47565b8114610d6557600080fd5b50565b600081359050610d7781610d51565b92915050565b60008060408385031215610d9457610d93610ce4565b5b6000610da285828601610d32565b9250506020610db385828601610d68565b9150509250929050565b60008115159050919050565b610dd281610dbd565b82525050565b6000602082019050610ded6000830184610dc9565b92915050565b610dfc81610d09565b82525050565b6000602082019050610e176000830184610df3565b92915050565b610e2681610d47565b82525050565b6000602082019050610e416000830184610e1d565b92915050565b600080600060608486031215610e6057610e5f610ce4565b5b6000610e6e86828701610d32565b9350506020610e7f86828701610d32565b9250506040610e9086828701610d68565b9150509250925092565b600060ff82169050919050565b610eb081610e9a565b82525050565b6000602082019050610ecb6000830184610ea7565b92915050565b600060208284031215610ee757610ee6610ce4565b5b6000610ef584828501610d32565b91505092915050565b60008060408385031215610f1557610f14610ce4565b5b6000610f2385828601610d32565b9250506020610f3485828601610d32565b9150509250929050565b7f4e487b7100000000000000000000000000000000000000000000000000000000600052602260045260246000fd5b60006002820490506001821680610f8557607f821691505b602082108103610f9857610f97610f3e565b5b50919050565b7f4e487b7100000000000000000000000000000000000000000000000000000000600052601160045260246000fd5b6000610fd882610d47565b9150610fe383610d47565b9250828201905080821115610ffb57610ffa610f9e565b5b92915050565b60006060820190506110166000830186610df3565b6110236020830185610e1d565b6110306040830184610e1d565b94935050505056fea26469706673582212204821a34311742d2dfdea675bece4549a10636bea1bf125bd4adb25740a752d7d64736f6c634300081c0033",
  "linkReferences": {},
  "deployedLinkReferences": {}
}