{
  "_format": "hh-sol-artifact-1",
  "contractName": "EcoNovaManager",
  "sourceName": "contracts/EcoNovaManager.sol",
  "abi": [
    {
      "inputs": [
        {
          "internalType": "address",
          "name": "orocleAddress",
          "type": "address"
        },
        {
          "internalType": "address",
          "name": "_botAddress",
          "type": "address"
        }
      ],
      "stateMutability": "nonpayable",
      "type": "constructor"
    },
    {
      "inputs": [],
      "name": "EcoNovaManager__AddressCannotBeZero",
      "type": "error"
    },
    {
      "inputs": [],
      "name": "EcoNovaManager__ConversionNotAvailable",
      "type": "error"
    },
    {
      "inputs": [],
      "name": "EcoNovaManager__HashAlreadyUsed",
      "type": "error"
    },
    {
      "inputs": [],
      "name": "EcoNovaManager__IncorrectETHAmount",
      "type": "error"
    },
    {
      "inputs": [],
      "name": "EcoNovaManager__InsufficientBalance",
      "type": "error"
    },
    {
      "inputs": [],
      "name": "EcoNovaManager__InsufficientPoints",
      "type": "error"
    },
    {
      "inputs": [],
      "name": "EcoNovaManager__InvalidSignature",
      "type": "error"
    },
    {
      "inputs": [],
      "name": "EcoNovaManager__SendingFailed",
      "type": "error"
    },
    {
      "inputs": [],
      "name": "EcoNovaManager__TweetIdAlreadyRecorderForUser",
      "type": "error"
    },
    {
      "inputs": [],
      "name": "EcoNovaManager__Unauthorized",
      "type": "error"
    },
    {
      "inputs": [
        {
          "internalType": "address",
          "name": "owner",
          "type": "address"
        }
      ],
      "name": "OwnableInvalidOwner",
      "type": "error"
    },
    {
      "inputs": [
        {
          "internalType": "address",
          "name": "account",
          "type": "address"
        }
      ],
      "name": "OwnableUnauthorizedAccount",
      "type": "error"
    },
    {
      "anonymous": false,
      "inputs": [
        {
          "indexed": true,
          "internalType": "address",
          "name": "oldBotAddress",
          "type": "address"
        },
        {
          "indexed": true,
          "internalType": "address",
          "name": "newBotAddress",
          "type": "address"
        }
      ],
      "name": "BotAddressUpdated",
      "type": "event"
    },
    {
      "anonymous": false,
      "inputs": [
        {
          "indexed": true,
          "internalType": "address",
          "name": "user",
          "type": "address"
        },
        {
          "indexed": true,
          "internalType": "address",
          "name": "token",
          "type": "address"
        },
        {
          "indexed": false,
          "internalType": "uint256",
          "name": "amount",
          "type": "uint256"
        }
      ],
      "name": "Donated",
      "type": "event"
    },
    {
      "anonymous": false,
      "inputs": [
        {
          "indexed": true,
          "internalType": "address",
          "name": "user",
          "type": "address"
        },
        {
          "indexed": true,
          "internalType": "address",
          "name": "token",
          "type": "address"
        },
        {
          "indexed": false,
          "internalType": "uint256",
          "name": "amount",
          "type": "uint256"
        }
      ],
      "name": "DonationWithdrawed",
      "type": "event"
    },
    {
      "anonymous": false,
      "inputs": [
        {
          "indexed": true,
          "internalType": "address",
          "name": "previousOwner",
          "type": "address"
        },
        {
          "indexed": true,
          "internalType": "address",
          "name": "newOwner",
          "type": "address"
        }
      ],
      "name": "OwnershipTransferred",
      "type": "event"
    },
    {
      "anonymous": false,
      "inputs": [
        {
          "indexed": true,
          "internalType": "address",
          "name": "user",
          "type": "address"
        },
        {
          "indexed": false,
          "internalType": "uint256",
          "name": "points",
          "type": "uint256"
        }
      ],
      "name": "PointsAdded",
      "type": "event"
    },
    {
      "anonymous": false,
      "inputs": [
        {
          "indexed": true,
          "internalType": "address",
          "name": "user",
          "type": "address"
        },
        {
          "indexed": false,
          "internalType": "uint256",
          "name": "points",
          "type": "uint256"
        }
      ],
      "name": "PointsRedeemed",
      "type": "event"
    },
    {
      "anonymous": false,
      "inputs": [
        {
          "indexed": true,
          "internalType": "address",
          "name": "oldOrocle",
          "type": "address"
        },
        {
          "indexed": true,
          "internalType": "address",
          "name": "newOrocle",
          "type": "address"
        }
      ],
      "name": "SetOrocle",
      "type": "event"
    },
    {
      "anonymous": false,
      "inputs": [
        {
          "indexed": true,
          "internalType": "address",
          "name": "token",
          "type": "address"
        },
        {
          "indexed": false,
          "internalType": "string",
          "name": "name",
          "type": "string"
        },
        {
          "indexed": false,
          "internalType": "string",
          "name": "symbol",
          "type": "string"
        },
        {
          "indexed": false,
          "internalType": "uint8",
          "name": "decimals",
          "type": "uint8"
        },
        {
          "indexed": false,
          "internalType": "uint256",
          "name": "initialSupply",
          "type": "uint256"
        }
      ],
      "name": "TokenCreated",
      "type": "event"
    },
    {
      "inputs": [],
      "name": "DONATION_POINT_PER_USD",
      "outputs": [
        {
          "internalType": "uint256",
          "name": "",
          "type": "uint256"
        }
      ],
      "stateMutability": "view",
      "type": "function"
    },
    {
      "inputs": [],
      "name": "ETH_ADDRESS",
      "outputs": [
        {
          "internalType": "address",
          "name": "",
          "type": "address"
        }
      ],
      "stateMutability": "view",
      "type": "function"
    },
    {
      "inputs": [],
      "name": "FIAT_DECIMALS",
      "outputs": [
        {
          "internalType": "uint256",
          "name": "",
          "type": "uint256"
        }
      ],
      "stateMutability": "view",
      "type": "function"
    },
    {
      "inputs": [],
      "name": "POINT_BASIS",
      "outputs": [
        {
          "internalType": "uint256",
          "name": "",
          "type": "uint256"
        }
      ],
      "stateMutability": "view",
      "type": "function"
    },
    {
      "inputs": [],
      "name": "SLIPPAGE_TOLERANCE_BPS",
      "outputs": [
        {
          "internalType": "uint256",
          "name": "",
          "type": "uint256"
        }
      ],
      "stateMutability": "view",
      "type": "function"
    },
    {
      "inputs": [
        {
          "internalType": "uint256",
          "name": "weightInGrams",
          "type": "uint256"
        }
      ],
      "name": "addPointFromWeight",
      "outputs": [],
      "stateMutability": "nonpayable",
      "type": "function"
    },
    {
      "inputs": [
        {
          "internalType": "uint256",
          "name": "pointToAdd",
          "type": "uint256"
        },
        {
          "internalType": "uint256",
          "name": "userTwitterId",
          "type": "uint256"
        },
        {
          "internalType": "uint256",
          "name": "tweetId",
          "type": "uint256"
        },
        {
          "internalType": "bytes",
          "name": "signature",
          "type": "bytes"
        }
      ],
      "name": "addPointsFromTwitterBot",
      "outputs": [],
      "stateMutability": "nonpayable",
      "type": "function"
    },
    {
      "inputs": [],
      "name": "botAddress",
      "outputs": [
        {
          "internalType": "address",
          "name": "",
          "type": "address"
        }
      ],
      "stateMutability": "view",
      "type": "function"
    },
    {
      "inputs": [
        {
          "internalType": "string",
          "name": "name",
          "type": "string"
        },
        {
          "internalType": "string",
          "name": "symbol",
          "type": "string"
        },
        {
          "internalType": "uint8",
          "name": "decimals",
          "type": "uint8"
        },
        {
          "internalType": "uint256",
          "name": "initialSupply",
          "type": "uint256"
        }
      ],
      "name": "deployToken",
      "outputs": [],
      "stateMutability": "nonpayable",
      "type": "function"
    },
    {
      "inputs": [
        {
          "internalType": "address",
          "name": "token",
          "type": "address"
        },
        {
          "internalType": "uint256",
          "name": "amountInUsd",
          "type": "uint256"
        }
      ],
      "name": "donateToFoundation",
      "outputs": [],
      "stateMutability": "payable",
      "type": "function"
    },
    {
      "inputs": [
        {
          "internalType": "address",
          "name": "",
          "type": "address"
        }
      ],
      "name": "donations",
      "outputs": [
        {
          "internalType": "uint256",
          "name": "",
          "type": "uint256"
        }
      ],
      "stateMutability": "view",
      "type": "function"
    },
    {
      "inputs": [
        {
          "internalType": "address",
          "name": "token",
          "type": "address"
        },
        {
          "internalType": "uint256",
          "name": "amountInUsd",
          "type": "uint256"
        }
      ],
      "name": "getUsdToTokenPrice",
      "outputs": [
        {
          "internalType": "uint256",
          "name": "",
          "type": "uint256"
        }
      ],
      "stateMutability": "view",
      "type": "function"
    },
    {
      "inputs": [],
      "name": "i_ecoNovaToken",
      "outputs": [
        {
          "internalType": "contract EcoNovaToken",
          "name": "",
          "type": "address"
        }
      ],
      "stateMutability": "view",
      "type": "function"
    },
    {
      "inputs": [],
      "name": "i_ethIdentifier",
      "outputs": [
        {
          "internalType": "bytes20",
          "name": "",
          "type": "bytes20"
        }
      ],
      "stateMutability": "view",
      "type": "function"
    },
    {
      "inputs": [],
      "name": "owner",
      "outputs": [
        {
          "internalType": "address",
          "name": "",
          "type": "address"
        }
      ],
      "stateMutability": "view",
      "type": "function"
    },
    {
      "inputs": [
        {
          "internalType": "uint256",
          "name": "point",
          "type": "uint256"
        }
      ],
      "name": "redeemCode",
      "outputs": [
        {
          "internalType": "bool",
          "name": "success",
          "type": "bool"
        }
      ],
      "stateMutability": "nonpayable",
      "type": "function"
    },
    {
      "inputs": [],
      "name": "renounceOwnership",
      "outputs": [],
      "stateMutability": "nonpayable",
      "type": "function"
    },
    {
      "inputs": [
        {
          "internalType": "uint256",
          "name": "pointToAdd",
          "type": "uint256"
        },
        {
          "internalType": "uint256",
          "name": "userTwitterId",
          "type": "uint256"
        },
        {
          "internalType": "uint256",
          "name": "tweetId",
          "type": "uint256"
        },
        {
          "internalType": "bytes",
          "name": "",
          "type": "bytes"
        }
      ],
      "name": "testHash",
      "outputs": [
        {
          "internalType": "bytes32",
          "name": "message",
          "type": "bytes32"
        }
      ],
      "stateMutability": "view",
      "type": "function"
    },
    {
      "inputs": [
        {
          "internalType": "address",
          "name": "newOwner",
          "type": "address"
        }
      ],
      "name": "transferOwnership",
      "outputs": [],
      "stateMutability": "nonpayable",
      "type": "function"
    },
    {
      "inputs": [
        {
          "internalType": "address",
          "name": "_newBotAddress",
          "type": "address"
        }
      ],
      "name": "updateBotAddress",
      "outputs": [],
      "stateMutability": "nonpayable",
      "type": "function"
    },
    {
      "inputs": [
        {
          "internalType": "bytes32",
          "name": "",
          "type": "bytes32"
        }
      ],
      "name": "usedHashes",
      "outputs": [
        {
          "internalType": "bool",
          "name": "",
          "type": "bool"
        }
      ],
      "stateMutability": "view",
      "type": "function"
    },
    {
      "inputs": [
        {
          "internalType": "address",
          "name": "",
          "type": "address"
        }
      ],
      "name": "userDonations",
      "outputs": [
        {
          "internalType": "uint256",
          "name": "",
          "type": "uint256"
        }
      ],
      "stateMutability": "view",
      "type": "function"
    },
    {
      "inputs": [
        {
          "internalType": "address",
          "name": "",
          "type": "address"
        }
      ],
      "name": "userPoints",
      "outputs": [
        {
          "internalType": "uint256",
          "name": "points",
          "type": "uint256"
        },
        {
          "internalType": "uint256",
          "name": "updatedTimeStamp",
          "type": "uint256"
        },
        {
          "internalType": "uint256",
          "name": "createdTimeStamp",
          "type": "uint256"
        },
        {
          "internalType": "address",
          "name": "user",
          "type": "address"
        }
      ],
      "stateMutability": "view",
      "type": "function"
    },
    {
      "inputs": [
        {
          "internalType": "address",
          "name": "token",
          "type": "address"
        },
        {
          "internalType": "uint256",
          "name": "amount",
          "type": "uint256"
        }
      ],
      "name": "withdrawDonation",
      "outputs": [],
      "stateMutability": "nonpayable",
      "type": "function"
    }
  ],
  "bytecode": "0x60c06040527f45544800000000000000000000000000000000000000000000000000000000006bffffffffffffffffffffffff191660a0906bffffffffffffffffffffffff191681525034801561005557600080fd5b506040516166093803806166098339818101604052810190610077919061038f565b33600073ffffffffffffffffffffffffffffffffffffffff168173ffffffffffffffffffffffffffffffffffffffff16036100ea5760006040517f1e4fbdf70000000000000000000000000000000000000000000000000000000081526004016100e191906103de565b60405180910390fd5b6100f98161025b60201b60201c565b506040516101069061031f565b604051809103906000f080158015610122573d6000803e3d6000fd5b5073ffffffffffffffffffffffffffffffffffffffff1660808173ffffffffffffffffffffffffffffffffffffffff168152505081600760006101000a81548173ffffffffffffffffffffffffffffffffffffffff021916908373ffffffffffffffffffffffffffffffffffffffff16021790555080600660006101000a81548173ffffffffffffffffffffffffffffffffffffffff021916908373ffffffffffffffffffffffffffffffffffffffff1602179055508173ffffffffffffffffffffffffffffffffffffffff16600760009054906101000a900473ffffffffffffffffffffffffffffffffffffffff1673ffffffffffffffffffffffffffffffffffffffff167fe2a40a3ecdac841efaed7254cc3fd5ed86d08b13b22b4c4843a73e6052987fe960405160405180910390a350506103f9565b60008060009054906101000a900473ffffffffffffffffffffffffffffffffffffffff169050816000806101000a81548173ffffffffffffffffffffffffffffffffffffffff021916908373ffffffffffffffffffffffffffffffffffffffff1602179055508173ffffffffffffffffffffffffffffffffffffffff168173ffffffffffffffffffffffffffffffffffffffff167f8be0079c531659141344cd1fd0a4f28419497f9722a3daafe3b4186f6b6457e060405160405180910390a35050565b61148a8061517f83390190565b600080fd5b600073ffffffffffffffffffffffffffffffffffffffff82169050919050565b600061035c82610331565b9050919050565b61036c81610351565b811461037757600080fd5b50565b60008151905061038981610363565b92915050565b600080604083850312156103a6576103a561032c565b5b60006103b48582860161037a565b92505060206103c58582860161037a565b9150509250929050565b6103d881610351565b82525050565b60006020820190506103f360008301846103cf565b92915050565b60805160a051614d4c61043360003960008181610a140152610d1001526000818161096501528181611a8d0152611aca0152614d4c6000f3fe60806040526004361061014b5760003560e01c8063aef18bf7116100b6578063db0ce4471161006f578063db0ce44714610487578063e9a04974146104b0578063f11cddf6146104d9578063f2fde38b14610504578063f50ddbc71461052d578063fd1b61151461056d5761014b565b8063aef18bf714610372578063b7d02044146103af578063cc6cb19a146103d8578063d31306dd14610415578063d572666214610440578063d8dd5f411461045c5761014b565b8063715018a611610108578063715018a6146102745780638da5cb5b1461028b5780639fb6ef2e146102b6578063a734f06e146102f3578063add0afd61461031e578063ae0d1b81146103495761014b565b80630aa4991d14610150578063151cfba61461018d5780634523471c146101b65780634bf4f423146101f3578063534b03291461021e5780635b48d45614610249575b600080fd5b34801561015c57600080fd5b5061017760048036038101906101729190612028565b6105aa565b604051610184919061206e565b60405180910390f35b34801561019957600080fd5b506101b460048036038101906101af91906120b5565b6105c2565b005b3480156101c257600080fd5b506101dd60048036038101906101d89190612228565b6108ec565b6040516101ea91906122c4565b60405180910390f35b3480156101ff57600080fd5b50610208610938565b60405161021591906122ee565b60405180910390f35b34801561022a57600080fd5b5061023361095e565b604051610240919061206e565b60405180910390f35b34801561025557600080fd5b5061025e610963565b60405161026b9190612368565b60405180910390f35b34801561028057600080fd5b50610289610987565b005b34801561029757600080fd5b506102a061099b565b6040516102ad91906122ee565b60405180910390f35b3480156102c257600080fd5b506102dd60048036038101906102d89190612383565b6109c4565b6040516102ea919061206e565b60405180910390f35b3480156102ff57600080fd5b50610308610ae0565b60405161031591906122ee565b60405180910390f35b34801561032a57600080fd5b50610333610af8565b604051610340919061206e565b60405180910390f35b34801561035557600080fd5b50610370600480360381019061036b9190612028565b610b09565b005b34801561037e57600080fd5b50610399600480360381019061039491906123ef565b610c3d565b6040516103a69190612437565b60405180910390f35b3480156103bb57600080fd5b506103d660048036038101906103d1919061252c565b610c5d565b005b3480156103e457600080fd5b506103ff60048036038101906103fa9190612028565b610cf6565b60405161040c919061206e565b60405180910390f35b34801561042157600080fd5b5061042a610d0e565b6040516104379190612606565b60405180910390f35b61045a60048036038101906104559190612383565b610d32565b005b34801561046857600080fd5b50610471611167565b60405161047e919061206e565b60405180910390f35b34801561049357600080fd5b506104ae60048036038101906104a99190612228565b61116c565b005b3480156104bc57600080fd5b506104d760048036038101906104d29190612383565b61162e565b005b3480156104e557600080fd5b506104ee61185e565b6040516104fb919061206e565b60405180910390f35b34801561051057600080fd5b5061052b60048036038101906105269190612028565b611863565b005b34801561053957600080fd5b50610554600480360381019061054f9190612028565b6118e9565b6040516105649493929190612621565b60405180910390f35b34801561057957600080fd5b50610594600480360381019061058f91906120b5565b611939565b6040516105a19190612437565b60405180910390f35b60036020528060005260406000206000915090505481565b60006023826105d19190612695565b90506000600160003373ffffffffffffffffffffffffffffffffffffffff1673ffffffffffffffffffffffffffffffffffffffff1681526020019081526020016000206040518060800160405290816000820154815260200160018201548152602001600282015481526020016003820160009054906101000a900473ffffffffffffffffffffffffffffffffffffffff1673ffffffffffffffffffffffffffffffffffffffff1673ffffffffffffffffffffffffffffffffffffffff168152505090506000816000015111156107725781816000018181516106b491906126d7565b915081815250504281602001818152505080600160003373ffffffffffffffffffffffffffffffffffffffff1673ffffffffffffffffffffffffffffffffffffffff16815260200190815260200160002060008201518160000155602082015181600101556040820151816002015560608201518160030160006101000a81548173ffffffffffffffffffffffffffffffffffffffff021916908373ffffffffffffffffffffffffffffffffffffffff160217905550905050610857565b600060405180608001604052808481526020014281526020014281526020013373ffffffffffffffffffffffffffffffffffffffff16815250905080600160003373ffffffffffffffffffffffffffffffffffffffff1673ffffffffffffffffffffffffffffffffffffffff16815260200190815260200160002060008201518160000155602082015181600101556040820151816002015560608201518160030160006101000a81548173ffffffffffffffffffffffffffffffffffffffff021916908373ffffffffffffffffffffffffffffffffffffffff160217905550905050505b3373ffffffffffffffffffffffffffffffffffffffff167f0fe6fcb45adaaa54f7e3491f6a7964049817f1e437f33587e634a4629fbcf3a6600160003373ffffffffffffffffffffffffffffffffffffffff1673ffffffffffffffffffffffffffffffffffffffff168152602001908152602001600020600001546040516108df919061206e565b60405180910390a2505050565b600080338686866040516020016109069493929190612774565b604051602081830303815290604052805190602001209050600061092982611ca4565b90508092505050949350505050565b600660009054906101000a900473ffffffffffffffffffffffffffffffffffffffff1681565b602381565b7f000000000000000000000000000000000000000000000000000000000000000081565b61098f611cd4565b6109996000611d5b565b565b60008060009054906101000a900473ffffffffffffffffffffffffffffffffffffffff16905090565b600073eeeeeeeeeeeeeeeeeeeeeeeeeeeeeeeeeeeeeeee73ffffffffffffffffffffffffffffffffffffffff168373ffffffffffffffffffffffffffffffffffffffff1603610aa8576000610a387f0000000000000000000000000000000000000000000000000000000000000000611e1f565b9050600060129050600060129050600081600a610a5591906128f5565b83600a610a6291906128f5565b87610a6d9190612695565b610a779190612695565b9050600084905060008183610a8c919061296f565b9050606481610a9b919061296f565b9650505050505050610ada565b6040517f47f3469f00000000000000000000000000000000000000000000000000000000815260040160405180910390fd5b92915050565b73eeeeeeeeeeeeeeeeeeeeeeeeeeeeeeeeeeeeeeee81565b60026023610b069190612695565b81565b610b11611cd4565b600073ffffffffffffffffffffffffffffffffffffffff168173ffffffffffffffffffffffffffffffffffffffff1603610b77576040517fe012988a00000000000000000000000000000000000000000000000000000000815260040160405180910390fd5b6000600660009054906101000a900473ffffffffffffffffffffffffffffffffffffffff16905081600660006101000a81548173ffffffffffffffffffffffffffffffffffffffff021916908373ffffffffffffffffffffffffffffffffffffffff1602179055508173ffffffffffffffffffffffffffffffffffffffff168173ffffffffffffffffffffffffffffffffffffffff167f8f92dafbdfc7fad31b0a85cc9cc0f7121bd9ec12a37640055a866d43bb0e981a60405160405180910390a35050565b60046020528060005260406000206000915054906101000a900460ff1681565b600084848484604051610c6f90611fa9565b610c7c9493929190612a2e565b604051809103906000f080158015610c98573d6000803e3d6000fd5b5090508073ffffffffffffffffffffffffffffffffffffffff167f0b0bcdebd2813328a89a9ed5971e5863201ed78fc4e0e2b271cceddb9ce9051086868686604051610ce79493929190612a2e565b60405180910390a25050505050565b60026020528060005260406000206000915090505481565b7f000000000000000000000000000000000000000000000000000000000000000081565b60003390506000610d4384846109c4565b9050600061271060c8612710610d599190612a81565b83610d649190612695565b610d6e919061296f565b9050600061271060c8612710610d8491906126d7565b84610d8f9190612695565b610d99919061296f565b905073eeeeeeeeeeeeeeeeeeeeeeeeeeeeeeeeeeeeeeee73ffffffffffffffffffffffffffffffffffffffff168673ffffffffffffffffffffffffffffffffffffffff1603610ee75781341080610def57508034115b15610e26576040517ffb96dce700000000000000000000000000000000000000000000000000000000815260040160405180910390fd5b346002600073eeeeeeeeeeeeeeeeeeeeeeeeeeeeeeeeeeeeeeee73ffffffffffffffffffffffffffffffffffffffff1673ffffffffffffffffffffffffffffffffffffffff1681526020019081526020016000206000828254610e8991906126d7565b9250508190555034600360008673ffffffffffffffffffffffffffffffffffffffff1673ffffffffffffffffffffffffffffffffffffffff1681526020019081526020016000206000828254610edf91906126d7565b925050819055505b6000606460026023610ef99190612695565b87610f049190612695565b610f0e919061296f565b90506000600160008773ffffffffffffffffffffffffffffffffffffffff1673ffffffffffffffffffffffffffffffffffffffff1681526020019081526020016000209050600081600001541115610f895781816000016000828254610f7491906126d7565b92505081905550428160010181905550611068565b60405180608001604052808381526020014281526020014281526020018773ffffffffffffffffffffffffffffffffffffffff16815250600160008873ffffffffffffffffffffffffffffffffffffffff1673ffffffffffffffffffffffffffffffffffffffff16815260200190815260200160002060008201518160000155602082015181600101556040820151816002015560608201518160030160006101000a81548173ffffffffffffffffffffffffffffffffffffffff021916908373ffffffffffffffffffffffffffffffffffffffff1602179055509050505b8573ffffffffffffffffffffffffffffffffffffffff167f0fe6fcb45adaaa54f7e3491f6a7964049817f1e437f33587e634a4629fbcf3a6600160008973ffffffffffffffffffffffffffffffffffffffff1673ffffffffffffffffffffffffffffffffffffffff168152602001908152602001600020600001546040516110f0919061206e565b60405180910390a28773ffffffffffffffffffffffffffffffffffffffff168673ffffffffffffffffffffffffffffffffffffffff167f4dfff917e1fbb261a082e98cc7d43029621f6a6eb05ff3fef1510d5f1eb4857c87604051611155919061206e565b60405180910390a35050505050505050565b606481565b6000338585856040516020016111859493929190612774565b60405160208183030381529060405280519060200120905060006111a882611ca4565b905060056000868152602001908152602001600020600085815260200190815260200160002060009054906101000a900460ff1615611213576040517f8f32d76800000000000000000000000000000000000000000000000000000000815260040160405180910390fd5b6004600083815260200190815260200160002060009054906101000a900460ff161561126a576040517e1360cc00000000000000000000000000000000000000000000000000000000815260040160405180910390fd5b600660009054906101000a900473ffffffffffffffffffffffffffffffffffffffff1673ffffffffffffffffffffffffffffffffffffffff166112ad8285611eca565b73ffffffffffffffffffffffffffffffffffffffff16146112fa576040517f6083dc0200000000000000000000000000000000000000000000000000000000815260040160405180910390fd5b60016004600084815260200190815260200160002060006101000a81548160ff021916908315150217905550600160056000878152602001908152602001600020600086815260200190815260200160002060006101000a81548160ff02191690831515021790555060006023876113729190612695565b90506000600160003373ffffffffffffffffffffffffffffffffffffffff1673ffffffffffffffffffffffffffffffffffffffff16815260200190815260200160002090506000816000015411156114b557818160000160008282546113d891906126d7565b9250508190555042816001018190555080600160003373ffffffffffffffffffffffffffffffffffffffff1673ffffffffffffffffffffffffffffffffffffffff1681526020019081526020016000206000820154816000015560018201548160010155600282015481600201556003820160009054906101000a900473ffffffffffffffffffffffffffffffffffffffff168160030160006101000a81548173ffffffffffffffffffffffffffffffffffffffff021916908373ffffffffffffffffffffffffffffffffffffffff160217905550905050611594565b60405180608001604052808381526020014281526020014281526020013373ffffffffffffffffffffffffffffffffffffffff16815250600160003373ffffffffffffffffffffffffffffffffffffffff1673ffffffffffffffffffffffffffffffffffffffff16815260200190815260200160002060008201518160000155602082015181600101556040820151816002015560608201518160030160006101000a81548173ffffffffffffffffffffffffffffffffffffffff021916908373ffffffffffffffffffffffffffffffffffffffff1602179055509050505b3373ffffffffffffffffffffffffffffffffffffffff167f0fe6fcb45adaaa54f7e3491f6a7964049817f1e437f33587e634a4629fbcf3a6600160003373ffffffffffffffffffffffffffffffffffffffff1673ffffffffffffffffffffffffffffffffffffffff1681526020019081526020016000206000015460405161161c919061206e565b60405180910390a25050505050505050565b611636611cd4565b73eeeeeeeeeeeeeeeeeeeeeeeeeeeeeeeeeeeeeeee73ffffffffffffffffffffffffffffffffffffffff168273ffffffffffffffffffffffffffffffffffffffff160361176757804710156116b7576040517f6f2bff0c00000000000000000000000000000000000000000000000000000000815260040160405180910390fd5b60006116c161099b565b73ffffffffffffffffffffffffffffffffffffffff16826040516116e490612ae6565b60006040518083038185875af1925050503d8060008114611721576040519150601f19603f3d011682016040523d82523d6000602084013e611726565b606091505b5050905080611761576040517f8ce0f0fa00000000000000000000000000000000000000000000000000000000815260040160405180910390fd5b506117ee565b8173ffffffffffffffffffffffffffffffffffffffff1663a9059cbb61178b61099b565b836040518363ffffffff1660e01b81526004016117a9929190612afb565b6020604051808303816000875af11580156117c8573d6000803e3d6000fd5b505050506040513d601f19601f820116820180604052508101906117ec9190612b50565b505b8173ffffffffffffffffffffffffffffffffffffffff1661180d61099b565b73ffffffffffffffffffffffffffffffffffffffff167fe0b49f3bb212a1e1e3941a66b759936ca6d5535a46f3894e037e3712a6f0cecb83604051611852919061206e565b60405180910390a35050565b60c881565b61186b611cd4565b600073ffffffffffffffffffffffffffffffffffffffff168173ffffffffffffffffffffffffffffffffffffffff16036118dd5760006040517f1e4fbdf70000000000000000000000000000000000000000000000000000000081526004016118d491906122ee565b60405180910390fd5b6118e681611d5b565b50565b60016020528060005260406000206000915090508060000154908060010154908060020154908060030160009054906101000a900473ffffffffffffffffffffffffffffffffffffffff16905084565b600080600160003373ffffffffffffffffffffffffffffffffffffffff1673ffffffffffffffffffffffffffffffffffffffff16815260200190815260200160002060000154036119b6576040517fbf67098f00000000000000000000000000000000000000000000000000000000815260040160405180910390fd5b81600160003373ffffffffffffffffffffffffffffffffffffffff1673ffffffffffffffffffffffffffffffffffffffff168152602001908152602001600020600001541015611a32576040517fbf67098f00000000000000000000000000000000000000000000000000000000815260040160405180910390fd5b81600160003373ffffffffffffffffffffffffffffffffffffffff1673ffffffffffffffffffffffffffffffffffffffff1681526020019081526020016000206000016000828254611a849190612a81565b925050819055507f000000000000000000000000000000000000000000000000000000000000000073ffffffffffffffffffffffffffffffffffffffff166340c10f19337f000000000000000000000000000000000000000000000000000000000000000073ffffffffffffffffffffffffffffffffffffffff1663313ce5676040518163ffffffff1660e01b8152600401602060405180830381865afa158015611b33573d6000803e3d6000fd5b505050506040513d601f19601f82011682018060405250810190611b579190612b92565b600a611b6391906128f5565b85611b6e9190612695565b6040518363ffffffff1660e01b8152600401611b8b929190612afb565b600060405180830381600087803b158015611ba557600080fd5b505af1158015611bb9573d6000803e3d6000fd5b505050503373ffffffffffffffffffffffffffffffffffffffff167fc37df5d14f305277c1289e9a188a097cda6684189c95f785feb056cb77a8c91083604051611c03919061206e565b60405180910390a23373ffffffffffffffffffffffffffffffffffffffff167f0fe6fcb45adaaa54f7e3491f6a7964049817f1e437f33587e634a4629fbcf3a6600160003373ffffffffffffffffffffffffffffffffffffffff1673ffffffffffffffffffffffffffffffffffffffff16815260200190815260200160002060000154604051611c93919061206e565b60405180910390a260019050919050565b600081604051602001611cb79190612c37565b604051602081830303815290604052805190602001209050919050565b611cdc611f39565b73ffffffffffffffffffffffffffffffffffffffff16611cfa61099b565b73ffffffffffffffffffffffffffffffffffffffff1614611d5957611d1d611f39565b6040517f118cdaa7000000000000000000000000000000000000000000000000000000008152600401611d5091906122ee565b60405180910390fd5b565b60008060009054906101000a900473ffffffffffffffffffffffffffffffffffffffff169050816000806101000a81548173ffffffffffffffffffffffffffffffffffffffff021916908373ffffffffffffffffffffffffffffffffffffffff1602179055508173ffffffffffffffffffffffffffffffffffffffff168173ffffffffffffffffffffffffffffffffffffffff167f8be0079c531659141344cd1fd0a4f28419497f9722a3daafe3b4186f6b6457e060405160405180910390a35050565b6000600760009054906101000a900473ffffffffffffffffffffffffffffffffffffffff1673ffffffffffffffffffffffffffffffffffffffff166359fd3afe6001846040518363ffffffff1660e01b8152600401611e7f929190612ca8565b602060405180830381865afa158015611e9c573d6000803e3d6000fd5b505050506040513d601f19601f82011682018060405250810190611ec09190612ce6565b60001c9050919050565b600080600080611ed985611f41565b92509250925060018682858560405160008152602001604052604051611f029493929190612d13565b6020604051602081039080840390855afa158015611f24573d6000803e3d6000fd5b50505060206040510351935050505092915050565b600033905090565b60008060006041845114611f8a576040517f08c379a0000000000000000000000000000000000000000000000000000000008152600401611f8190612da4565b60405180910390fd5b6020840151925060408401519150606084015160001a90509193909250565b611f5280612dc583390190565b6000604051905090565b600080fd5b600080fd5b600073ffffffffffffffffffffffffffffffffffffffff82169050919050565b6000611ff582611fca565b9050919050565b61200581611fea565b811461201057600080fd5b50565b60008135905061202281611ffc565b92915050565b60006020828403121561203e5761203d611fc0565b5b600061204c84828501612013565b91505092915050565b6000819050919050565b61206881612055565b82525050565b6000602082019050612083600083018461205f565b92915050565b61209281612055565b811461209d57600080fd5b50565b6000813590506120af81612089565b92915050565b6000602082840312156120cb576120ca611fc0565b5b60006120d9848285016120a0565b91505092915050565b600080fd5b600080fd5b6000601f19601f8301169050919050565b7f4e487b7100000000000000000000000000000000000000000000000000000000600052604160045260246000fd5b612135826120ec565b810181811067ffffffffffffffff82111715612154576121536120fd565b5b80604052505050565b6000612167611fb6565b9050612173828261212c565b919050565b600067ffffffffffffffff821115612193576121926120fd565b5b61219c826120ec565b9050602081019050919050565b82818337600083830152505050565b60006121cb6121c684612178565b61215d565b9050828152602081018484840111156121e7576121e66120e7565b5b6121f28482856121a9565b509392505050565b600082601f83011261220f5761220e6120e2565b5b813561221f8482602086016121b8565b91505092915050565b6000806000806080858703121561224257612241611fc0565b5b6000612250878288016120a0565b9450506020612261878288016120a0565b9350506040612272878288016120a0565b925050606085013567ffffffffffffffff81111561229357612292611fc5565b5b61229f878288016121fa565b91505092959194509250565b6000819050919050565b6122be816122ab565b82525050565b60006020820190506122d960008301846122b5565b92915050565b6122e881611fea565b82525050565b600060208201905061230360008301846122df565b92915050565b6000819050919050565b600061232e61232961232484611fca565b612309565b611fca565b9050919050565b600061234082612313565b9050919050565b600061235282612335565b9050919050565b61236281612347565b82525050565b600060208201905061237d6000830184612359565b92915050565b6000806040838503121561239a57612399611fc0565b5b60006123a885828601612013565b92505060206123b9858286016120a0565b9150509250929050565b6123cc816122ab565b81146123d757600080fd5b50565b6000813590506123e9816123c3565b92915050565b60006020828403121561240557612404611fc0565b5b6000612413848285016123da565b91505092915050565b60008115159050919050565b6124318161241c565b82525050565b600060208201905061244c6000830184612428565b92915050565b600067ffffffffffffffff82111561246d5761246c6120fd565b5b612476826120ec565b9050602081019050919050565b600061249661249184612452565b61215d565b9050828152602081018484840111156124b2576124b16120e7565b5b6124bd8482856121a9565b509392505050565b600082601f8301126124da576124d96120e2565b5b81356124ea848260208601612483565b91505092915050565b600060ff82169050919050565b612509816124f3565b811461251457600080fd5b50565b60008135905061252681612500565b92915050565b6000806000806080858703121561254657612545611fc0565b5b600085013567ffffffffffffffff81111561256457612563611fc5565b5b612570878288016124c5565b945050602085013567ffffffffffffffff81111561259157612590611fc5565b5b61259d878288016124c5565b93505060406125ae87828801612517565b92505060606125bf878288016120a0565b91505092959194509250565b60007fffffffffffffffffffffffffffffffffffffffff00000000000000000000000082169050919050565b612600816125cb565b82525050565b600060208201905061261b60008301846125f7565b92915050565b6000608082019050612636600083018761205f565b612643602083018661205f565b612650604083018561205f565b61265d60608301846122df565b95945050505050565b7f4e487b7100000000000000000000000000000000000000000000000000000000600052601160045260246000fd5b60006126a082612055565b91506126ab83612055565b92508282026126b981612055565b915082820484148315176126d0576126cf612666565b5b5092915050565b60006126e282612055565b91506126ed83612055565b925082820190508082111561270557612704612666565b5b92915050565b60008160601b9050919050565b60006127238261270b565b9050919050565b600061273582612718565b9050919050565b61274d61274882611fea565b61272a565b82525050565b6000819050919050565b61276e61276982612055565b612753565b82525050565b6000612780828761273c565b601482019150612790828661275d565b6020820191506127a0828561275d565b6020820191506127b0828461275d565b60208201915081905095945050505050565b60008160011c9050919050565b6000808291508390505b6001851115612819578086048111156127f5576127f4612666565b5b60018516156128045780820291505b8081029050612812856127c2565b94506127d9565b94509492505050565b60008261283257600190506128ee565b8161284057600090506128ee565b816001811461285657600281146128605761288f565b60019150506128ee565b60ff84111561287257612871612666565b5b8360020a91508482111561288957612888612666565b5b506128ee565b5060208310610133831016604e8410600b84101617156128c45782820a9050838111156128bf576128be612666565b5b6128ee565b6128d184848460016127cf565b925090508184048111156128e8576128e7612666565b5b81810290505b9392505050565b600061290082612055565b915061290b836124f3565b92506129387fffffffffffffffffffffffffffffffffffffffffffffffffffffffffffffffff8484612822565b905092915050565b7f4e487b7100000000000000000000000000000000000000000000000000000000600052601260045260246000fd5b600061297a82612055565b915061298583612055565b92508261299557612994612940565b5b828204905092915050565b600081519050919050565b600082825260208201905092915050565b60005b838110156129da5780820151818401526020810190506129bf565b60008484015250505050565b60006129f1826129a0565b6129fb81856129ab565b9350612a0b8185602086016129bc565b612a14816120ec565b840191505092915050565b612a28816124f3565b82525050565b60006080820190508181036000830152612a4881876129e6565b90508181036020830152612a5c81866129e6565b9050612a6b6040830185612a1f565b612a78606083018461205f565b95945050505050565b6000612a8c82612055565b9150612a9783612055565b9250828203905081811115612aaf57612aae612666565b5b92915050565b600081905092915050565b50565b6000612ad0600083612ab5565b9150612adb82612ac0565b600082019050919050565b6000612af182612ac3565b9150819050919050565b6000604082019050612b1060008301856122df565b612b1d602083018461205f565b9392505050565b612b2d8161241c565b8114612b3857600080fd5b50565b600081519050612b4a81612b24565b92915050565b600060208284031215612b6657612b65611fc0565b5b6000612b7484828501612b3b565b91505092915050565b600081519050612b8c81612500565b92915050565b600060208284031215612ba857612ba7611fc0565b5b6000612bb684828501612b7d565b91505092915050565b600081905092915050565b7f19457468657265756d205369676e6564204d6573736167653a0a333200000000600082015250565b6000612c00601c83612bbf565b9150612c0b82612bca565b601c82019050919050565b6000819050919050565b612c31612c2c826122ab565b612c16565b82525050565b6000612c4282612bf3565b9150612c4e8284612c20565b60208201915081905092915050565b6000819050919050565b600063ffffffff82169050919050565b6000612c92612c8d612c8884612c5d565b612309565b612c67565b9050919050565b612ca281612c77565b82525050565b6000604082019050612cbd6000830185612c99565b612cca60208301846125f7565b9392505050565b600081519050612ce0816123c3565b92915050565b600060208284031215612cfc57612cfb611fc0565b5b6000612d0a84828501612cd1565b91505092915050565b6000608082019050612d2860008301876122b5565b612d356020830186612a1f565b612d4260408301856122b5565b612d4f60608301846122b5565b95945050505050565b7f496e76616c6964207369676e6174757265206c656e6774680000000000000000600082015250565b6000612d8e6018836129ab565b9150612d9982612d58565b602082019050919050565b60006020820190508181036000830152612dbd81612d81565b905091905056fe60a060405234801561001057600080fd5b50604051611f52380380611f5283398181016040528101906100329190610578565b83838160039081610043919061082e565b508060049081610053919061082e565b5050503373ffffffffffffffffffffffffffffffffffffffff1660808173ffffffffffffffffffffffffffffffffffffffff168152505081600560006101000a81548160ff021916908360ff1602179055506100de33600560009054906101000a900460ff1660ff16600a6100c89190610a62565b836100d39190610aad565b6100e760201b60201c565b50505050610be0565b600073ffffffffffffffffffffffffffffffffffffffff168273ffffffffffffffffffffffffffffffffffffffff16036101595760006040517fec442f050000000000000000000000000000000000000000000000000000000081526004016101509190610b30565b60405180910390fd5b61016b6000838361016f60201b60201c565b5050565b600073ffffffffffffffffffffffffffffffffffffffff168373ffffffffffffffffffffffffffffffffffffffff16036101c15780600260008282546101b59190610b4b565b92505081905550610294565b60008060008573ffffffffffffffffffffffffffffffffffffffff1673ffffffffffffffffffffffffffffffffffffffff1681526020019081526020016000205490508181101561024d578381836040517fe450d38c00000000000000000000000000000000000000000000000000000000815260040161024493929190610b8e565b60405180910390fd5b8181036000808673ffffffffffffffffffffffffffffffffffffffff1673ffffffffffffffffffffffffffffffffffffffff16815260200190815260200160002081905550505b600073ffffffffffffffffffffffffffffffffffffffff168273ffffffffffffffffffffffffffffffffffffffff16036102dd578060026000828254039250508190555061032a565b806000808473ffffffffffffffffffffffffffffffffffffffff1673ffffffffffffffffffffffffffffffffffffffff168152602001908152602001600020600082825401925050819055505b8173ffffffffffffffffffffffffffffffffffffffff168373ffffffffffffffffffffffffffffffffffffffff167fddf252ad1be2c89b69c2b068fc378daa952ba7f163c4a11628f55a4df523b3ef836040516103879190610bc5565b60405180910390a3505050565b6000604051905090565b600080fd5b600080fd5b600080fd5b600080fd5b6000601f19601f8301169050919050565b7f4e487b7100000000000000000000000000000000000000000000000000000000600052604160045260246000fd5b6103fb826103b2565b810181811067ffffffffffffffff8211171561041a576104196103c3565b5b80604052505050565b600061042d610394565b905061043982826103f2565b919050565b600067ffffffffffffffff821115610459576104586103c3565b5b610462826103b2565b9050602081019050919050565b60005b8381101561048d578082015181840152602081019050610472565b60008484015250505050565b60006104ac6104a78461043e565b610423565b9050828152602081018484840111156104c8576104c76103ad565b5b6104d384828561046f565b509392505050565b600082601f8301126104f0576104ef6103a8565b5b8151610500848260208601610499565b91505092915050565b600060ff82169050919050565b61051f81610509565b811461052a57600080fd5b50565b60008151905061053c81610516565b92915050565b6000819050919050565b61055581610542565b811461056057600080fd5b50565b6000815190506105728161054c565b92915050565b600080600080608085870312156105925761059161039e565b5b600085015167ffffffffffffffff8111156105b0576105af6103a3565b5b6105bc878288016104db565b945050602085015167ffffffffffffffff8111156105dd576105dc6103a3565b5b6105e9878288016104db565b93505060406105fa8782880161052d565b925050606061060b87828801610563565b91505092959194509250565b600081519050919050565b7f4e487b7100000000000000000000000000000000000000000000000000000000600052602260045260246000fd5b6000600282049050600182168061066957607f821691505b60208210810361067c5761067b610622565b5b50919050565b60008190508160005260206000209050919050565b60006020601f8301049050919050565b600082821b905092915050565b6000600883026106e47fffffffffffffffffffffffffffffffffffffffffffffffffffffffffffffffff826106a7565b6106ee86836106a7565b95508019841693508086168417925050509392505050565b6000819050919050565b600061072b61072661072184610542565b610706565b610542565b9050919050565b6000819050919050565b61074583610710565b61075961075182610732565b8484546106b4565b825550505050565b600090565b61076e610761565b61077981848461073c565b505050565b5b8181101561079d57610792600082610766565b60018101905061077f565b5050565b601f8211156107e2576107b381610682565b6107bc84610697565b810160208510156107cb578190505b6107df6107d785610697565b83018261077e565b50505b505050565b600082821c905092915050565b6000610805600019846008026107e7565b1980831691505092915050565b600061081e83836107f4565b9150826002028217905092915050565b61083782610617565b67ffffffffffffffff8111156108505761084f6103c3565b5b61085a8254610651565b6108658282856107a1565b600060209050601f8311600181146108985760008415610886578287015190505b6108908582610812565b8655506108f8565b601f1984166108a686610682565b60005b828110156108ce578489015182556001820191506020850194506020810190506108a9565b868310156108eb57848901516108e7601f8916826107f4565b8355505b6001600288020188555050505b505050505050565b7f4e487b7100000000000000000000000000000000000000000000000000000000600052601160045260246000fd5b60008160011c9050919050565b6000808291508390505b60018511156109865780860481111561096257610961610900565b5b60018516156109715780820291505b808102905061097f8561092f565b9450610946565b94509492505050565b60008261099f5760019050610a5b565b816109ad5760009050610a5b565b81600181146109c357600281146109cd576109fc565b6001915050610a5b565b60ff8411156109df576109de610900565b5b8360020a9150848211156109f6576109f5610900565b5b50610a5b565b5060208310610133831016604e8410600b8410161715610a315782820a905083811115610a2c57610a2b610900565b5b610a5b565b610a3e848484600161093c565b92509050818404811115610a5557610a54610900565b5b81810290505b9392505050565b6000610a6d82610542565b9150610a7883610542565b9250610aa57fffffffffffffffffffffffffffffffffffffffffffffffffffffffffffffffff848461098f565b905092915050565b6000610ab882610542565b9150610ac383610542565b9250828202610ad181610542565b91508282048414831517610ae857610ae7610900565b5b5092915050565b600073ffffffffffffffffffffffffffffffffffffffff82169050919050565b6000610b1a82610aef565b9050919050565b610b2a81610b0f565b82525050565b6000602082019050610b456000830184610b21565b92915050565b6000610b5682610542565b9150610b6183610542565b9250828201905080821115610b7957610b78610900565b5b92915050565b610b8881610542565b82525050565b6000606082019050610ba36000830186610b21565b610bb06020830185610b7f565b610bbd6040830184610b7f565b949350505050565b6000602082019050610bda6000830184610b7f565b92915050565b608051611350610c026000396000818161036701526103ee01526113506000f3fe608060405234801561001057600080fd5b50600436106100cf5760003560e01c8063313ce5671161008c57806370a082311161006657806370a082311461020257806395d89b4114610232578063a9059cbb14610250578063dd62ed3e14610280576100cf565b8063313ce567146101ac57806340c10f19146101ca57806342966c68146101e6576100cf565b806306fdde03146100d4578063095ea7b3146100f2578063117803e31461012257806318160ddd1461014057806323b872dd1461015e5780632e0f26251461018e575b600080fd5b6100dc6102b0565b6040516100e99190610db7565b60405180910390f35b61010c60048036038101906101079190610e72565b610342565b6040516101199190610ecd565b60405180910390f35b61012a610365565b6040516101379190610ef7565b60405180910390f35b610148610389565b6040516101559190610f21565b60405180910390f35b61017860048036038101906101739190610f3c565b610393565b6040516101859190610ecd565b60405180910390f35b6101966103c2565b6040516101a39190610fab565b60405180910390f35b6101b46103d5565b6040516101c19190610fab565b60405180910390f35b6101e460048036038101906101df9190610e72565b6103ec565b005b61020060048036038101906101fb9190610fc6565b6104f3565b005b61021c60048036038101906102179190610ff3565b610500565b6040516102299190610f21565b60405180910390f35b61023a610548565b6040516102479190610db7565b60405180910390f35b61026a60048036038101906102659190610e72565b6105da565b6040516102779190610ecd565b60405180910390f35b61029a60048036038101906102959190611020565b6105fd565b6040516102a79190610f21565b60405180910390f35b6060600380546102bf9061108f565b80601f01602080910402602001604051908101604052809291908181526020018280546102eb9061108f565b80156103385780601f1061030d57610100808354040283529160200191610338565b820191906000526020600020905b81548152906001019060200180831161031b57829003601f168201915b5050505050905090565b60008061034d610684565b905061035a81858561068c565b600191505092915050565b7f000000000000000000000000000000000000000000000000000000000000000081565b6000600254905090565b60008061039e610684565b90506103ab85828561069e565b6103b6858585610733565b60019150509392505050565b600560009054906101000a900460ff1681565b6000600560009054906101000a900460ff16905090565b7f000000000000000000000000000000000000000000000000000000000000000073ffffffffffffffffffffffffffffffffffffffff163373ffffffffffffffffffffffffffffffffffffffff1614610471576040517f211a7c6100000000000000000000000000000000000000000000000000000000815260040160405180910390fd5b600061047b6103d5565b600a6104879190611222565b6301406f40610496919061126d565b905080826104a2610389565b6104ac91906112af565b11156104e4576040517f680595bd00000000000000000000000000000000000000000000000000000000815260040160405180910390fd5b6104ee8383610827565b505050565b6104fd33826108a9565b50565b60008060008373ffffffffffffffffffffffffffffffffffffffff1673ffffffffffffffffffffffffffffffffffffffff168152602001908152602001600020549050919050565b6060600480546105579061108f565b80601f01602080910402602001604051908101604052809291908181526020018280546105839061108f565b80156105d05780601f106105a5576101008083540402835291602001916105d0565b820191906000526020600020905b8154815290600101906020018083116105b357829003601f168201915b5050505050905090565b6000806105e5610684565b90506105f2818585610733565b600191505092915050565b6000600160008473ffffffffffffffffffffffffffffffffffffffff1673ffffffffffffffffffffffffffffffffffffffff16815260200190815260200160002060008373ffffffffffffffffffffffffffffffffffffffff1673ffffffffffffffffffffffffffffffffffffffff16815260200190815260200160002054905092915050565b600033905090565b610699838383600161092b565b505050565b60006106aa84846105fd565b90507fffffffffffffffffffffffffffffffffffffffffffffffffffffffffffffffff81101561072d578181101561071d578281836040517ffb8f41b2000000000000000000000000000000000000000000000000000000008152600401610714939291906112e3565b60405180910390fd5b61072c8484848403600061092b565b5b50505050565b600073ffffffffffffffffffffffffffffffffffffffff168373ffffffffffffffffffffffffffffffffffffffff16036107a55760006040517f96c6fd1e00000000000000000000000000000000000000000000000000000000815260040161079c9190610ef7565b60405180910390fd5b600073ffffffffffffffffffffffffffffffffffffffff168273ffffffffffffffffffffffffffffffffffffffff16036108175760006040517fec442f0500000000000000000000000000000000000000000000000000000000815260040161080e9190610ef7565b60405180910390fd5b610822838383610b02565b505050565b600073ffffffffffffffffffffffffffffffffffffffff168273ffffffffffffffffffffffffffffffffffffffff16036108995760006040517fec442f050000000000000000000000000000000000000000000000000000000081526004016108909190610ef7565b60405180910390fd5b6108a560008383610b02565b5050565b600073ffffffffffffffffffffffffffffffffffffffff168273ffffffffffffffffffffffffffffffffffffffff160361091b5760006040517f96c6fd1e0000000000000000000000000000000000000000000000000000000081526004016109129190610ef7565b60405180910390fd5b61092782600083610b02565b5050565b600073ffffffffffffffffffffffffffffffffffffffff168473ffffffffffffffffffffffffffffffffffffffff160361099d5760006040517fe602df050000000000000000000000000000000000000000000000000000000081526004016109949190610ef7565b60405180910390fd5b600073ffffffffffffffffffffffffffffffffffffffff168373ffffffffffffffffffffffffffffffffffffffff1603610a0f5760006040517f94280d62000000000000000000000000000000000000000000000000000000008152600401610a069190610ef7565b60405180910390fd5b81600160008673ffffffffffffffffffffffffffffffffffffffff1673ffffffffffffffffffffffffffffffffffffffff16815260200190815260200160002060008573ffffffffffffffffffffffffffffffffffffffff1673ffffffffffffffffffffffffffffffffffffffff168152602001908152602001600020819055508015610afc578273ffffffffffffffffffffffffffffffffffffffff168473ffffffffffffffffffffffffffffffffffffffff167f8c5be1e5ebec7d5bd14f71427d1e84f3dd0314c0f7b2291e5b200ac8c7c3b92584604051610af39190610f21565b60405180910390a35b50505050565b600073ffffffffffffffffffffffffffffffffffffffff168373ffffffffffffffffffffffffffffffffffffffff1603610b54578060026000828254610b4891906112af565b92505081905550610c27565b60008060008573ffffffffffffffffffffffffffffffffffffffff1673ffffffffffffffffffffffffffffffffffffffff16815260200190815260200160002054905081811015610be0578381836040517fe450d38c000000000000000000000000000000000000000000000000000000008152600401610bd7939291906112e3565b60405180910390fd5b8181036000808673ffffffffffffffffffffffffffffffffffffffff1673ffffffffffffffffffffffffffffffffffffffff16815260200190815260200160002081905550505b600073ffffffffffffffffffffffffffffffffffffffff168273ffffffffffffffffffffffffffffffffffffffff1603610c705780600260008282540392505081905550610cbd565b806000808473ffffffffffffffffffffffffffffffffffffffff1673ffffffffffffffffffffffffffffffffffffffff168152602001908152602001600020600082825401925050819055505b8173ffffffffffffffffffffffffffffffffffffffff168373ffffffffffffffffffffffffffffffffffffffff167fddf252ad1be2c89b69c2b068fc378daa952ba7f163c4a11628f55a4df523b3ef83604051610d1a9190610f21565b60405180910390a3505050565b600081519050919050565b600082825260208201905092915050565b60005b83811015610d61578082015181840152602081019050610d46565b60008484015250505050565b6000601f19601f8301169050919050565b6000610d8982610d27565b610d938185610d32565b9350610da3818560208601610d43565b610dac81610d6d565b840191505092915050565b60006020820190508181036000830152610dd18184610d7e565b905092915050565b600080fd5b600073ffffffffffffffffffffffffffffffffffffffff82169050919050565b6000610e0982610dde565b9050919050565b610e1981610dfe565b8114610e2457600080fd5b50565b600081359050610e3681610e10565b92915050565b6000819050919050565b610e4f81610e3c565b8114610e5a57600080fd5b50565b600081359050610e6c81610e46565b92915050565b60008060408385031215610e8957610e88610dd9565b5b6000610e9785828601610e27565b9250506020610ea885828601610e5d565b9150509250929050565b60008115159050919050565b610ec781610eb2565b82525050565b6000602082019050610ee26000830184610ebe565b92915050565b610ef181610dfe565b82525050565b6000602082019050610f0c6000830184610ee8565b92915050565b610f1b81610e3c565b82525050565b6000602082019050610f366000830184610f12565b92915050565b600080600060608486031215610f5557610f54610dd9565b5b6000610f6386828701610e27565b9350506020610f7486828701610e27565b9250506040610f8586828701610e5d565b9150509250925092565b600060ff82169050919050565b610fa581610f8f565b82525050565b6000602082019050610fc06000830184610f9c565b92915050565b600060208284031215610fdc57610fdb610dd9565b5b6000610fea84828501610e5d565b91505092915050565b60006020828403121561100957611008610dd9565b5b600061101784828501610e27565b91505092915050565b6000806040838503121561103757611036610dd9565b5b600061104585828601610e27565b925050602061105685828601610e27565b9150509250929050565b7f4e487b7100000000000000000000000000000000000000000000000000000000600052602260045260246000fd5b600060028204905060018216806110a757607f821691505b6020821081036110ba576110b9611060565b5b50919050565b7f4e487b7100000000000000000000000000000000000000000000000000000000600052601160045260246000fd5b60008160011c9050919050565b6000808291508390505b600185111561114657808604811115611122576111216110c0565b5b60018516156111315780820291505b808102905061113f856110ef565b9450611106565b94509492505050565b60008261115f576001905061121b565b8161116d576000905061121b565b8160018114611183576002811461118d576111bc565b600191505061121b565b60ff84111561119f5761119e6110c0565b5b8360020a9150848211156111b6576111b56110c0565b5b5061121b565b5060208310610133831016604e8410600b84101617156111f15782820a9050838111156111ec576111eb6110c0565b5b61121b565b6111fe84848460016110fc565b92509050818404811115611215576112146110c0565b5b81810290505b9392505050565b600061122d82610e3c565b915061123883610f8f565b92506112657fffffffffffffffffffffffffffffffffffffffffffffffffffffffffffffffff848461114f565b905092915050565b600061127882610e3c565b915061128383610e3c565b925082820261129181610e3c565b915082820484148315176112a8576112a76110c0565b5b5092915050565b60006112ba82610e3c565b91506112c583610e3c565b92508282019050808211156112dd576112dc6110c0565b5b92915050565b60006060820190506112f86000830186610ee8565b6113056020830185610f12565b6113126040830184610f12565b94935050505056fea2646970667358221220d0979a68f7ebff2283ac1bfc73bda565f68772e673f8dbe10b538343b8a9829164736f6c634300081c0033a2646970667358221220467e5eda2a304f5406f9b2fc5c02d786f958dcdf0d369c9532aee33023814bb564736f6c634300081c003360a060405234801561001057600080fd5b506040518060400160405280600c81526020017f45636f4e6f7661546f6b656e00000000000000000000000000000000000000008152506040518060400160405280600381526020017f454e540000000000000000000000000000000000000000000000000000000000815250816003908161008c9190610328565b50806004908161009c9190610328565b5050503373ffffffffffffffffffffffffffffffffffffffff1660808173ffffffffffffffffffffffffffffffffffffffff16815250506103fa565b600081519050919050565b7f4e487b7100000000000000000000000000000000000000000000000000000000600052604160045260246000fd5b7f4e487b7100000000000000000000000000000000000000000000000000000000600052602260045260246000fd5b6000600282049050600182168061015957607f821691505b60208210810361016c5761016b610112565b5b50919050565b60008190508160005260206000209050919050565b60006020601f8301049050919050565b600082821b905092915050565b6000600883026101d47fffffffffffffffffffffffffffffffffffffffffffffffffffffffffffffffff82610197565b6101de8683610197565b95508019841693508086168417925050509392505050565b6000819050919050565b6000819050919050565b600061022561022061021b846101f6565b610200565b6101f6565b9050919050565b6000819050919050565b61023f8361020a565b61025361024b8261022c565b8484546101a4565b825550505050565b600090565b61026861025b565b610273818484610236565b505050565b5b818110156102975761028c600082610260565b600181019050610279565b5050565b601f8211156102dc576102ad81610172565b6102b684610187565b810160208510156102c5578190505b6102d96102d185610187565b830182610278565b50505b505050565b600082821c905092915050565b60006102ff600019846008026102e1565b1980831691505092915050565b600061031883836102ee565b9150826002028217905092915050565b610331826100d8565b67ffffffffffffffff81111561034a576103496100e3565b5b6103548254610141565b61035f82828561029b565b600060209050601f8311600181146103925760008415610380578287015190505b61038a858261030c565b8655506103f2565b601f1984166103a086610172565b60005b828110156103c8578489015182556001820191506020850194506020810190506103a3565b868310156103e557848901516103e1601f8916826102ee565b8355505b6001600288020188555050505b505050505050565b60805161106e61041c6000396000818161033001526103a5015261106e6000f3fe608060405234801561001057600080fd5b50600436106100b45760003560e01c806332cb6b0c1161007157806332cb6b0c1461019157806340c10f19146101af57806370a08231146101cb57806395d89b41146101fb578063a9059cbb14610219578063dd62ed3e14610249576100b4565b806306fdde03146100b9578063095ea7b3146100d7578063117803e31461010757806318160ddd1461012557806323b872dd14610143578063313ce56714610173575b600080fd5b6100c1610279565b6040516100ce9190610cc2565b60405180910390f35b6100f160048036038101906100ec9190610d7d565b61030b565b6040516100fe9190610dd8565b60405180910390f35b61010f61032e565b60405161011c9190610e02565b60405180910390f35b61012d610352565b60405161013a9190610e2c565b60405180910390f35b61015d60048036038101906101589190610e47565b61035c565b60405161016a9190610dd8565b60405180910390f35b61017b61038b565b6040516101889190610eb6565b60405180910390f35b610199610394565b6040516101a69190610e2c565b60405180910390f35b6101c960048036038101906101c49190610d7d565b6103a3565b005b6101e560048036038101906101e09190610ed1565b61048d565b6040516101f29190610e2c565b60405180910390f35b6102036104d5565b6040516102109190610cc2565b60405180910390f35b610233600480360381019061022e9190610d7d565b610567565b6040516102409190610dd8565b60405180910390f35b610263600480360381019061025e9190610efe565b61058a565b6040516102709190610e2c565b60405180910390f35b60606003805461028890610f6d565b80601f01602080910402602001604051908101604052809291908181526020018280546102b490610f6d565b80156103015780601f106102d657610100808354040283529160200191610301565b820191906000526020600020905b8154815290600101906020018083116102e457829003601f168201915b5050505050905090565b600080610316610611565b9050610323818585610619565b600191505092915050565b7f000000000000000000000000000000000000000000000000000000000000000081565b6000600254905090565b600080610367610611565b905061037485828561062b565b61037f8585856106c0565b60019150509392505050565b60006012905090565b6a115eec47f6cf7e3500000081565b7f000000000000000000000000000000000000000000000000000000000000000073ffffffffffffffffffffffffffffffffffffffff163373ffffffffffffffffffffffffffffffffffffffff1614610428576040517f3977181a00000000000000000000000000000000000000000000000000000000815260040160405180910390fd5b6a115eec47f6cf7e350000008161043d610352565b6104479190610fcd565b111561047f576040517fd26d197300000000000000000000000000000000000000000000000000000000815260040160405180910390fd5b61048982826107b4565b5050565b60008060008373ffffffffffffffffffffffffffffffffffffffff1673ffffffffffffffffffffffffffffffffffffffff168152602001908152602001600020549050919050565b6060600480546104e490610f6d565b80601f016020809104026020016040519081016040528092919081815260200182805461051090610f6d565b801561055d5780601f106105325761010080835404028352916020019161055d565b820191906000526020600020905b81548152906001019060200180831161054057829003601f168201915b5050505050905090565b600080610572610611565b905061057f8185856106c0565b600191505092915050565b6000600160008473ffffffffffffffffffffffffffffffffffffffff1673ffffffffffffffffffffffffffffffffffffffff16815260200190815260200160002060008373ffffffffffffffffffffffffffffffffffffffff1673ffffffffffffffffffffffffffffffffffffffff16815260200190815260200160002054905092915050565b600033905090565b6106268383836001610836565b505050565b6000610637848461058a565b90507fffffffffffffffffffffffffffffffffffffffffffffffffffffffffffffffff8110156106ba57818110156106aa578281836040517ffb8f41b20000000000000000000000000000000000000000000000000000000081526004016106a193929190611001565b60405180910390fd5b6106b984848484036000610836565b5b50505050565b600073ffffffffffffffffffffffffffffffffffffffff168373ffffffffffffffffffffffffffffffffffffffff16036107325760006040517f96c6fd1e0000000000000000000000000000000000000000000000000000000081526004016107299190610e02565b60405180910390fd5b600073ffffffffffffffffffffffffffffffffffffffff168273ffffffffffffffffffffffffffffffffffffffff16036107a45760006040517fec442f0500000000000000000000000000000000000000000000000000000000815260040161079b9190610e02565b60405180910390fd5b6107af838383610a0d565b505050565b600073ffffffffffffffffffffffffffffffffffffffff168273ffffffffffffffffffffffffffffffffffffffff16036108265760006040517fec442f0500000000000000000000000000000000000000000000000000000000815260040161081d9190610e02565b60405180910390fd5b61083260008383610a0d565b5050565b600073ffffffffffffffffffffffffffffffffffffffff168473ffffffffffffffffffffffffffffffffffffffff16036108a85760006040517fe602df0500000000000000000000000000000000000000000000000000000000815260040161089f9190610e02565b60405180910390fd5b600073ffffffffffffffffffffffffffffffffffffffff168373ffffffffffffffffffffffffffffffffffffffff160361091a5760006040517f94280d620000000000000000000000000000000000000000000000000000000081526004016109119190610e02565b60405180910390fd5b81600160008673ffffffffffffffffffffffffffffffffffffffff1673ffffffffffffffffffffffffffffffffffffffff16815260200190815260200160002060008573ffffffffffffffffffffffffffffffffffffffff1673ffffffffffffffffffffffffffffffffffffffff168152602001908152602001600020819055508015610a07578273ffffffffffffffffffffffffffffffffffffffff168473ffffffffffffffffffffffffffffffffffffffff167f8c5be1e5ebec7d5bd14f71427d1e84f3dd0314c0f7b2291e5b200ac8c7c3b925846040516109fe9190610e2c565b60405180910390a35b50505050565b600073ffffffffffffffffffffffffffffffffffffffff168373ffffffffffffffffffffffffffffffffffffffff1603610a5f578060026000828254610a539190610fcd565b92505081905550610b32565b60008060008573ffffffffffffffffffffffffffffffffffffffff1673ffffffffffffffffffffffffffffffffffffffff16815260200190815260200160002054905081811015610aeb578381836040517fe450d38c000000000000000000000000000000000000000000000000000000008152600401610ae293929190611001565b60405180910390fd5b8181036000808673ffffffffffffffffffffffffffffffffffffffff1673ffffffffffffffffffffffffffffffffffffffff16815260200190815260200160002081905550505b600073ffffffffffffffffffffffffffffffffffffffff168273ffffffffffffffffffffffffffffffffffffffff1603610b7b5780600260008282540392505081905550610bc8565b806000808473ffffffffffffffffffffffffffffffffffffffff1673ffffffffffffffffffffffffffffffffffffffff168152602001908152602001600020600082825401925050819055505b8173ffffffffffffffffffffffffffffffffffffffff168373ffffffffffffffffffffffffffffffffffffffff167fddf252ad1be2c89b69c2b068fc378daa952ba7f163c4a11628f55a4df523b3ef83604051610c259190610e2c565b60405180910390a3505050565b600081519050919050565b600082825260208201905092915050565b60005b83811015610c6c578082015181840152602081019050610c51565b60008484015250505050565b6000601f19601f8301169050919050565b6000610c9482610c32565b610c9e8185610c3d565b9350610cae818560208601610c4e565b610cb781610c78565b840191505092915050565b60006020820190508181036000830152610cdc8184610c89565b905092915050565b600080fd5b600073ffffffffffffffffffffffffffffffffffffffff82169050919050565b6000610d1482610ce9565b9050919050565b610d2481610d09565b8114610d2f57600080fd5b50565b600081359050610d4181610d1b565b92915050565b6000819050919050565b610d5a81610d47565b8114610d6557600080fd5b50565b600081359050610d7781610d51565b92915050565b60008060408385031215610d9457610d93610ce4565b5b6000610da285828601610d32565b9250506020610db385828601610d68565b9150509250929050565b60008115159050919050565b610dd281610dbd565b82525050565b6000602082019050610ded6000830184610dc9565b92915050565b610dfc81610d09565b82525050565b6000602082019050610e176000830184610df3565b92915050565b610e2681610d47565b82525050565b6000602082019050610e416000830184610e1d565b92915050565b600080600060608486031215610e6057610e5f610ce4565b5b6000610e6e86828701610d32565b9350506020610e7f86828701610d32565b9250506040610e9086828701610d68565b9150509250925092565b600060ff82169050919050565b610eb081610e9a565b82525050565b6000602082019050610ecb6000830184610ea7565b92915050565b600060208284031215610ee757610ee6610ce4565b5b6000610ef584828501610d32565b91505092915050565b60008060408385031215610f1557610f14610ce4565b5b6000610f2385828601610d32565b9250506020610f3485828601610d32565b9150509250929050565b7f4e487b7100000000000000000000000000000000000000000000000000000000600052602260045260246000fd5b60006002820490506001821680610f8557607f821691505b602082108103610f9857610f97610f3e565b5b50919050565b7f4e487b7100000000000000000000000000000000000000000000000000000000600052601160045260246000fd5b6000610fd882610d47565b9150610fe383610d47565b9250828201905080821115610ffb57610ffa610f9e565b5b92915050565b60006060820190506110166000830186610df3565b6110236020830185610e1d565b6110306040830184610e1d565b94935050505056fea26469706673582212204821a34311742d2dfdea675bece4549a10636bea1bf125bd4adb25740a752d7d64736f6c634300081c0033",
  "linkReferences": {},
  "deployedLinkReferences": {}
}