{
  "_format": "hh-sol-artifact-1",
  "contractName": "EcoNovaManager",
  "sourceName": "contracts/EcoNovaManager.sol",
  "abi": [
    {
      "inputs": [
        {
          "internalType": "address",
          "name": "orocleAddress",
          "type": "address"
        },
        {
          "internalType": "address",
          "name": "_botAddress",
          "type": "address"
        }
      ],
      "stateMutability": "nonpayable",
      "type": "constructor"
    },
    {
      "inputs": [],
      "name": "EcoNovaManager__AddressCannotBeZero",
      "type": "error"
    },
    {
      "inputs": [],
      "name": "EcoNovaManager__ConversionNotAvailable",
      "type": "error"
    },
    {
      "inputs": [],
      "name": "EcoNovaManager__HashAlreadyUsed",
      "type": "error"
    },
    {
      "inputs": [],
      "name": "EcoNovaManager__IncorrectETHAmount",
      "type": "error"
    },
    {
      "inputs": [],
      "name": "EcoNovaManager__InsufficientBalance",
      "type": "error"
    },
    {
      "inputs": [],
      "name": "EcoNovaManager__InsufficientPoints",
      "type": "error"
    },
    {
      "inputs": [],
      "name": "EcoNovaManager__InvalidSignature",
      "type": "error"
    },
    {
      "inputs": [],
      "name": "EcoNovaManager__SendingFailed",
      "type": "error"
    },
    {
      "inputs": [],
      "name": "EcoNovaManager__SignatureNotValidForChainId",
      "type": "error"
    },
    {
      "inputs": [],
      "name": "EcoNovaManager__TweetIdAlreadyRecorderForUser",
      "type": "error"
    },
    {
      "inputs": [],
      "name": "EcoNovaManager__Unauthorized",
      "type": "error"
    },
    {
      "inputs": [
        {
          "internalType": "address",
          "name": "owner",
          "type": "address"
        }
      ],
      "name": "OwnableInvalidOwner",
      "type": "error"
    },
    {
      "inputs": [
        {
          "internalType": "address",
          "name": "account",
          "type": "address"
        }
      ],
      "name": "OwnableUnauthorizedAccount",
      "type": "error"
    },
    {
      "anonymous": false,
      "inputs": [
        {
          "indexed": true,
          "internalType": "address",
          "name": "oldBotAddress",
          "type": "address"
        },
        {
          "indexed": true,
          "internalType": "address",
          "name": "newBotAddress",
          "type": "address"
        }
      ],
      "name": "BotAddressUpdated",
      "type": "event"
    },
    {
      "anonymous": false,
      "inputs": [
        {
          "indexed": true,
          "internalType": "address",
          "name": "user",
          "type": "address"
        },
        {
          "indexed": true,
          "internalType": "address",
          "name": "token",
          "type": "address"
        },
        {
          "indexed": false,
          "internalType": "uint256",
          "name": "amount",
          "type": "uint256"
        }
      ],
      "name": "Donated",
      "type": "event"
    },
    {
      "anonymous": false,
      "inputs": [
        {
          "indexed": true,
          "internalType": "address",
          "name": "user",
          "type": "address"
        },
        {
          "indexed": true,
          "internalType": "address",
          "name": "token",
          "type": "address"
        },
        {
          "indexed": false,
          "internalType": "uint256",
          "name": "amount",
          "type": "uint256"
        }
      ],
      "name": "DonationWithdrawed",
      "type": "event"
    },
    {
      "anonymous": false,
      "inputs": [
        {
          "indexed": true,
          "internalType": "address",
          "name": "previousOwner",
          "type": "address"
        },
        {
          "indexed": true,
          "internalType": "address",
          "name": "newOwner",
          "type": "address"
        }
      ],
      "name": "OwnershipTransferred",
      "type": "event"
    },
    {
      "anonymous": false,
      "inputs": [
        {
          "indexed": true,
          "internalType": "address",
          "name": "user",
          "type": "address"
        },
        {
          "indexed": false,
          "internalType": "uint256",
          "name": "points",
          "type": "uint256"
        }
      ],
      "name": "PointsAdded",
      "type": "event"
    },
    {
      "anonymous": false,
      "inputs": [
        {
          "indexed": true,
          "internalType": "address",
          "name": "user",
          "type": "address"
        },
        {
          "indexed": false,
          "internalType": "uint256",
          "name": "points",
          "type": "uint256"
        }
      ],
      "name": "PointsRedeemed",
      "type": "event"
    },
    {
      "anonymous": false,
      "inputs": [
        {
          "indexed": true,
          "internalType": "address",
          "name": "oldOrocle",
          "type": "address"
        },
        {
          "indexed": true,
          "internalType": "address",
          "name": "newOrocle",
          "type": "address"
        }
      ],
      "name": "SetOrocle",
      "type": "event"
    },
    {
      "anonymous": false,
      "inputs": [
        {
          "indexed": true,
          "internalType": "address",
          "name": "token",
          "type": "address"
        },
        {
          "indexed": false,
          "internalType": "string",
          "name": "name",
          "type": "string"
        },
        {
          "indexed": false,
          "internalType": "string",
          "name": "symbol",
          "type": "string"
        },
        {
          "indexed": false,
          "internalType": "uint256",
          "name": "initialSupply",
          "type": "uint256"
        }
      ],
      "name": "TokenCreated",
      "type": "event"
    },
    {
      "inputs": [],
      "name": "DONATION_POINT_PER_USD",
      "outputs": [
        {
          "internalType": "uint256",
          "name": "",
          "type": "uint256"
        }
      ],
      "stateMutability": "view",
      "type": "function"
    },
    {
      "inputs": [],
      "name": "ETH_ADDRESS",
      "outputs": [
        {
          "internalType": "address",
          "name": "",
          "type": "address"
        }
      ],
      "stateMutability": "view",
      "type": "function"
    },
    {
      "inputs": [],
      "name": "FIAT_DECIMALS",
      "outputs": [
        {
          "internalType": "uint256",
          "name": "",
          "type": "uint256"
        }
      ],
      "stateMutability": "view",
      "type": "function"
    },
    {
      "inputs": [],
      "name": "POINT_BASIS",
      "outputs": [
        {
          "internalType": "uint256",
          "name": "",
          "type": "uint256"
        }
      ],
      "stateMutability": "view",
      "type": "function"
    },
    {
      "inputs": [],
      "name": "SLIPPAGE_TOLERANCE_BPS",
      "outputs": [
        {
          "internalType": "uint256",
          "name": "",
          "type": "uint256"
        }
      ],
      "stateMutability": "view",
      "type": "function"
    },
    {
      "inputs": [
        {
          "internalType": "uint256",
          "name": "weightInGrams",
          "type": "uint256"
        }
      ],
      "name": "addPointFromWeight",
      "outputs": [],
      "stateMutability": "nonpayable",
      "type": "function"
    },
    {
      "inputs": [
        {
          "internalType": "uint256",
          "name": "pointToAdd",
          "type": "uint256"
        },
        {
          "internalType": "uint256",
          "name": "userTwitterId",
          "type": "uint256"
        },
        {
          "internalType": "uint256",
          "name": "tweetId",
          "type": "uint256"
        },
        {
          "internalType": "uint256",
          "name": "chainId",
          "type": "uint256"
        },
        {
          "internalType": "bytes",
          "name": "signature",
          "type": "bytes"
        }
      ],
      "name": "addPointsFromTwitterBot",
      "outputs": [],
      "stateMutability": "nonpayable",
      "type": "function"
    },
    {
      "inputs": [],
      "name": "botAddress",
      "outputs": [
        {
          "internalType": "address",
          "name": "",
          "type": "address"
        }
      ],
      "stateMutability": "view",
      "type": "function"
    },
    {
      "inputs": [
        {
          "internalType": "string",
          "name": "name",
          "type": "string"
        },
        {
          "internalType": "string",
          "name": "symbol",
          "type": "string"
        },
        {
          "internalType": "uint256",
          "name": "initialSupply",
          "type": "uint256"
        }
      ],
      "name": "deployToken",
      "outputs": [],
      "stateMutability": "nonpayable",
      "type": "function"
    },
    {
      "inputs": [
        {
          "internalType": "address",
          "name": "token",
          "type": "address"
        },
        {
          "internalType": "uint256",
          "name": "amountInUsd",
          "type": "uint256"
        }
      ],
      "name": "donateToFoundation",
      "outputs": [],
      "stateMutability": "payable",
      "type": "function"
    },
    {
      "inputs": [
        {
          "internalType": "address",
          "name": "",
          "type": "address"
        }
      ],
      "name": "donations",
      "outputs": [
        {
          "internalType": "uint256",
          "name": "",
          "type": "uint256"
        }
      ],
      "stateMutability": "view",
      "type": "function"
    },
    {
      "inputs": [
        {
          "internalType": "address",
          "name": "token",
          "type": "address"
        },
        {
          "internalType": "uint256",
          "name": "amountInUsd",
          "type": "uint256"
        }
      ],
      "name": "getUsdToTokenPrice",
      "outputs": [
        {
          "internalType": "uint256",
          "name": "",
          "type": "uint256"
        }
      ],
      "stateMutability": "view",
      "type": "function"
    },
    {
      "inputs": [],
      "name": "i_ecoNovaToken",
      "outputs": [
        {
          "internalType": "contract EcoNovaToken",
          "name": "",
          "type": "address"
        }
      ],
      "stateMutability": "view",
      "type": "function"
    },
    {
      "inputs": [],
      "name": "i_ethIdentifier",
      "outputs": [
        {
          "internalType": "bytes20",
          "name": "",
          "type": "bytes20"
        }
      ],
      "stateMutability": "view",
      "type": "function"
    },
    {
      "inputs": [],
      "name": "owner",
      "outputs": [
        {
          "internalType": "address",
          "name": "",
          "type": "address"
        }
      ],
      "stateMutability": "view",
      "type": "function"
    },
    {
      "inputs": [
        {
          "internalType": "uint256",
          "name": "point",
          "type": "uint256"
        }
      ],
      "name": "redeemCode",
      "outputs": [
        {
          "internalType": "bool",
          "name": "success",
          "type": "bool"
        }
      ],
      "stateMutability": "nonpayable",
      "type": "function"
    },
    {
      "inputs": [],
      "name": "renounceOwnership",
      "outputs": [],
      "stateMutability": "nonpayable",
      "type": "function"
    },
    {
      "inputs": [
        {
          "internalType": "uint256",
          "name": "pointToAdd",
          "type": "uint256"
        },
        {
          "internalType": "uint256",
          "name": "userTwitterId",
          "type": "uint256"
        },
        {
          "internalType": "uint256",
          "name": "tweetId",
          "type": "uint256"
        },
        {
          "internalType": "uint256",
          "name": "chainId",
          "type": "uint256"
        },
        {
          "internalType": "bytes",
          "name": "",
          "type": "bytes"
        }
      ],
      "name": "testHash",
      "outputs": [
        {
          "internalType": "bytes32",
          "name": "message",
          "type": "bytes32"
        }
      ],
      "stateMutability": "view",
      "type": "function"
    },
    {
      "inputs": [
        {
          "internalType": "address",
          "name": "newOwner",
          "type": "address"
        }
      ],
      "name": "transferOwnership",
      "outputs": [],
      "stateMutability": "nonpayable",
      "type": "function"
    },
    {
      "inputs": [
        {
          "internalType": "address",
          "name": "_newBotAddress",
          "type": "address"
        }
      ],
      "name": "updateBotAddress",
      "outputs": [],
      "stateMutability": "nonpayable",
      "type": "function"
    },
    {
      "inputs": [
        {
          "internalType": "bytes32",
          "name": "",
          "type": "bytes32"
        }
      ],
      "name": "usedHashes",
      "outputs": [
        {
          "internalType": "bool",
          "name": "",
          "type": "bool"
        }
      ],
      "stateMutability": "view",
      "type": "function"
    },
    {
      "inputs": [
        {
          "internalType": "address",
          "name": "",
          "type": "address"
        }
      ],
      "name": "userDonations",
      "outputs": [
        {
          "internalType": "uint256",
          "name": "",
          "type": "uint256"
        }
      ],
      "stateMutability": "view",
      "type": "function"
    },
    {
      "inputs": [
        {
          "internalType": "address",
          "name": "",
          "type": "address"
        }
      ],
      "name": "userPoints",
      "outputs": [
        {
          "internalType": "uint256",
          "name": "points",
          "type": "uint256"
        },
        {
          "internalType": "uint256",
          "name": "updatedTimeStamp",
          "type": "uint256"
        },
        {
          "internalType": "uint256",
          "name": "createdTimeStamp",
          "type": "uint256"
        },
        {
          "internalType": "address",
          "name": "user",
          "type": "address"
        }
      ],
      "stateMutability": "view",
      "type": "function"
    },
    {
      "inputs": [
        {
          "internalType": "address",
          "name": "token",
          "type": "address"
        },
        {
          "internalType": "uint256",
          "name": "amount",
          "type": "uint256"
        }
      ],
      "name": "withdrawDonation",
      "outputs": [],
      "stateMutability": "nonpayable",
      "type": "function"
    }
  ],
  "bytecode": "0x60c06040527f45544800000000000000000000000000000000000000000000000000000000006bffffffffffffffffffffffff191660a0906bffffffffffffffffffffffff191681525034801561005557600080fd5b506040516167073803806167078339818101604052810190610077919061038f565b33600073ffffffffffffffffffffffffffffffffffffffff168173ffffffffffffffffffffffffffffffffffffffff16036100ea5760006040517f1e4fbdf70000000000000000000000000000000000000000000000000000000081526004016100e191906103de565b60405180910390fd5b6100f98161025b60201b60201c565b506040516101069061031f565b604051809103906000f080158015610122573d6000803e3d6000fd5b5073ffffffffffffffffffffffffffffffffffffffff1660808173ffffffffffffffffffffffffffffffffffffffff168152505081600760006101000a81548173ffffffffffffffffffffffffffffffffffffffff021916908373ffffffffffffffffffffffffffffffffffffffff16021790555080600660006101000a81548173ffffffffffffffffffffffffffffffffffffffff021916908373ffffffffffffffffffffffffffffffffffffffff1602179055508173ffffffffffffffffffffffffffffffffffffffff16600760009054906101000a900473ffffffffffffffffffffffffffffffffffffffff1673ffffffffffffffffffffffffffffffffffffffff167fe2a40a3ecdac841efaed7254cc3fd5ed86d08b13b22b4c4843a73e6052987fe960405160405180910390a350506103f9565b60008060009054906101000a900473ffffffffffffffffffffffffffffffffffffffff169050816000806101000a81548173ffffffffffffffffffffffffffffffffffffffff021916908373ffffffffffffffffffffffffffffffffffffffff1602179055508173ffffffffffffffffffffffffffffffffffffffff168173ffffffffffffffffffffffffffffffffffffffff167f8be0079c531659141344cd1fd0a4f28419497f9722a3daafe3b4186f6b6457e060405160405180910390a35050565b61148a8061527d83390190565b600080fd5b600073ffffffffffffffffffffffffffffffffffffffff82169050919050565b600061035c82610331565b9050919050565b61036c81610351565b811461037757600080fd5b50565b60008151905061038981610363565b92915050565b600080604083850312156103a6576103a561032c565b5b60006103b48582860161037a565b92505060206103c58582860161037a565b9150509250929050565b6103d881610351565b82525050565b60006020820190506103f360008301846103cf565b92915050565b60805160a051614e4a61043360003960008181610f5c0152611248015260008181610ead01528181611b030152611b400152614e4a6000f3fe60806040526004361061014b5760003560e01c8063add0afd6116100b6578063d8dd5f411161006f578063d8dd5f4114610485578063e9a04974146104b0578063f11cddf6146104d9578063f2fde38b14610504578063f50ddbc71461052d578063fd1b61151461056d5761014b565b8063add0afd614610370578063ae0d1b811461039b578063aef18bf7146103c4578063cc6cb19a14610401578063d31306dd1461043e578063d5726662146104695761014b565b80635b48d456116101085780635b48d4561461025e578063715018a6146102895780638da5cb5b146102a05780639fb6ef2e146102cb578063a734f06e14610308578063aba2161b146103335761014b565b80630aa4991d14610150578063151cfba61461018d5780633a93babb146101b65780633ae9058c146101df5780634bf4f42314610208578063534b032914610233575b600080fd5b34801561015c57600080fd5b50610177600480360381019061017291906120c5565b6105aa565b604051610184919061210b565b60405180910390f35b34801561019957600080fd5b506101b460048036038101906101af9190612152565b6105c2565b005b3480156101c257600080fd5b506101dd60048036038101906101d891906122c5565b6108ec565b005b3480156101eb57600080fd5b50610206600480360381019061020191906123f1565b610982565b005b34801561021457600080fd5b5061021d610e80565b60405161022a9190612497565b60405180910390f35b34801561023f57600080fd5b50610248610ea6565b604051610255919061210b565b60405180910390f35b34801561026a57600080fd5b50610273610eab565b6040516102809190612511565b60405180910390f35b34801561029557600080fd5b5061029e610ecf565b005b3480156102ac57600080fd5b506102b5610ee3565b6040516102c29190612497565b60405180910390f35b3480156102d757600080fd5b506102f260048036038101906102ed919061252c565b610f0c565b6040516102ff919061210b565b60405180910390f35b34801561031457600080fd5b5061031d611028565b60405161032a9190612497565b60405180910390f35b34801561033f57600080fd5b5061035a600480360381019061035591906123f1565b611040565b6040516103679190612585565b60405180910390f35b34801561037c57600080fd5b506103856110c9565b604051610392919061210b565b60405180910390f35b3480156103a757600080fd5b506103c260048036038101906103bd91906120c5565b6110da565b005b3480156103d057600080fd5b506103eb60048036038101906103e691906125cc565b61120e565b6040516103f89190612614565b60405180910390f35b34801561040d57600080fd5b50610428600480360381019061042391906120c5565b61122e565b604051610435919061210b565b60405180910390f35b34801561044a57600080fd5b50610453611246565b604051610460919061266a565b60405180910390f35b610483600480360381019061047e919061252c565b61126a565b005b34801561049157600080fd5b5061049a61169f565b6040516104a7919061210b565b60405180910390f35b3480156104bc57600080fd5b506104d760048036038101906104d2919061252c565b6116a4565b005b3480156104e557600080fd5b506104ee6118d4565b6040516104fb919061210b565b60405180910390f35b34801561051057600080fd5b5061052b600480360381019061052691906120c5565b6118d9565b005b34801561053957600080fd5b50610554600480360381019061054f91906120c5565b61195f565b6040516105649493929190612685565b60405180910390f35b34801561057957600080fd5b50610594600480360381019061058f9190612152565b6119af565b6040516105a19190612614565b60405180910390f35b60036020528060005260406000206000915090505481565b60006023826105d191906126f9565b90506000600160003373ffffffffffffffffffffffffffffffffffffffff1673ffffffffffffffffffffffffffffffffffffffff1681526020019081526020016000206040518060800160405290816000820154815260200160018201548152602001600282015481526020016003820160009054906101000a900473ffffffffffffffffffffffffffffffffffffffff1673ffffffffffffffffffffffffffffffffffffffff1673ffffffffffffffffffffffffffffffffffffffff168152505090506000816000015111156107725781816000018181516106b4919061273b565b915081815250504281602001818152505080600160003373ffffffffffffffffffffffffffffffffffffffff1673ffffffffffffffffffffffffffffffffffffffff16815260200190815260200160002060008201518160000155602082015181600101556040820151816002015560608201518160030160006101000a81548173ffffffffffffffffffffffffffffffffffffffff021916908373ffffffffffffffffffffffffffffffffffffffff160217905550905050610857565b600060405180608001604052808481526020014281526020014281526020013373ffffffffffffffffffffffffffffffffffffffff16815250905080600160003373ffffffffffffffffffffffffffffffffffffffff1673ffffffffffffffffffffffffffffffffffffffff16815260200190815260200160002060008201518160000155602082015181600101556040820151816002015560608201518160030160006101000a81548173ffffffffffffffffffffffffffffffffffffffff021916908373ffffffffffffffffffffffffffffffffffffffff160217905550905050505b3373ffffffffffffffffffffffffffffffffffffffff167f0fe6fcb45adaaa54f7e3491f6a7964049817f1e437f33587e634a4629fbcf3a6600160003373ffffffffffffffffffffffffffffffffffffffff1673ffffffffffffffffffffffffffffffffffffffff168152602001908152602001600020600001546040516108df919061210b565b60405180910390a2505050565b6000838383336040516108fe90612046565b61090b94939291906127ee565b604051809103906000f080158015610927573d6000803e3d6000fd5b5090508073ffffffffffffffffffffffffffffffffffffffff167f75d1eb2d61d7e210835bc16e78ac4d0e4f905c108a81852a6b68c4d46b4f40f385858560405161097493929190612841565b60405180910390a250505050565b6000338686868660405160200161099d9594939291906128ef565b60405160208183030381529060405280519060200120905060006109c082611d1a565b905060056000878152602001908152602001600020600086815260200190815260200160002060009054906101000a900460ff1615610a2b576040517f8f32d76800000000000000000000000000000000000000000000000000000000815260040160405180910390fd5b468414610a64576040517fe933e41700000000000000000000000000000000000000000000000000000000815260040160405180910390fd5b6004600083815260200190815260200160002060009054906101000a900460ff1615610abb576040517e1360cc00000000000000000000000000000000000000000000000000000000815260040160405180910390fd5b600660009054906101000a900473ffffffffffffffffffffffffffffffffffffffff1673ffffffffffffffffffffffffffffffffffffffff16610afe8285611d4a565b73ffffffffffffffffffffffffffffffffffffffff1614610b4b576040517f6083dc0200000000000000000000000000000000000000000000000000000000815260040160405180910390fd5b60016004600084815260200190815260200160002060006101000a81548160ff021916908315150217905550600160056000888152602001908152602001600020600087815260200190815260200160002060006101000a81548160ff0219169083151502179055506000602388610bc391906126f9565b90506000600160003373ffffffffffffffffffffffffffffffffffffffff1673ffffffffffffffffffffffffffffffffffffffff1681526020019081526020016000209050600081600001541115610d065781816000016000828254610c29919061273b565b9250508190555042816001018190555080600160003373ffffffffffffffffffffffffffffffffffffffff1673ffffffffffffffffffffffffffffffffffffffff1681526020019081526020016000206000820154816000015560018201548160010155600282015481600201556003820160009054906101000a900473ffffffffffffffffffffffffffffffffffffffff168160030160006101000a81548173ffffffffffffffffffffffffffffffffffffffff021916908373ffffffffffffffffffffffffffffffffffffffff160217905550905050610de5565b60405180608001604052808381526020014281526020014281526020013373ffffffffffffffffffffffffffffffffffffffff16815250600160003373ffffffffffffffffffffffffffffffffffffffff1673ffffffffffffffffffffffffffffffffffffffff16815260200190815260200160002060008201518160000155602082015181600101556040820151816002015560608201518160030160006101000a81548173ffffffffffffffffffffffffffffffffffffffff021916908373ffffffffffffffffffffffffffffffffffffffff1602179055509050505b3373ffffffffffffffffffffffffffffffffffffffff167f0fe6fcb45adaaa54f7e3491f6a7964049817f1e437f33587e634a4629fbcf3a6600160003373ffffffffffffffffffffffffffffffffffffffff1673ffffffffffffffffffffffffffffffffffffffff16815260200190815260200160002060000154604051610e6d919061210b565b60405180910390a2505050505050505050565b600660009054906101000a900473ffffffffffffffffffffffffffffffffffffffff1681565b602381565b7f000000000000000000000000000000000000000000000000000000000000000081565b610ed7611db9565b610ee16000611e40565b565b60008060009054906101000a900473ffffffffffffffffffffffffffffffffffffffff16905090565b600073eeeeeeeeeeeeeeeeeeeeeeeeeeeeeeeeeeeeeeee73ffffffffffffffffffffffffffffffffffffffff168373ffffffffffffffffffffffffffffffffffffffff1603610ff0576000610f807f0000000000000000000000000000000000000000000000000000000000000000611f04565b9050600060129050600060129050600081600a610f9d9190612a8e565b83600a610faa9190612a8e565b87610fb591906126f9565b610fbf91906126f9565b9050600084905060008183610fd49190612b08565b9050606481610fe39190612b08565b9650505050505050611022565b6040517f47f3469f00000000000000000000000000000000000000000000000000000000815260040160405180910390fd5b92915050565b73eeeeeeeeeeeeeeeeeeeeeeeeeeeeeeeeeeeeeeee81565b600046831461107b576040517fe933e41700000000000000000000000000000000000000000000000000000000815260040160405180910390fd5b600033878787876040516020016110969594939291906128ef565b60405160208183030381529060405280519060200120905060006110b982611d1a565b9050809250505095945050505050565b600260236110d791906126f9565b81565b6110e2611db9565b600073ffffffffffffffffffffffffffffffffffffffff168173ffffffffffffffffffffffffffffffffffffffff1603611148576040517fe012988a00000000000000000000000000000000000000000000000000000000815260040160405180910390fd5b6000600660009054906101000a900473ffffffffffffffffffffffffffffffffffffffff16905081600660006101000a81548173ffffffffffffffffffffffffffffffffffffffff021916908373ffffffffffffffffffffffffffffffffffffffff1602179055508173ffffffffffffffffffffffffffffffffffffffff168173ffffffffffffffffffffffffffffffffffffffff167f8f92dafbdfc7fad31b0a85cc9cc0f7121bd9ec12a37640055a866d43bb0e981a60405160405180910390a35050565b60046020528060005260406000206000915054906101000a900460ff1681565b60026020528060005260406000206000915090505481565b7f000000000000000000000000000000000000000000000000000000000000000081565b6000339050600061127b8484610f0c565b9050600061271060c86127106112919190612b39565b8361129c91906126f9565b6112a69190612b08565b9050600061271060c86127106112bc919061273b565b846112c791906126f9565b6112d19190612b08565b905073eeeeeeeeeeeeeeeeeeeeeeeeeeeeeeeeeeeeeeee73ffffffffffffffffffffffffffffffffffffffff168673ffffffffffffffffffffffffffffffffffffffff160361141f578134108061132757508034115b1561135e576040517ffb96dce700000000000000000000000000000000000000000000000000000000815260040160405180910390fd5b346002600073eeeeeeeeeeeeeeeeeeeeeeeeeeeeeeeeeeeeeeee73ffffffffffffffffffffffffffffffffffffffff1673ffffffffffffffffffffffffffffffffffffffff16815260200190815260200160002060008282546113c1919061273b565b9250508190555034600360008673ffffffffffffffffffffffffffffffffffffffff1673ffffffffffffffffffffffffffffffffffffffff1681526020019081526020016000206000828254611417919061273b565b925050819055505b600060646002602361143191906126f9565b8761143c91906126f9565b6114469190612b08565b90506000600160008773ffffffffffffffffffffffffffffffffffffffff1673ffffffffffffffffffffffffffffffffffffffff16815260200190815260200160002090506000816000015411156114c157818160000160008282546114ac919061273b565b925050819055504281600101819055506115a0565b60405180608001604052808381526020014281526020014281526020018773ffffffffffffffffffffffffffffffffffffffff16815250600160008873ffffffffffffffffffffffffffffffffffffffff1673ffffffffffffffffffffffffffffffffffffffff16815260200190815260200160002060008201518160000155602082015181600101556040820151816002015560608201518160030160006101000a81548173ffffffffffffffffffffffffffffffffffffffff021916908373ffffffffffffffffffffffffffffffffffffffff1602179055509050505b8573ffffffffffffffffffffffffffffffffffffffff167f0fe6fcb45adaaa54f7e3491f6a7964049817f1e437f33587e634a4629fbcf3a6600160008973ffffffffffffffffffffffffffffffffffffffff1673ffffffffffffffffffffffffffffffffffffffff16815260200190815260200160002060000154604051611628919061210b565b60405180910390a28773ffffffffffffffffffffffffffffffffffffffff168673ffffffffffffffffffffffffffffffffffffffff167f4dfff917e1fbb261a082e98cc7d43029621f6a6eb05ff3fef1510d5f1eb4857c8760405161168d919061210b565b60405180910390a35050505050505050565b606481565b6116ac611db9565b73eeeeeeeeeeeeeeeeeeeeeeeeeeeeeeeeeeeeeeee73ffffffffffffffffffffffffffffffffffffffff168273ffffffffffffffffffffffffffffffffffffffff16036117dd578047101561172d576040517f6f2bff0c00000000000000000000000000000000000000000000000000000000815260040160405180910390fd5b6000611737610ee3565b73ffffffffffffffffffffffffffffffffffffffff168260405161175a90612b9e565b60006040518083038185875af1925050503d8060008114611797576040519150601f19603f3d011682016040523d82523d6000602084013e61179c565b606091505b50509050806117d7576040517f8ce0f0fa00000000000000000000000000000000000000000000000000000000815260040160405180910390fd5b50611864565b8173ffffffffffffffffffffffffffffffffffffffff1663a9059cbb611801610ee3565b836040518363ffffffff1660e01b815260040161181f929190612bb3565b6020604051808303816000875af115801561183e573d6000803e3d6000fd5b505050506040513d601f19601f820116820180604052508101906118629190612c08565b505b8173ffffffffffffffffffffffffffffffffffffffff16611883610ee3565b73ffffffffffffffffffffffffffffffffffffffff167fe0b49f3bb212a1e1e3941a66b759936ca6d5535a46f3894e037e3712a6f0cecb836040516118c8919061210b565b60405180910390a35050565b60c881565b6118e1611db9565b600073ffffffffffffffffffffffffffffffffffffffff168173ffffffffffffffffffffffffffffffffffffffff16036119535760006040517f1e4fbdf700000000000000000000000000000000000000000000000000000000815260040161194a9190612497565b60405180910390fd5b61195c81611e40565b50565b60016020528060005260406000206000915090508060000154908060010154908060020154908060030160009054906101000a900473ffffffffffffffffffffffffffffffffffffffff16905084565b600080600160003373ffffffffffffffffffffffffffffffffffffffff1673ffffffffffffffffffffffffffffffffffffffff1681526020019081526020016000206000015403611a2c576040517fbf67098f00000000000000000000000000000000000000000000000000000000815260040160405180910390fd5b81600160003373ffffffffffffffffffffffffffffffffffffffff1673ffffffffffffffffffffffffffffffffffffffff168152602001908152602001600020600001541015611aa8576040517fbf67098f00000000000000000000000000000000000000000000000000000000815260040160405180910390fd5b81600160003373ffffffffffffffffffffffffffffffffffffffff1673ffffffffffffffffffffffffffffffffffffffff1681526020019081526020016000206000016000828254611afa9190612b39565b925050819055507f000000000000000000000000000000000000000000000000000000000000000073ffffffffffffffffffffffffffffffffffffffff166340c10f19337f000000000000000000000000000000000000000000000000000000000000000073ffffffffffffffffffffffffffffffffffffffff1663313ce5676040518163ffffffff1660e01b8152600401602060405180830381865afa158015611ba9573d6000803e3d6000fd5b505050506040513d601f19601f82011682018060405250810190611bcd9190612c61565b600a611bd99190612a8e565b85611be491906126f9565b6040518363ffffffff1660e01b8152600401611c01929190612bb3565b600060405180830381600087803b158015611c1b57600080fd5b505af1158015611c2f573d6000803e3d6000fd5b505050503373ffffffffffffffffffffffffffffffffffffffff167fc37df5d14f305277c1289e9a188a097cda6684189c95f785feb056cb77a8c91083604051611c79919061210b565b60405180910390a23373ffffffffffffffffffffffffffffffffffffffff167f0fe6fcb45adaaa54f7e3491f6a7964049817f1e437f33587e634a4629fbcf3a6600160003373ffffffffffffffffffffffffffffffffffffffff1673ffffffffffffffffffffffffffffffffffffffff16815260200190815260200160002060000154604051611d09919061210b565b60405180910390a260019050919050565b600081604051602001611d2d9190612d06565b604051602081830303815290604052805190602001209050919050565b600080600080611d5985611fd6565b92509250925060018682858560405160008152602001604052604051611d829493929190612d3b565b6020604051602081039080840390855afa158015611da4573d6000803e3d6000fd5b50505060206040510351935050505092915050565b611dc161203e565b73ffffffffffffffffffffffffffffffffffffffff16611ddf610ee3565b73ffffffffffffffffffffffffffffffffffffffff1614611e3e57611e0261203e565b6040517f118cdaa7000000000000000000000000000000000000000000000000000000008152600401611e359190612497565b60405180910390fd5b565b60008060009054906101000a900473ffffffffffffffffffffffffffffffffffffffff169050816000806101000a81548173ffffffffffffffffffffffffffffffffffffffff021916908373ffffffffffffffffffffffffffffffffffffffff1602179055508173ffffffffffffffffffffffffffffffffffffffff168173ffffffffffffffffffffffffffffffffffffffff167f8be0079c531659141344cd1fd0a4f28419497f9722a3daafe3b4186f6b6457e060405160405180910390a35050565b60008046905062010469811480611f1c5750617a6981145b15611fcb57600760009054906101000a900473ffffffffffffffffffffffffffffffffffffffff1673ffffffffffffffffffffffffffffffffffffffff166359fd3afe6001856040518363ffffffff1660e01b8152600401611f7f929190612dcb565b602060405180830381865afa158015611f9c573d6000803e3d6000fd5b505050506040513d601f19601f82011682018060405250810190611fc09190612e09565b60001c915050611fd1565b60009150505b919050565b6000806000604184511461201f576040517f08c379a000000000000000000000000000000000000000000000000000000000815260040161201690612e82565b60405180910390fd5b6020840151925060408401519150606084015160001a90509193909250565b600033905090565b611f7280612ea383390190565b6000604051905090565b600080fd5b600080fd5b600073ffffffffffffffffffffffffffffffffffffffff82169050919050565b600061209282612067565b9050919050565b6120a281612087565b81146120ad57600080fd5b50565b6000813590506120bf81612099565b92915050565b6000602082840312156120db576120da61205d565b5b60006120e9848285016120b0565b91505092915050565b6000819050919050565b612105816120f2565b82525050565b600060208201905061212060008301846120fc565b92915050565b61212f816120f2565b811461213a57600080fd5b50565b60008135905061214c81612126565b92915050565b6000602082840312156121685761216761205d565b5b60006121768482850161213d565b91505092915050565b600080fd5b600080fd5b6000601f19601f8301169050919050565b7f4e487b7100000000000000000000000000000000000000000000000000000000600052604160045260246000fd5b6121d282612189565b810181811067ffffffffffffffff821117156121f1576121f061219a565b5b80604052505050565b6000612204612053565b905061221082826121c9565b919050565b600067ffffffffffffffff8211156122305761222f61219a565b5b61223982612189565b9050602081019050919050565b82818337600083830152505050565b600061226861226384612215565b6121fa565b90508281526020810184848401111561228457612283612184565b5b61228f848285612246565b509392505050565b600082601f8301126122ac576122ab61217f565b5b81356122bc848260208601612255565b91505092915050565b6000806000606084860312156122de576122dd61205d565b5b600084013567ffffffffffffffff8111156122fc576122fb612062565b5b61230886828701612297565b935050602084013567ffffffffffffffff81111561232957612328612062565b5b61233586828701612297565b92505060406123468682870161213d565b9150509250925092565b600067ffffffffffffffff82111561236b5761236a61219a565b5b61237482612189565b9050602081019050919050565b600061239461238f84612350565b6121fa565b9050828152602081018484840111156123b0576123af612184565b5b6123bb848285612246565b509392505050565b600082601f8301126123d8576123d761217f565b5b81356123e8848260208601612381565b91505092915050565b600080600080600060a0868803121561240d5761240c61205d565b5b600061241b8882890161213d565b955050602061242c8882890161213d565b945050604061243d8882890161213d565b935050606061244e8882890161213d565b925050608086013567ffffffffffffffff81111561246f5761246e612062565b5b61247b888289016123c3565b9150509295509295909350565b61249181612087565b82525050565b60006020820190506124ac6000830184612488565b92915050565b6000819050919050565b60006124d76124d26124cd84612067565b6124b2565b612067565b9050919050565b60006124e9826124bc565b9050919050565b60006124fb826124de565b9050919050565b61250b816124f0565b82525050565b60006020820190506125266000830184612502565b92915050565b600080604083850312156125435761254261205d565b5b6000612551858286016120b0565b92505060206125628582860161213d565b9150509250929050565b6000819050919050565b61257f8161256c565b82525050565b600060208201905061259a6000830184612576565b92915050565b6125a98161256c565b81146125b457600080fd5b50565b6000813590506125c6816125a0565b92915050565b6000602082840312156125e2576125e161205d565b5b60006125f0848285016125b7565b91505092915050565b60008115159050919050565b61260e816125f9565b82525050565b60006020820190506126296000830184612605565b92915050565b60007fffffffffffffffffffffffffffffffffffffffff00000000000000000000000082169050919050565b6126648161262f565b82525050565b600060208201905061267f600083018461265b565b92915050565b600060808201905061269a60008301876120fc565b6126a760208301866120fc565b6126b460408301856120fc565b6126c16060830184612488565b95945050505050565b7f4e487b7100000000000000000000000000000000000000000000000000000000600052601160045260246000fd5b6000612704826120f2565b915061270f836120f2565b925082820261271d816120f2565b91508282048414831517612734576127336126ca565b5b5092915050565b6000612746826120f2565b9150612751836120f2565b9250828201905080821115612769576127686126ca565b5b92915050565b600081519050919050565b600082825260208201905092915050565b60005b838110156127a957808201518184015260208101905061278e565b60008484015250505050565b60006127c08261276f565b6127ca818561277a565b93506127da81856020860161278b565b6127e381612189565b840191505092915050565b6000608082019050818103600083015261280881876127b5565b9050818103602083015261281c81866127b5565b905061282b60408301856120fc565b6128386060830184612488565b95945050505050565b6000606082019050818103600083015261285b81866127b5565b9050818103602083015261286f81856127b5565b905061287e60408301846120fc565b949350505050565b60008160601b9050919050565b600061289e82612886565b9050919050565b60006128b082612893565b9050919050565b6128c86128c382612087565b6128a5565b82525050565b6000819050919050565b6128e96128e4826120f2565b6128ce565b82525050565b60006128fb82886128b7565b60148201915061290b82876128d8565b60208201915061291b82866128d8565b60208201915061292b82856128d8565b60208201915061293b82846128d8565b6020820191508190509695505050505050565b60008160011c9050919050565b6000808291508390505b60018511156129a557808604811115612981576129806126ca565b5b60018516156129905780820291505b808102905061299e8561294e565b9450612965565b94509492505050565b6000826129be5760019050612a7a565b816129cc5760009050612a7a565b81600181146129e257600281146129ec57612a1b565b6001915050612a7a565b60ff8411156129fe576129fd6126ca565b5b8360020a915084821115612a1557612a146126ca565b5b50612a7a565b5060208310610133831016604e8410600b8410161715612a505782820a905083811115612a4b57612a4a6126ca565b5b612a7a565b612a5d848484600161295b565b92509050818404811115612a7457612a736126ca565b5b81810290505b9392505050565b600060ff82169050919050565b6000612a99826120f2565b9150612aa483612a81565b9250612ad17fffffffffffffffffffffffffffffffffffffffffffffffffffffffffffffffff84846129ae565b905092915050565b7f4e487b7100000000000000000000000000000000000000000000000000000000600052601260045260246000fd5b6000612b13826120f2565b9150612b1e836120f2565b925082612b2e57612b2d612ad9565b5b828204905092915050565b6000612b44826120f2565b9150612b4f836120f2565b9250828203905081811115612b6757612b666126ca565b5b92915050565b600081905092915050565b50565b6000612b88600083612b6d565b9150612b9382612b78565b600082019050919050565b6000612ba982612b7b565b9150819050919050565b6000604082019050612bc86000830185612488565b612bd560208301846120fc565b9392505050565b612be5816125f9565b8114612bf057600080fd5b50565b600081519050612c0281612bdc565b92915050565b600060208284031215612c1e57612c1d61205d565b5b6000612c2c84828501612bf3565b91505092915050565b612c3e81612a81565b8114612c4957600080fd5b50565b600081519050612c5b81612c35565b92915050565b600060208284031215612c7757612c7661205d565b5b6000612c8584828501612c4c565b91505092915050565b600081905092915050565b7f19457468657265756d205369676e6564204d6573736167653a0a333200000000600082015250565b6000612ccf601c83612c8e565b9150612cda82612c99565b601c82019050919050565b6000819050919050565b612d00612cfb8261256c565b612ce5565b82525050565b6000612d1182612cc2565b9150612d1d8284612cef565b60208201915081905092915050565b612d3581612a81565b82525050565b6000608082019050612d506000830187612576565b612d5d6020830186612d2c565b612d6a6040830185612576565b612d776060830184612576565b95945050505050565b6000819050919050565b600063ffffffff82169050919050565b6000612db5612db0612dab84612d80565b6124b2565b612d8a565b9050919050565b612dc581612d9a565b82525050565b6000604082019050612de06000830185612dbc565b612ded602083018461265b565b9392505050565b600081519050612e03816125a0565b92915050565b600060208284031215612e1f57612e1e61205d565b5b6000612e2d84828501612df4565b91505092915050565b7f496e76616c6964207369676e6174757265206c656e6774680000000000000000600082015250565b6000612e6c60188361277a565b9150612e7782612e36565b602082019050919050565b60006020820190508181036000830152612e9b81612e5f565b905091905056fe60c060405234801561001057600080fd5b50604051611f72380380611f72833981810160405281019061003291906105bd565b838381600390816100439190610873565b5080600490816100539190610873565b5050508073ffffffffffffffffffffffffffffffffffffffff1660808173ffffffffffffffffffffffffffffffffffffffff16815250503373ffffffffffffffffffffffffffffffffffffffff1660a08173ffffffffffffffffffffffffffffffffffffffff16815250506100f5816100d06100fe60201b60201c565b60ff16600a6100df9190610aa7565b846100ea9190610af2565b61010760201b60201c565b50505050610bf3565b60006012905090565b600073ffffffffffffffffffffffffffffffffffffffff168273ffffffffffffffffffffffffffffffffffffffff16036101795760006040517fec442f050000000000000000000000000000000000000000000000000000000081526004016101709190610b43565b60405180910390fd5b61018b6000838361018f60201b60201c565b5050565b600073ffffffffffffffffffffffffffffffffffffffff168373ffffffffffffffffffffffffffffffffffffffff16036101e15780600260008282546101d59190610b5e565b925050819055506102b4565b60008060008573ffffffffffffffffffffffffffffffffffffffff1673ffffffffffffffffffffffffffffffffffffffff1681526020019081526020016000205490508181101561026d578381836040517fe450d38c00000000000000000000000000000000000000000000000000000000815260040161026493929190610ba1565b60405180910390fd5b8181036000808673ffffffffffffffffffffffffffffffffffffffff1673ffffffffffffffffffffffffffffffffffffffff16815260200190815260200160002081905550505b600073ffffffffffffffffffffffffffffffffffffffff168273ffffffffffffffffffffffffffffffffffffffff16036102fd578060026000828254039250508190555061034a565b806000808473ffffffffffffffffffffffffffffffffffffffff1673ffffffffffffffffffffffffffffffffffffffff168152602001908152602001600020600082825401925050819055505b8173ffffffffffffffffffffffffffffffffffffffff168373ffffffffffffffffffffffffffffffffffffffff167fddf252ad1be2c89b69c2b068fc378daa952ba7f163c4a11628f55a4df523b3ef836040516103a79190610bd8565b60405180910390a3505050565b6000604051905090565b600080fd5b600080fd5b600080fd5b600080fd5b6000601f19601f8301169050919050565b7f4e487b7100000000000000000000000000000000000000000000000000000000600052604160045260246000fd5b61041b826103d2565b810181811067ffffffffffffffff8211171561043a576104396103e3565b5b80604052505050565b600061044d6103b4565b90506104598282610412565b919050565b600067ffffffffffffffff821115610479576104786103e3565b5b610482826103d2565b9050602081019050919050565b60005b838110156104ad578082015181840152602081019050610492565b60008484015250505050565b60006104cc6104c78461045e565b610443565b9050828152602081018484840111156104e8576104e76103cd565b5b6104f384828561048f565b509392505050565b600082601f8301126105105761050f6103c8565b5b81516105208482602086016104b9565b91505092915050565b6000819050919050565b61053c81610529565b811461054757600080fd5b50565b60008151905061055981610533565b92915050565b600073ffffffffffffffffffffffffffffffffffffffff82169050919050565b600061058a8261055f565b9050919050565b61059a8161057f565b81146105a557600080fd5b50565b6000815190506105b781610591565b92915050565b600080600080608085870312156105d7576105d66103be565b5b600085015167ffffffffffffffff8111156105f5576105f46103c3565b5b610601878288016104fb565b945050602085015167ffffffffffffffff811115610622576106216103c3565b5b61062e878288016104fb565b935050604061063f8782880161054a565b9250506060610650878288016105a8565b91505092959194509250565b600081519050919050565b7f4e487b7100000000000000000000000000000000000000000000000000000000600052602260045260246000fd5b600060028204905060018216806106ae57607f821691505b6020821081036106c1576106c0610667565b5b50919050565b60008190508160005260206000209050919050565b60006020601f8301049050919050565b600082821b905092915050565b6000600883026107297fffffffffffffffffffffffffffffffffffffffffffffffffffffffffffffffff826106ec565b61073386836106ec565b95508019841693508086168417925050509392505050565b6000819050919050565b600061077061076b61076684610529565b61074b565b610529565b9050919050565b6000819050919050565b61078a83610755565b61079e61079682610777565b8484546106f9565b825550505050565b600090565b6107b36107a6565b6107be818484610781565b505050565b5b818110156107e2576107d76000826107ab565b6001810190506107c4565b5050565b601f821115610827576107f8816106c7565b610801846106dc565b81016020851015610810578190505b61082461081c856106dc565b8301826107c3565b50505b505050565b600082821c905092915050565b600061084a6000198460080261082c565b1980831691505092915050565b60006108638383610839565b9150826002028217905092915050565b61087c8261065c565b67ffffffffffffffff811115610895576108946103e3565b5b61089f8254610696565b6108aa8282856107e6565b600060209050601f8311600181146108dd57600084156108cb578287015190505b6108d58582610857565b86555061093d565b601f1984166108eb866106c7565b60005b82811015610913578489015182556001820191506020850194506020810190506108ee565b86831015610930578489015161092c601f891682610839565b8355505b6001600288020188555050505b505050505050565b7f4e487b7100000000000000000000000000000000000000000000000000000000600052601160045260246000fd5b60008160011c9050919050565b6000808291508390505b60018511156109cb578086048111156109a7576109a6610945565b5b60018516156109b65780820291505b80810290506109c485610974565b945061098b565b94509492505050565b6000826109e45760019050610aa0565b816109f25760009050610aa0565b8160018114610a085760028114610a1257610a41565b6001915050610aa0565b60ff841115610a2457610a23610945565b5b8360020a915084821115610a3b57610a3a610945565b5b50610aa0565b5060208310610133831016604e8410600b8410161715610a765782820a905083811115610a7157610a70610945565b5b610aa0565b610a838484846001610981565b92509050818404811115610a9a57610a99610945565b5b81810290505b9392505050565b6000610ab282610529565b9150610abd83610529565b9250610aea7fffffffffffffffffffffffffffffffffffffffffffffffffffffffffffffffff84846109d4565b905092915050565b6000610afd82610529565b9150610b0883610529565b9250828202610b1681610529565b91508282048414831517610b2d57610b2c610945565b5b5092915050565b610b3d8161057f565b82525050565b6000602082019050610b586000830184610b34565b92915050565b6000610b6982610529565b9150610b7483610529565b9250828201905080821115610b8c57610b8b610945565b5b92915050565b610b9b81610529565b82525050565b6000606082019050610bb66000830186610b34565b610bc36020830185610b92565b610bd06040830184610b92565b949350505050565b6000602082019050610bed6000830184610b92565b92915050565b60805160a051611353610c1f60003960006105de01526000818161036701526103cd01526113536000f3fe608060405234801561001057600080fd5b50600436106100cf5760003560e01c806340c10f191161008c57806395d89b411161006657806395d89b4114610214578063a9059cbb14610232578063c1b8411a14610262578063dd62ed3e14610280576100cf565b806340c10f19146101ac57806342966c68146101c857806370a08231146101e4576100cf565b806306fdde03146100d4578063095ea7b3146100f2578063117803e31461012257806318160ddd1461014057806323b872dd1461015e578063313ce5671461018e575b600080fd5b6100dc6102b0565b6040516100e99190610dba565b60405180910390f35b61010c60048036038101906101079190610e75565b610342565b6040516101199190610ed0565b60405180910390f35b61012a610365565b6040516101379190610efa565b60405180910390f35b610148610389565b6040516101559190610f24565b60405180910390f35b61017860048036038101906101739190610f3f565b610393565b6040516101859190610ed0565b60405180910390f35b6101966103c2565b6040516101a39190610fae565b60405180910390f35b6101c660048036038101906101c19190610e75565b6103cb565b005b6101e260048036038101906101dd9190610fc9565b6104d2565b005b6101fe60048036038101906101f99190610ff6565b6104df565b60405161020b9190610f24565b60405180910390f35b61021c610527565b6040516102299190610dba565b60405180910390f35b61024c60048036038101906102479190610e75565b6105b9565b6040516102599190610ed0565b60405180910390f35b61026a6105dc565b6040516102779190610efa565b60405180910390f35b61029a60048036038101906102959190611023565b610600565b6040516102a79190610f24565b60405180910390f35b6060600380546102bf90611092565b80601f01602080910402602001604051908101604052809291908181526020018280546102eb90611092565b80156103385780601f1061030d57610100808354040283529160200191610338565b820191906000526020600020905b81548152906001019060200180831161031b57829003601f168201915b5050505050905090565b60008061034d610687565b905061035a81858561068f565b600191505092915050565b7f000000000000000000000000000000000000000000000000000000000000000081565b6000600254905090565b60008061039e610687565b90506103ab8582856106a1565b6103b6858585610736565b60019150509392505050565b60006012905090565b7f000000000000000000000000000000000000000000000000000000000000000073ffffffffffffffffffffffffffffffffffffffff163373ffffffffffffffffffffffffffffffffffffffff1614610450576040517f211a7c6100000000000000000000000000000000000000000000000000000000815260040160405180910390fd5b600061045a6103c2565b600a6104669190611225565b6301406f406104759190611270565b90508082610481610389565b61048b91906112b2565b11156104c3576040517f680595bd00000000000000000000000000000000000000000000000000000000815260040160405180910390fd5b6104cd838361082a565b505050565b6104dc33826108ac565b50565b60008060008373ffffffffffffffffffffffffffffffffffffffff1673ffffffffffffffffffffffffffffffffffffffff168152602001908152602001600020549050919050565b60606004805461053690611092565b80601f016020809104026020016040519081016040528092919081815260200182805461056290611092565b80156105af5780601f10610584576101008083540402835291602001916105af565b820191906000526020600020905b81548152906001019060200180831161059257829003601f168201915b5050505050905090565b6000806105c4610687565b90506105d1818585610736565b600191505092915050565b7f000000000000000000000000000000000000000000000000000000000000000081565b6000600160008473ffffffffffffffffffffffffffffffffffffffff1673ffffffffffffffffffffffffffffffffffffffff16815260200190815260200160002060008373ffffffffffffffffffffffffffffffffffffffff1673ffffffffffffffffffffffffffffffffffffffff16815260200190815260200160002054905092915050565b600033905090565b61069c838383600161092e565b505050565b60006106ad8484610600565b90507fffffffffffffffffffffffffffffffffffffffffffffffffffffffffffffffff8110156107305781811015610720578281836040517ffb8f41b2000000000000000000000000000000000000000000000000000000008152600401610717939291906112e6565b60405180910390fd5b61072f8484848403600061092e565b5b50505050565b600073ffffffffffffffffffffffffffffffffffffffff168373ffffffffffffffffffffffffffffffffffffffff16036107a85760006040517f96c6fd1e00000000000000000000000000000000000000000000000000000000815260040161079f9190610efa565b60405180910390fd5b600073ffffffffffffffffffffffffffffffffffffffff168273ffffffffffffffffffffffffffffffffffffffff160361081a5760006040517fec442f050000000000000000000000000000000000000000000000000000000081526004016108119190610efa565b60405180910390fd5b610825838383610b05565b505050565b600073ffffffffffffffffffffffffffffffffffffffff168273ffffffffffffffffffffffffffffffffffffffff160361089c5760006040517fec442f050000000000000000000000000000000000000000000000000000000081526004016108939190610efa565b60405180910390fd5b6108a860008383610b05565b5050565b600073ffffffffffffffffffffffffffffffffffffffff168273ffffffffffffffffffffffffffffffffffffffff160361091e5760006040517f96c6fd1e0000000000000000000000000000000000000000000000000000000081526004016109159190610efa565b60405180910390fd5b61092a82600083610b05565b5050565b600073ffffffffffffffffffffffffffffffffffffffff168473ffffffffffffffffffffffffffffffffffffffff16036109a05760006040517fe602df050000000000000000000000000000000000000000000000000000000081526004016109979190610efa565b60405180910390fd5b600073ffffffffffffffffffffffffffffffffffffffff168373ffffffffffffffffffffffffffffffffffffffff1603610a125760006040517f94280d62000000000000000000000000000000000000000000000000000000008152600401610a099190610efa565b60405180910390fd5b81600160008673ffffffffffffffffffffffffffffffffffffffff1673ffffffffffffffffffffffffffffffffffffffff16815260200190815260200160002060008573ffffffffffffffffffffffffffffffffffffffff1673ffffffffffffffffffffffffffffffffffffffff168152602001908152602001600020819055508015610aff578273ffffffffffffffffffffffffffffffffffffffff168473ffffffffffffffffffffffffffffffffffffffff167f8c5be1e5ebec7d5bd14f71427d1e84f3dd0314c0f7b2291e5b200ac8c7c3b92584604051610af69190610f24565b60405180910390a35b50505050565b600073ffffffffffffffffffffffffffffffffffffffff168373ffffffffffffffffffffffffffffffffffffffff1603610b57578060026000828254610b4b91906112b2565b92505081905550610c2a565b60008060008573ffffffffffffffffffffffffffffffffffffffff1673ffffffffffffffffffffffffffffffffffffffff16815260200190815260200160002054905081811015610be3578381836040517fe450d38c000000000000000000000000000000000000000000000000000000008152600401610bda939291906112e6565b60405180910390fd5b8181036000808673ffffffffffffffffffffffffffffffffffffffff1673ffffffffffffffffffffffffffffffffffffffff16815260200190815260200160002081905550505b600073ffffffffffffffffffffffffffffffffffffffff168273ffffffffffffffffffffffffffffffffffffffff1603610c735780600260008282540392505081905550610cc0565b806000808473ffffffffffffffffffffffffffffffffffffffff1673ffffffffffffffffffffffffffffffffffffffff168152602001908152602001600020600082825401925050819055505b8173ffffffffffffffffffffffffffffffffffffffff168373ffffffffffffffffffffffffffffffffffffffff167fddf252ad1be2c89b69c2b068fc378daa952ba7f163c4a11628f55a4df523b3ef83604051610d1d9190610f24565b60405180910390a3505050565b600081519050919050565b600082825260208201905092915050565b60005b83811015610d64578082015181840152602081019050610d49565b60008484015250505050565b6000601f19601f8301169050919050565b6000610d8c82610d2a565b610d968185610d35565b9350610da6818560208601610d46565b610daf81610d70565b840191505092915050565b60006020820190508181036000830152610dd48184610d81565b905092915050565b600080fd5b600073ffffffffffffffffffffffffffffffffffffffff82169050919050565b6000610e0c82610de1565b9050919050565b610e1c81610e01565b8114610e2757600080fd5b50565b600081359050610e3981610e13565b92915050565b6000819050919050565b610e5281610e3f565b8114610e5d57600080fd5b50565b600081359050610e6f81610e49565b92915050565b60008060408385031215610e8c57610e8b610ddc565b5b6000610e9a85828601610e2a565b9250506020610eab85828601610e60565b9150509250929050565b60008115159050919050565b610eca81610eb5565b82525050565b6000602082019050610ee56000830184610ec1565b92915050565b610ef481610e01565b82525050565b6000602082019050610f0f6000830184610eeb565b92915050565b610f1e81610e3f565b82525050565b6000602082019050610f396000830184610f15565b92915050565b600080600060608486031215610f5857610f57610ddc565b5b6000610f6686828701610e2a565b9350506020610f7786828701610e2a565b9250506040610f8886828701610e60565b9150509250925092565b600060ff82169050919050565b610fa881610f92565b82525050565b6000602082019050610fc36000830184610f9f565b92915050565b600060208284031215610fdf57610fde610ddc565b5b6000610fed84828501610e60565b91505092915050565b60006020828403121561100c5761100b610ddc565b5b600061101a84828501610e2a565b91505092915050565b6000806040838503121561103a57611039610ddc565b5b600061104885828601610e2a565b925050602061105985828601610e2a565b9150509250929050565b7f4e487b7100000000000000000000000000000000000000000000000000000000600052602260045260246000fd5b600060028204905060018216806110aa57607f821691505b6020821081036110bd576110bc611063565b5b50919050565b7f4e487b7100000000000000000000000000000000000000000000000000000000600052601160045260246000fd5b60008160011c9050919050565b6000808291508390505b600185111561114957808604811115611125576111246110c3565b5b60018516156111345780820291505b8081029050611142856110f2565b9450611109565b94509492505050565b600082611162576001905061121e565b81611170576000905061121e565b81600181146111865760028114611190576111bf565b600191505061121e565b60ff8411156111a2576111a16110c3565b5b8360020a9150848211156111b9576111b86110c3565b5b5061121e565b5060208310610133831016604e8410600b84101617156111f45782820a9050838111156111ef576111ee6110c3565b5b61121e565b61120184848460016110ff565b92509050818404811115611218576112176110c3565b5b81810290505b9392505050565b600061123082610e3f565b915061123b83610f92565b92506112687fffffffffffffffffffffffffffffffffffffffffffffffffffffffffffffffff8484611152565b905092915050565b600061127b82610e3f565b915061128683610e3f565b925082820261129481610e3f565b915082820484148315176112ab576112aa6110c3565b5b5092915050565b60006112bd82610e3f565b91506112c883610e3f565b92508282019050808211156112e0576112df6110c3565b5b92915050565b60006060820190506112fb6000830186610eeb565b6113086020830185610f15565b6113156040830184610f15565b94935050505056fea2646970667358221220b4a6395996fcd414e5ced3ddaacef9fef4fa6a72795b763762e837425c86106964736f6c634300081c0033a26469706673582212203da3bc18892541d6a0fac279bb8285561412ccba31504853cb33476ccb91c60564736f6c634300081c003360a060405234801561001057600080fd5b506040518060400160405280600c81526020017f45636f4e6f7661546f6b656e00000000000000000000000000000000000000008152506040518060400160405280600381526020017f454e540000000000000000000000000000000000000000000000000000000000815250816003908161008c9190610328565b50806004908161009c9190610328565b5050503373ffffffffffffffffffffffffffffffffffffffff1660808173ffffffffffffffffffffffffffffffffffffffff16815250506103fa565b600081519050919050565b7f4e487b7100000000000000000000000000000000000000000000000000000000600052604160045260246000fd5b7f4e487b7100000000000000000000000000000000000000000000000000000000600052602260045260246000fd5b6000600282049050600182168061015957607f821691505b60208210810361016c5761016b610112565b5b50919050565b60008190508160005260206000209050919050565b60006020601f8301049050919050565b600082821b905092915050565b6000600883026101d47fffffffffffffffffffffffffffffffffffffffffffffffffffffffffffffffff82610197565b6101de8683610197565b95508019841693508086168417925050509392505050565b6000819050919050565b6000819050919050565b600061022561022061021b846101f6565b610200565b6101f6565b9050919050565b6000819050919050565b61023f8361020a565b61025361024b8261022c565b8484546101a4565b825550505050565b600090565b61026861025b565b610273818484610236565b505050565b5b818110156102975761028c600082610260565b600181019050610279565b5050565b601f8211156102dc576102ad81610172565b6102b684610187565b810160208510156102c5578190505b6102d96102d185610187565b830182610278565b50505b505050565b600082821c905092915050565b60006102ff600019846008026102e1565b1980831691505092915050565b600061031883836102ee565b9150826002028217905092915050565b610331826100d8565b67ffffffffffffffff81111561034a576103496100e3565b5b6103548254610141565b61035f82828561029b565b600060209050601f8311600181146103925760008415610380578287015190505b61038a858261030c565b8655506103f2565b601f1984166103a086610172565b60005b828110156103c8578489015182556001820191506020850194506020810190506103a3565b868310156103e557848901516103e1601f8916826102ee565b8355505b6001600288020188555050505b505050505050565b60805161106e61041c6000396000818161033001526103a5015261106e6000f3fe608060405234801561001057600080fd5b50600436106100b45760003560e01c806332cb6b0c1161007157806332cb6b0c1461019157806340c10f19146101af57806370a08231146101cb57806395d89b41146101fb578063a9059cbb14610219578063dd62ed3e14610249576100b4565b806306fdde03146100b9578063095ea7b3146100d7578063117803e31461010757806318160ddd1461012557806323b872dd14610143578063313ce56714610173575b600080fd5b6100c1610279565b6040516100ce9190610cc2565b60405180910390f35b6100f160048036038101906100ec9190610d7d565b61030b565b6040516100fe9190610dd8565b60405180910390f35b61010f61032e565b60405161011c9190610e02565b60405180910390f35b61012d610352565b60405161013a9190610e2c565b60405180910390f35b61015d60048036038101906101589190610e47565b61035c565b60405161016a9190610dd8565b60405180910390f35b61017b61038b565b6040516101889190610eb6565b60405180910390f35b610199610394565b6040516101a69190610e2c565b60405180910390f35b6101c960048036038101906101c49190610d7d565b6103a3565b005b6101e560048036038101906101e09190610ed1565b61048d565b6040516101f29190610e2c565b60405180910390f35b6102036104d5565b6040516102109190610cc2565b60405180910390f35b610233600480360381019061022e9190610d7d565b610567565b6040516102409190610dd8565b60405180910390f35b610263600480360381019061025e9190610efe565b61058a565b6040516102709190610e2c565b60405180910390f35b60606003805461028890610f6d565b80601f01602080910402602001604051908101604052809291908181526020018280546102b490610f6d565b80156103015780601f106102d657610100808354040283529160200191610301565b820191906000526020600020905b8154815290600101906020018083116102e457829003601f168201915b5050505050905090565b600080610316610611565b9050610323818585610619565b600191505092915050565b7f000000000000000000000000000000000000000000000000000000000000000081565b6000600254905090565b600080610367610611565b905061037485828561062b565b61037f8585856106c0565b60019150509392505050565b60006012905090565b6a115eec47f6cf7e3500000081565b7f000000000000000000000000000000000000000000000000000000000000000073ffffffffffffffffffffffffffffffffffffffff163373ffffffffffffffffffffffffffffffffffffffff1614610428576040517f3977181a00000000000000000000000000000000000000000000000000000000815260040160405180910390fd5b6a115eec47f6cf7e350000008161043d610352565b6104479190610fcd565b111561047f576040517fd26d197300000000000000000000000000000000000000000000000000000000815260040160405180910390fd5b61048982826107b4565b5050565b60008060008373ffffffffffffffffffffffffffffffffffffffff1673ffffffffffffffffffffffffffffffffffffffff168152602001908152602001600020549050919050565b6060600480546104e490610f6d565b80601f016020809104026020016040519081016040528092919081815260200182805461051090610f6d565b801561055d5780601f106105325761010080835404028352916020019161055d565b820191906000526020600020905b81548152906001019060200180831161054057829003601f168201915b5050505050905090565b600080610572610611565b905061057f8185856106c0565b600191505092915050565b6000600160008473ffffffffffffffffffffffffffffffffffffffff1673ffffffffffffffffffffffffffffffffffffffff16815260200190815260200160002060008373ffffffffffffffffffffffffffffffffffffffff1673ffffffffffffffffffffffffffffffffffffffff16815260200190815260200160002054905092915050565b600033905090565b6106268383836001610836565b505050565b6000610637848461058a565b90507fffffffffffffffffffffffffffffffffffffffffffffffffffffffffffffffff8110156106ba57818110156106aa578281836040517ffb8f41b20000000000000000000000000000000000000000000000000000000081526004016106a193929190611001565b60405180910390fd5b6106b984848484036000610836565b5b50505050565b600073ffffffffffffffffffffffffffffffffffffffff168373ffffffffffffffffffffffffffffffffffffffff16036107325760006040517f96c6fd1e0000000000000000000000000000000000000000000000000000000081526004016107299190610e02565b60405180910390fd5b600073ffffffffffffffffffffffffffffffffffffffff168273ffffffffffffffffffffffffffffffffffffffff16036107a45760006040517fec442f0500000000000000000000000000000000000000000000000000000000815260040161079b9190610e02565b60405180910390fd5b6107af838383610a0d565b505050565b600073ffffffffffffffffffffffffffffffffffffffff168273ffffffffffffffffffffffffffffffffffffffff16036108265760006040517fec442f0500000000000000000000000000000000000000000000000000000000815260040161081d9190610e02565b60405180910390fd5b61083260008383610a0d565b5050565b600073ffffffffffffffffffffffffffffffffffffffff168473ffffffffffffffffffffffffffffffffffffffff16036108a85760006040517fe602df0500000000000000000000000000000000000000000000000000000000815260040161089f9190610e02565b60405180910390fd5b600073ffffffffffffffffffffffffffffffffffffffff168373ffffffffffffffffffffffffffffffffffffffff160361091a5760006040517f94280d620000000000000000000000000000000000000000000000000000000081526004016109119190610e02565b60405180910390fd5b81600160008673ffffffffffffffffffffffffffffffffffffffff1673ffffffffffffffffffffffffffffffffffffffff16815260200190815260200160002060008573ffffffffffffffffffffffffffffffffffffffff1673ffffffffffffffffffffffffffffffffffffffff168152602001908152602001600020819055508015610a07578273ffffffffffffffffffffffffffffffffffffffff168473ffffffffffffffffffffffffffffffffffffffff167f8c5be1e5ebec7d5bd14f71427d1e84f3dd0314c0f7b2291e5b200ac8c7c3b925846040516109fe9190610e2c565b60405180910390a35b50505050565b600073ffffffffffffffffffffffffffffffffffffffff168373ffffffffffffffffffffffffffffffffffffffff1603610a5f578060026000828254610a539190610fcd565b92505081905550610b32565b60008060008573ffffffffffffffffffffffffffffffffffffffff1673ffffffffffffffffffffffffffffffffffffffff16815260200190815260200160002054905081811015610aeb578381836040517fe450d38c000000000000000000000000000000000000000000000000000000008152600401610ae293929190611001565b60405180910390fd5b8181036000808673ffffffffffffffffffffffffffffffffffffffff1673ffffffffffffffffffffffffffffffffffffffff16815260200190815260200160002081905550505b600073ffffffffffffffffffffffffffffffffffffffff168273ffffffffffffffffffffffffffffffffffffffff1603610b7b5780600260008282540392505081905550610bc8565b806000808473ffffffffffffffffffffffffffffffffffffffff1673ffffffffffffffffffffffffffffffffffffffff168152602001908152602001600020600082825401925050819055505b8173ffffffffffffffffffffffffffffffffffffffff168373ffffffffffffffffffffffffffffffffffffffff167fddf252ad1be2c89b69c2b068fc378daa952ba7f163c4a11628f55a4df523b3ef83604051610c259190610e2c565b60405180910390a3505050565b600081519050919050565b600082825260208201905092915050565b60005b83811015610c6c578082015181840152602081019050610c51565b60008484015250505050565b6000601f19601f8301169050919050565b6000610c9482610c32565b610c9e8185610c3d565b9350610cae818560208601610c4e565b610cb781610c78565b840191505092915050565b60006020820190508181036000830152610cdc8184610c89565b905092915050565b600080fd5b600073ffffffffffffffffffffffffffffffffffffffff82169050919050565b6000610d1482610ce9565b9050919050565b610d2481610d09565b8114610d2f57600080fd5b50565b600081359050610d4181610d1b565b92915050565b6000819050919050565b610d5a81610d47565b8114610d6557600080fd5b50565b600081359050610d7781610d51565b92915050565b60008060408385031215610d9457610d93610ce4565b5b6000610da285828601610d32565b9250506020610db385828601610d68565b9150509250929050565b60008115159050919050565b610dd281610dbd565b82525050565b6000602082019050610ded6000830184610dc9565b92915050565b610dfc81610d09565b82525050565b6000602082019050610e176000830184610df3565b92915050565b610e2681610d47565b82525050565b6000602082019050610e416000830184610e1d565b92915050565b600080600060608486031215610e6057610e5f610ce4565b5b6000610e6e86828701610d32565b9350506020610e7f86828701610d32565b9250506040610e9086828701610d68565b9150509250925092565b600060ff82169050919050565b610eb081610e9a565b82525050565b6000602082019050610ecb6000830184610ea7565b92915050565b600060208284031215610ee757610ee6610ce4565b5b6000610ef584828501610d32565b91505092915050565b60008060408385031215610f1557610f14610ce4565b5b6000610f2385828601610d32565b9250506020610f3485828601610d32565b9150509250929050565b7f4e487b7100000000000000000000000000000000000000000000000000000000600052602260045260246000fd5b60006002820490506001821680610f8557607f821691505b602082108103610f9857610f97610f3e565b5b50919050565b7f4e487b7100000000000000000000000000000000000000000000000000000000600052601160045260246000fd5b6000610fd882610d47565b9150610fe383610d47565b9250828201905080821115610ffb57610ffa610f9e565b5b92915050565b60006060820190506110166000830186610df3565b6110236020830185610e1d565b6110306040830184610e1d565b94935050505056fea26469706673582212204821a34311742d2dfdea675bece4549a10636bea1bf125bd4adb25740a752d7d64736f6c634300081c0033",
  "linkReferences": {},
  "deployedLinkReferences": {}
}