{
  "contracts/mocks/MockOracleAggregator.sol": {
    "MockOracleAggregator": {
      "abi": [
        {
          "inputs": [
            {
              "internalType": "uint32",
              "name": "",
              "type": "uint32"
            },
            {
              "internalType": "bytes20",
              "name": "",
              "type": "bytes20"
            }
          ],
          "name": "getLatestData",
          "outputs": [
            {
              "internalType": "bytes32",
              "name": "",
              "type": "bytes32"
            }
          ],
          "stateMutability": "view",
          "type": "function"
        }
      ],
      "evm": {
        "bytecode": {
          "linkReferences": {},
          "object": "608060405268a80d24677efef00000600055348015601c57600080fd5b506101b28061002c6000396000f3fe608060405234801561001057600080fd5b506004361061002b5760003560e01c806359fd3afe14610030575b600080fd5b61004a60048036038101906100459190610108565b610060565b6040516100579190610161565b60405180910390f35b6000805460001b905092915050565b600080fd5b600063ffffffff82169050919050565b61008d81610074565b811461009857600080fd5b50565b6000813590506100aa81610084565b92915050565b60007fffffffffffffffffffffffffffffffffffffffff00000000000000000000000082169050919050565b6100e5816100b0565b81146100f057600080fd5b50565b600081359050610102816100dc565b92915050565b6000806040838503121561011f5761011e61006f565b5b600061012d8582860161009b565b925050602061013e858286016100f3565b9150509250929050565b6000819050919050565b61015b81610148565b82525050565b60006020820190506101766000830184610152565b9291505056fea2646970667358221220c6580228f15286d696f368c13754fcdc43061bb4f4422bc0052ac04765a9ecb664736f6c634300081c0033",
          "opcodes": "PUSH1 0x80 PUSH1 0x40 MSTORE PUSH9 0xA80D24677EFEF00000 PUSH1 0x0 SSTORE CALLVALUE DUP1 ISZERO PUSH1 0x1C JUMPI PUSH1 0x0 DUP1 REVERT JUMPDEST POP PUSH2 0x1B2 DUP1 PUSH2 0x2C PUSH1 0x0 CODECOPY PUSH1 0x0 RETURN INVALID PUSH1 0x80 PUSH1 0x40 MSTORE CALLVALUE DUP1 ISZERO PUSH2 0x10 JUMPI PUSH1 0x0 DUP1 REVERT JUMPDEST POP PUSH1 0x4 CALLDATASIZE LT PUSH2 0x2B JUMPI PUSH1 0x0 CALLDATALOAD PUSH1 0xE0 SHR DUP1 PUSH4 0x59FD3AFE EQ PUSH2 0x30 JUMPI JUMPDEST PUSH1 0x0 DUP1 REVERT JUMPDEST PUSH2 0x4A PUSH1 0x4 DUP1 CALLDATASIZE SUB DUP2 ADD SWAP1 PUSH2 0x45 SWAP2 SWAP1 PUSH2 0x108 JUMP JUMPDEST PUSH2 0x60 JUMP JUMPDEST PUSH1 0x40 MLOAD PUSH2 0x57 SWAP2 SWAP1 PUSH2 0x161 JUMP JUMPDEST PUSH1 0x40 MLOAD DUP1 SWAP2 SUB SWAP1 RETURN JUMPDEST PUSH1 0x0 DUP1 SLOAD PUSH1 0x0 SHL SWAP1 POP SWAP3 SWAP2 POP POP JUMP JUMPDEST PUSH1 0x0 DUP1 REVERT JUMPDEST PUSH1 0x0 PUSH4 0xFFFFFFFF DUP3 AND SWAP1 POP SWAP2 SWAP1 POP JUMP JUMPDEST PUSH2 0x8D DUP2 PUSH2 0x74 JUMP JUMPDEST DUP2 EQ PUSH2 0x98 JUMPI PUSH1 0x0 DUP1 REVERT JUMPDEST POP JUMP JUMPDEST PUSH1 0x0 DUP2 CALLDATALOAD SWAP1 POP PUSH2 0xAA DUP2 PUSH2 0x84 JUMP JUMPDEST SWAP3 SWAP2 POP POP JUMP JUMPDEST PUSH1 0x0 PUSH32 0xFFFFFFFFFFFFFFFFFFFFFFFFFFFFFFFFFFFFFFFF000000000000000000000000 DUP3 AND SWAP1 POP SWAP2 SWAP1 POP JUMP JUMPDEST PUSH2 0xE5 DUP2 PUSH2 0xB0 JUMP JUMPDEST DUP2 EQ PUSH2 0xF0 JUMPI PUSH1 0x0 DUP1 REVERT JUMPDEST POP JUMP JUMPDEST PUSH1 0x0 DUP2 CALLDATALOAD SWAP1 POP PUSH2 0x102 DUP2 PUSH2 0xDC JUMP JUMPDEST SWAP3 SWAP2 POP POP JUMP JUMPDEST PUSH1 0x0 DUP1 PUSH1 0x40 DUP4 DUP6 SUB SLT ISZERO PUSH2 0x11F JUMPI PUSH2 0x11E PUSH2 0x6F JUMP JUMPDEST JUMPDEST PUSH1 0x0 PUSH2 0x12D DUP6 DUP3 DUP7 ADD PUSH2 0x9B JUMP JUMPDEST SWAP3 POP POP PUSH1 0x20 PUSH2 0x13E DUP6 DUP3 DUP7 ADD PUSH2 0xF3 JUMP JUMPDEST SWAP2 POP POP SWAP3 POP SWAP3 SWAP1 POP JUMP JUMPDEST PUSH1 0x0 DUP2 SWAP1 POP SWAP2 SWAP1 POP JUMP JUMPDEST PUSH2 0x15B DUP2 PUSH2 0x148 JUMP JUMPDEST DUP3 MSTORE POP POP JUMP JUMPDEST PUSH1 0x0 PUSH1 0x20 DUP3 ADD SWAP1 POP PUSH2 0x176 PUSH1 0x0 DUP4 ADD DUP5 PUSH2 0x152 JUMP JUMPDEST SWAP3 SWAP2 POP POP JUMP INVALID LOG2 PUSH5 0x6970667358 0x22 SLT KECCAK256 0xC6 PC MUL 0x28 CALL MSTORE DUP7 0xD6 SWAP7 RETURN PUSH9 0xC13754FCDC43061BB4 DELEGATECALL TIMESTAMP 0x2B 0xC0 SDIV 0x2A 0xC0 SELFBALANCE PUSH6 0xA9ECB664736F PUSH13 0x634300081C0033000000000000 "
        },
        "methodIdentifiers": {
          "getLatestData(uint32,bytes20)": "59fd3afe"
        }
      }
    }
  }
}